:100000000C942C060C9470060C9470060C947006DC
:100010000C9470060C9470060C9470060C94700688
:100020000C9470060C9470060C94380E0C940A0F05
:100030000C94641D0C9470060C9470060C9470065D
:100040000C9470060C9470060C9470060C94700658
:100050000C9470060C94D71D0C9470060C947006CA
:100060000C9470060C9470060C9470060C94700638
:100070000C9470060C9470060C9470060C94700628
:100080000C9470060C9470060C9470060C94700618
:100090000C9470060C9470060C9470060C94700608
:1000A0000C9470060C9470060C9470066F0F910FF0
:1000B0007C10910F7C10D30FF60F7C104B105E104C
:1000C000B613B613E413E41340147C146D166D16C6
:1000D00094146D168B158B1547166D166D165B16E1
:1000E0002CA12CA2F1A300000000000000000000E1
:1000F0000000000035021E021F022002210222021F
:100100002302240225022F0230022D02260227029A
:100110002E023302310234022B141A0815171C1850
:100120000C12132AE0041607090A0B0D0E0F002803
:10013000E1001D1B0619051110363738C2E200E335
:10014000C000C1000029E7C2351E1F202122232440
:100150002526272D01010101340101D6D72E0033B8
:100160000100010101010101010101310101000151
:1001700001002C0000010101CACBCCCDCECFD0D1E3
:10018000D2D3D4D501010101DB01012F30D800D930
:100190000100010101010101010101DA0101000178
:1001A0002C00010000010101013A3B3C3D3E3F4073
:1001B0004142430101014E4A4D4B5051524F000103
:1001C0000100010101010101010101BF0101000163
:1001D00001000100000101010A00253031366200F2
:1001E0003A200025303258000A722F632030313215
:1001F000333435363738394142434445460A000ADC
:10020000002530325800626F756E6365213A200018
:100210005B735D004B6579626F617264207374611A
:1002200072742E0A0055534220636F6E66696775BB
:100230007265642E0A005B575D005B535D005B5284
:100240005D005B445D005B435D0010034D00690091
:100250006E006F0072006300610000002203500016
:1002600061006E006300200049006E0074006500AC
:100270007200610063007400690076006500000090
:100280000403090409028D00050100A032090400DD
:10029000000103010100092111010001223F0007B3
:1002A00005810308000A0904010001030102000995
:1002B0002111010001224D000705820308000A09EF
:1002C000040200010300000009211101000122368F
:1002D000000705830308000A090403000203000065
:1002E00000092111010001222000070584032000DC
:1002F00001070504032000010904040001030000B4
:1003000000092111010001223900070585031000B1
:10031000011201100100000008EDFE606001000103
:1003200002000105010906A101050719E029E715E9
:100330000025019508750181020508190129059517
:1003400005750191029501750391010507190029B1
:100350007715002501957875018102C00631FF09E6
:1003600074A1010975150025FF9520750881020902
:1003700076150025FF952075089102C005010980BA
:10038000A101850216010026B7001A01002AB70054
:10039000751095018100C0050C0901A101850316A6
:1003A0000100269C021A01002A9C02751095018109
:1003B00000C005010902A1010901A10005091901F7
:1003C0002905150025019505750181029501750323
:1003D00081010501093009311581257F95027508D4
:1003E000810609381581257F950175088106050C60
:1003F0000A38021581257F950175088106C0C00560
:10040000010906A101050719E029E7150025019555
:1004100008750181029501750881010508190129F6
:10042000059505750191029501750391010507195F
:100430000029FF150025FF950675088100C00A00F8
:100440002530325820006B6579626F6172645F728B
:1004500065706F72743A20004C45443A2025303262
:10046000580A0064656C5F6B65795F6269743A2055
:1004700063616E27742064656C3A20253032580A17
:10048000006164645F6B65795F6269743A206361DF
:100490006E2774206164643A20253032580A006463
:1004A0006F6E652E0A00626F6F746D6167696320FD
:1004B0007363616E3A202E2E2E2000290A002575C6
:1004C000002F002575005D280025640020002564AC
:1004D00000200025640020002564007C00253032C7
:1004E00058006D6F7573656B6579205B62746E7C07
:1004F000782079207620685D287265702F61636CA2
:10050000293A205B006D6B5F776865656C5F746985
:100510006D655F746F5F6D6178203D2025640A0012
:100520006D6B5F776865656C5F6D61785F73706533
:100530006564203D2025640A006D6B5F74696D65FC
:100540005F746F5F6D6178203D2025640A006D6BDC
:100550005F6D61785F7370656564203D2025640A76
:10056000006D6B5F696E74657276616C203D20254D
:10057000640A006D6B5F64656C6179203D202564C1
:100580000A006D6B5F776865656C5F74696D655FA8
:10059000746F5F6D6178203D2025640A006D6B5F8C
:1005A000776865656C5F6D61785F73706565642001
:1005B0003D2025640A006D6B5F74696D655F746F23
:1005C0005F6D6178203D2025640A006D6B5F6D6171
:1005D000785F7370656564203D2025640A006D6B4B
:1005E0005F696E74657276616C203D2025640A0037
:1005F0006D6B5F64656C6179203D2025640A000A9B
:1006000000257500363A20776865656C5F74696D02
:10061000655F746F5F6D61783A20000A0025750090
:10062000353A20776865656C5F6D61785F737065DA
:1006300065643A20000A00257500343A2074696D1B
:10064000655F746F5F6D61783A20000A0025750060
:10065000333A206D61785F73706565643A20000AF3
:1006600000257500323A20696E74657276616C28D7
:100670006D73293A20000A00257500313A2064651F
:100680006C6179282A31306D73293A20000A092DCE
:100690002056616C756573202D0A004D3E004D2576
:1006A000643E20003F007365742064656661756C6C
:1006B000740A00433E200077686572652064656CAB
:1006C00074613A20637572736F723D25642C2077D4
:1006D0006865656C3D25640A5365652068747470AF
:1006E0003A2F2F656E2E77696B6970656469612E8C
:1006F0006F72672F77696B692F4D6F7573655F6BCD
:100700006579730A000A092D204D6F7573656B6555
:1007100079202D0A4553432F713A09717569740A7E
:10072000313A0964656C6179282A31306D73290A80
:10073000323A09696E74657276616C286D73290AA4
:10074000333A096D61785F73706565640A343A09FC
:1007500074696D655F746F5F6D61780A353A09770A
:100760006865656C5F6D61785F73706565640A3696
:100770003A09776865656C5F74696D655F746F5F72
:100780006D61780A0A703A097072696E7420766138
:100790006C7565730A643A097365742064656661F3
:1007A000756C74730A75703A092B310A646F776E31
:1007B0003A092D310A706775703A092B31300A7089
:1007C00067646F776E3A092D31300A0A7370656578
:1007D00064203D2064656C7461202A206D61785F1F
:1007E0007370656564202A202872657065617420C5
:1007F0002F2074696D655F746F5F6D6178290A00E1
:100800003F004D3E2000433E20004C25640A000A74
:10081000092D20436F6E736F6C65202D0A4553437D
:100820002F713A09717569740A6D3A096D6F7573A4
:10083000656B65790A000A092D204D61676963209F
:100840002D0A643A0964656275670A783A09646535
:10085000627567206D61747269780A6B3A09646524
:10086000627567206B6579626F6172640A6D3A091F
:100870006465627567206D6F7573650A763A0976EF
:10088000657273696F6E0A733A0973746174757374
:100890000A633A09636F6E736F6C65206D6F6465F0
:1008A0000A302D343A096C61796572302D3428464E
:1008B00031302D4634290A506175733A09626F6FE1
:1008C000746C6F616465720A653A09656570726F70
:1008D0006D0A6E3A094E4B524F0A000A0025750008
:1008E0002E6E6B726F3A20000A002575002E73770A
:1008F00061705F6261636B736C6173685F62616397
:100900006B73706163653A20000A002575002E73D1
:100910007761705F67726176655F6573633A200027
:100920000A002575002E6E6F5F6775693A20000A10
:10093000002575002E737761705F72616C745F7251
:100940006775693A20000A002575002E737761707B
:100950005F6C616C745F6C6775693A20000A0025F2
:1009600075002E636170736C6F636B5F746F5F6390
:100970006F6E74726F6C3A20000A002575002E733A
:100980007761705F636F6E74726F6C5F63617073B9
:100990006C6F636B3A20000A0025303258006B659B
:1009A000796D61705F636F6E6669672E7261773A09
:1009B00020000A002575002E6D6F7573653A2000C2
:1009C0000A002575002E6B6579626F6172643A20AA
:1009D000000A002575002E6D61747269783A200056
:1009E0000A002575002E656E61626C653A20000A6A
:1009F00000253032580064656275675F636F6E660C
:100A000069672E7261773A20000A002575006465D7
:100A10006661756C745F6C617965723A20003F00A5
:100A20004E4B524F3A206F66660A004E4B524F3A79
:100A3000206F6E0A0074696D65725F726561643360
:100A40003228293A202530346C580A006B657962C7
:100A50006F6172645F6E6B726F3A2025580A006B8B
:100A60006579626F6172645F69646C653A202558CC
:100A70000A006B6579626F6172645F70726F746F88
:100A8000636F6C3A2025580A00686F73745F6B655A
:100A900079626F6172645F6C65647328293A2025FE
:100AA000580A000A092D20537461747573202D0AA9
:100AB000004743433A20342E382E31204156522DE0
:100AC0004C4942433A20312E382E3073766E204105
:100AD00056525F415243483A20617672350A004FC0
:100AE0005054494F4E533A204C55464120424F4FA7
:100AF000544D41474943204D4F5553454B4559208F
:100B000045585452414B455920434F4E534F4C4545
:100B100020434F4D4D414E44204E4B524F203430D8
:100B200039360A004255494C443A203962623562EE
:100B300066652D6469727479202831313A31323A10
:100B40003031205365702031312032303136290A5E
:100B5000005649443A203078464545442850616E55
:100B60006320496E746572616374697665292050EB
:100B700049443A20307836303630284D696E6F72ED
:100B8000636129205645523A203078303030310A9E
:100B900000444553433A20742E6D2E6B2E206B6516
:100BA00079626F617264206669726D776172652027
:100BB000666F72204D696E6F7263610A000A092DBB
:100BC0002056657273696F6E202D0A000A6D6F756D
:100BD00073653A206F66660A000A6D6F7573653A31
:100BE000206F6E0A000A6B6579626F6172643A2049
:100BF0006F66660A000A6B6579626F6172643A20FB
:100C00006F6E0A000A6D61747269783A206F6666C9
:100C10000A000A6D61747269783A206F6E0A000AE0
:100C200064656275673A206F6E0A000A64656275D2
:100C3000673A206F66660A000A0A626F6F746C6F0B
:100C4000616465722E2E2E2000433E200065656390
:100C50006F6E6669673A0A0011241FBECFEFDAE0B3
:100C6000DEBFCDBF04B603FE24C08091E0019091A9
:100C7000E101A091E201B091E3018730904BA740E0
:100C8000B04BB9F41092E0011092E1011092E20130
:100C90001092E30114BE84B7877F84BF88E10FB64A
:100CA000F89480936000109260000FBEE0E0F8E3DB
:100CB000099511E0A0E0B1E0EAE1F5E502C0059098
:100CC0000D92A833B107D9F721E0A8E3B1E001C044
:100CD0001D92A03EB207E1F70E946C0B0C948B2A88
:100CE0000C940000FF93EF93E0913801F0913901EB
:100CF000309709F00995EF91FF910895FC018591D6
:100D0000803011F0EFDFFBCF0895FF27E0E230E203
:100D100047FF0CC0419597FF09C0EDE260957095C3
:100D200080959095611D711D811D911D27FF02C049
:100D3000219530E350E2AA27660F771F881F991F7D
:100D4000AA1FA41710F0A41B63955A95A9F7AA30FF
:100D500008F0A95FA05DAF93F3956115710581055A
:100D6000910541F7ED3211F4EF93F395F21718F472
:100D70003F93F395FBCF8F91B5DFFA95E1F7089597
:100D8000E991F9918591803021F0853219F0AADF3F
:100D9000F9CF089520E0E89455915532C1F35033CE
:100DA00011F4689455915A3348F4505390F3220F3C
:100DB000022E220F220F200D250FF4CF0EF42195C5
:100DC00089919991533619F3533729F1533559F1D4
:100DD000BC0188279927E8945C3621F48991999180
:100DE00068945591543639F446EF7EF077FF0DC084
:100DF0008FEF9FEF0AC055374AE039F0583540E190
:100E000021F0523642E009F00895FF93EF937DDF21
:100E1000EF91FF91B7CFFF93EF93FC018191803069
:100E2000B9F360DFFBCFFF93EF9368DFF1CFDF9380
:100E3000CF93CDB7DEB72596A3DFCF91DF9108958D
:100E40009CE0799FF001112490E3899FE00DF11D52
:100E50001124E60FF11DE85EFE4F84910895E82FFE
:100E6000F0E0EE0FFF1FE05AF04085919491089555
:100E700080B38C7C80BB81B38C7C81BB08950E9445
:100E8000380780B38F7380BB81B3806C81BB84B122
:100E90008F7084B985B1806785B98AB180778AB946
:100EA0008BB18F688BB987B18F7387B988B1806C2C
:100EB00088B9109243011092420110923B011092A6
:100EC0003A01109245011092440110923D01109296
:100ED0003C01109247011092460110923F0110927E
:100EE0003E01109249011092480110924101109266
:100EF00040010895BF92CF92DF92EF92FF920F933D
:100F00001F93CF93DF93CAE3D1E0D12CCC24C394B9
:100F1000A5E0BA2EB1E0EB2EB2E0FB2E82E0D816AF
:100F200061F093E0D91661F081E0D81619F0809A4B
:100F3000889808C0819A899805C0849A8C9802C0C4
:100F4000859A8D9890EA9A95F1F78FB1829586955A
:100F5000869583708C25082F017010E08FB199273A
:100F600087FD9095809590958827990F881F9927E0
:100F7000880F991F802B912B1E9B03C020E030E02F
:100F800002C024E030E0822B932B1D9B03C020E0A5
:100F900030E002C028E030E0822B932B1C9B03C082
:100FA00020E030E002C020E130E0822B932B29B119
:100FB000332727FD3095209530952227330F221FA8
:100FC000332755E0220F331F5A95E1F7822B932BDD
:100FD00026B1332727FD3095209530952227330FF2
:100FE000221F332776E0220F331F7A95E1F7822BF9
:100FF000932B369B03C060E070E002C060E870E0B5
:10100000862B972B4B9B03C060E070E002C060E032
:1010100071E0862B972B4A9B03C040E050E002C052
:1010200040E052E0842B952B499B03C020E030E048
:1010300002C020E034E0822B932B489B03C020E0C9
:1010400030E002C020E038E0822B932B28813981E8
:101050002817390741F199838883809100018823FB
:1010600001F18091C10180FF04C086E092E00E94FE
:101070007E068091C10180FF0CC0809100011F920B
:101080008F93FF92EF920E9417070F900F900F908F
:101090000F908091C10180FF04C08FEF91E00E940A
:1010A0007E06B09200010E943807D394229684E015
:1010B000D81234CF80910001882361F18150809350
:1010C0000001882339F08FE99FE00197F1F700C014
:1010D000000020C080913A0190913B019093430120
:1010E0008093420180913C0190913D019093450194
:1010F0008093440180913E0190913F01909347017C
:101100008093460180914001909141019093490163
:101110008093480181E0DF91CF911F910F91FF9063
:10112000EF90DF90CF90BF900895E82FF0E0EE0FA2
:10113000FF1FEE5BFE4F808191810895CF92DF9279
:10114000EF92FF920F931F93CF93DF9388EE91E07E
:101150000E947E0622E4E22E21E0F22EC0E0D0E0E2
:1011600033EEC32E31E0D32E0AED11E0DF93CF939F
:10117000DF92CF920E94170780EE91E00E947E06D8
:10118000F701819191917F010E94F61C9F938F93AB
:101190001F930F930E94170788ED91E00E947E062F
:1011A00021968DB79EB708960FB6F8949EBF0FBED6
:1011B0008DBFC430D105D1F6DF91CF911F910F9132
:1011C000FF90EF90DF90CF90089581FF02C0229AA8
:1011D00001C022982A98089580915D0108959FB7D3
:1011E000F89410924C019FBF9091D601943009F071
:1011F00058C09091E9009F702091EC0020FF02C040
:1012000020E801C020E0292B94E09093E900909120
:10121000EB0090FF43C09091EE0097FF3FC090918C
:101220004A01992321F09091E80095FF37C0109270
:101230004A0196E03091E80035FD15C03091D601A5
:10124000343061F53091EB0035FD28C0915021F428
:1012500081E080934A0122C0EFE9FFE03197F1F786
:1012600000C00000E7CF8093F1008091E80085FD89
:101270000AC08091E80080FFFCCF8091E8008E7763
:101280008093E80006C08FB7F89491E090934C01EA
:101290008FBF2F702093E90080E008952F70209376
:1012A000E9008FEF0895CF93DF9300D01F92CDB761
:1012B000DEB72091D601243019F523E029839B83E2
:1012C0008A832093E9008FEF9091E800815095FD8B
:1012D00006C095ED9A95F1F700008111F5CF809148
:1012E000E80085FF0DC040E050E063E070E0CE0113
:1012F00001960E942B0C8091E8008E778093E80085
:101300000F900F900F90DF91CF910895CF93DF93BF
:1013100000D01F92CDB7DEB72091D601243021F541
:1013200022E029839B838A8383E08093E9008FEF07
:101330009091E800815095FD06C095ED9A95F1F7E2
:1013400000008111F5CF8091E80085FF0DC040E0DD
:1013500050E063E070E0CE0101960E942B0C80917A
:10136000E8008E778093E8000F900F900F90DF9148
:10137000CF9108952091D6012430F1F422E02093FA
:10138000E9002FEF3091E800215035FD06C035ED22
:101390003A95F1F700002111F5CF2091E80025FFE3
:1013A0000BC040E050E065E070E00E942B0C8091A3
:1013B000E8008E778093E8000895CF93DF93EC01E7
:1013C0008091D601843009F047C080910B018823B9
:1013D000E1F080910C018823C1F085E08093E90061
:1013E0008FEF9091E800815095FD06C095E19A95A8
:1013F000F1F700008111F5CF8091E80085FF2CC046
:1014000040E050E060E170E017C081E08093E900C7
:101410008FEF9091E800815095FD06C095ED9A956B
:10142000F1F700008111F5CF8091E80085FF14C02D
:1014300040E050E068E070E0CE010E942B0C80910B
:10144000E8008E778093E80080E1FE01ADE4B1E032
:1014500001900D928A95E1F7DF91CF91089586E48E
:1014600092E00E947E068091D501811109C00E9400
:10147000BD0D0E941A0E8091E20084608093E2000C
:10148000089582E492E00E947E061092D5010895AC
:101490008EE392E00C947E0680914B018F5F8093E7
:1014A0004B0162E30E94202A911135C010924B013A
:1014B00080914C01882379F18091D601843049F5DF
:1014C0008091E9008F709091EC0090FF02C090E84D
:1014D00001C090E0982B84E08093E9008091EB00BC
:1014E00080FF14C08091EE0087FF10C08091E8005B
:1014F00085FF03C01092F100F9CF8091E80080FFD2
:1015000005C08091E8008E778093E8009F709093EB
:10151000E90010924C01089542E061EC81E00E94E4
:10152000370D42E061EC82E00E94370D42E061EC51
:1015300083E00E94370D42E261EC84E00E94370DA7
:1015400042E161EC85E00C94370D8091D801833045
:1015500009F455C030F4813071F0823009F48EC046
:1015600008958A3009F47AC08B3009F460C089305C
:1015700009F09CC020C08091D701813A09F096C043
:101580008091E800877F8093E8008091DB01909153
:10159000DC01892B21F060E080E090E003C060E195
:1015A0008DE491E070E00E94740C8091E8008B77EC
:1015B0008093E80008958091D701813209F076C0C8
:1015C0008091DB019091DC01009719F0049709F0FC
:1015D0006DC08091E800877F8093E8008091E800EB
:1015E00082FD05C08091D6018111F8CF5FC0809146
:1015F000F10080935D018091E8008B7753C080916A
:10160000D701813A09F052C08091DB019091DC0151
:10161000892B09F04BC08091E800877F8093E80018
:101620008091E80080FFFCCF80910B0136C0809153
:10163000D7018132D9F58091DB019091DC01892BB2
:10164000A9F58091E800877F8093E8000E946C0DE7
:101650008091D90180930B010C948E168091D70153
:10166000813221F58091E800877F8093E8000E9415
:101670006C0D8091DA0180935E0108958091D7010D
:10168000813AA1F48091E800877F8093E8008091FF
:10169000E80080FFFCCF80915E018093F100809193
:1016A000E8008E778093E8000C946C0D08950895FF
:1016B000089508958AE392E00E947E060C94590BE7
:1016C0000E94251D8091D401882329F00E944D1D80
:1016D00081110C94150C089584B7877F84BF88E12D
:1016E0000FB6F89480936000109260000FBE90E0F7
:1016F00080E80FB6F89480936100909361000FBE6C
:101700000E94570B0E9422110E94BD0D0E941A0ECA
:101710008091E20084608093E2008FEE98E00E9466
:10172000DF1C78948091D6018430E1F785E292E065
:101730000E947E060E94241181E091E00E94941094
:1017400084E192E00E947E060E94580B8091D601AF
:10175000853039F480E192E00E947E060E94600BA1
:10176000F5CF0E942A11F2CF0C94621D86E392E01D
:101770000E947E060C94B40B292F332723303105A9
:10178000A9F06CF42130310509F442C02230310552
:1017900009F043C08DE890E024E832E042C02132F5
:1017A0003105C9F02232310519F137C0992781304E
:1017B000910541F08230910541F0892B71F5E0E807
:1017C000F2E005C0ECE5F2E002C0EAE4F2E0849168
:1017D00090E09F0126C0653000F5E62FF0E0EE0FA7
:1017E000FF1FEC5DFE4F2081318189E090E019C040
:1017F000653098F4E62FF0E0DF01AA0FBB1FA65E6C
:10180000BE4F2D913C91EB5EFE4F808190E009C070
:1018100082E190E021E133E004C080E090E020E04C
:1018200030E0FA0131832083089580E189BD82E1AF
:1018300089BD09B400FEFDCF8091D8008F7D8093D3
:10184000D8008091E00082608093E0008091E00009
:1018500081FDFCCF0895CF92DF92EF92FF920F931C
:101860001F93CF93DF937C018B01EA010E948D0DC2
:10187000811131C0209731F088819981081B190BA3
:10188000E80EF91EC12CD12C0115110519F180911A
:10189000E80085FD14C08091E8008E778093E80011
:1018A000209741F0888199818C0D9D1D99838883B3
:1018B00085E011C00E948D0D882331F30CC0F70123
:1018C00081917F018093F10001501109FFEFCF1A40
:1018D000DF0ADACF80E0DF91CF911F910F91FF9067
:1018E000EF90DF90CF9008952091DD013091DE01DF
:1018F0002617370748F06115710539F42091E80083
:101900002E772093E80001C0B901FC0120E06115A9
:101910007105B9F18091D601882309F440C0853062
:1019200009F43FC08091E80083FD3DC08091E8004C
:1019300082FF06C08091E80082FF26C080E0089503
:101940008091E80080FFE3CF2091F3008091F200C6
:1019500090E0922B6115710551F08830910538F4B3
:1019600021912093F100615071090196F3CF21E09C
:10197000089709F020E08091E8008E778093E800D6
:10198000C6CF2111C7CFD6CF8091D601882339F099
:10199000853039F08091E80083FFCCCF04C082E02D
:1019A000089583E0089581E008952091DD0130914C
:1019B000DE012617370748F06115710539F42091CB
:1019C000E8002E772093E80001C0B901FC0120E077
:1019D00061157105C1F18091D601882309F441C0D8
:1019E000853009F440C08091E80083FD3EC08091BD
:1019F000E80082FF06C08091E80082FF27C080E0F7
:101A000008958091E80080FFE3CF2091F30080915A
:101A1000F20090E0922B6115710559F08830910524
:101A200040F424912093F1003196615071090196A0
:101A3000F2CF21E0089709F020E08091E8008E774E
:101A40008093E800C5CF2111C6CFD5CF8091D601B4
:101A5000882339F0853039F08091E80083FFCBCFBF
:101A600004C082E0089583E0089581E00895982FEE
:101A7000973058F59093E900981739F07091EC0081
:101A80002091ED005091F00003C0242F762F50E0FC
:101A900021FF19C03091EB003E7F3093EB00309175
:101AA000ED003D7F3093ED003091EB0031603093DD
:101AB000EB007093EC002093ED005093F000209128
:101AC000EE0027FF07C09F5FD3CF8F708093E900A0
:101AD00081E0089580E008958091D70187FD05C0D9
:101AE0008091E80080FF0EC012C08091E80082FD66
:101AF00005C08091D6018111F8CF08958091E8004A
:101B00008B7708C08091D6018111EACF089580912A
:101B1000E8008E778093E80008958091E40090912A
:101B2000E50045E62091EC0020FF21C02091E8006F
:101B300020FD21C02091D601222389F0253089F093
:101B40002091EB0025FD0FC02091E4003091E500CD
:101B50002817390739F3415041F0C901E3CF82E03A
:101B6000089583E0089581E0089584E00895209128
:101B7000E80022FFDFCF80E008950E942B0E0E9434
:101B8000330EE0EEF0E0808181608083E8EDF0E0EC
:101B900080818F77808319BCA7EDB0E08C918E7F18
:101BA0008C9380818F7E80831092D50108950F934E
:101BB0001F93CF93DF930E942B0E0E94330EC8ED2C
:101BC000D0E088818F778883888180688883888146
:101BD0008F7D888319BC1092D6011092D201109289
:101BE000D4011092D30100EE10E0F80180818B7FC8
:101BF000808388818160888342E060E080E00E9489
:101C0000370DE1EEF0E080818E7F8083E2EEF0E040
:101C1000808181608083808188608083F8018081F9
:101C20008E7F8083888180618883DF91CF911F912F
:101C30000F910895E8EDF0E080818F7E8083E7EDDD
:101C4000F0E080818160808384E082BF81E08093C6
:101C5000D5010C94D70DE8EDF0E080818E7F808374
:101C60001092E20008951092DA001092E1000895B7
:101C70001F920F920FB60F9211242F933F934F9301
:101C80005F936F937F938F939F93AF93BF93EF93E4
:101C9000FF938091E10082FF0BC08091E20082FF00
:101CA00007C08091E1008B7F8093E1000E944C0A85
:101CB0008091DA0080FF1FC08091D80080FF1BC098
:101CC0008091DA008E7F8093DA008091D90080FFC6
:101CD0000DC080E189BD82E189BD09B400FEFDCF60
:101CE00081E08093D6010E942F0A05C019BC109292
:101CF000D6010E94410A8091E10080FF19C08091C5
:101D0000E20080FF15C08091E2008E7F8093E200A8
:101D10008091E20080618093E2008091D80080622F
:101D20008093D80019BC85E08093D6010E945A0B9D
:101D30008091E10084FF30C08091E20084FF2CC0DC
:101D400080E189BD82E189BD09B400FEFDCF8091AB
:101D5000D8008F7D8093D8008091E1008F7E8093A2
:101D6000E1008091E2008F7E8093E2008091E200AA
:101D700081608093E2008091D201882311F084E099
:101D800007C08091E30087FF02C083E001C081E0CB
:101D90008093D6010E94B60B8091E10083FF29C099
:101DA0008091E20083FF25C08091E100877F8093CE
:101DB000E10082E08093D6011092D2018091E1008F
:101DC0008E7F8093E1008091E2008E7F8093E2001D
:101DD0008091E20080618093E20042E060E080E078
:101DE0000E94370D8091F00088608093F0000E947F
:101DF000480AFF91EF91BF91AF919F918F917F9191
:101E00006F915F914F913F912F910F900FBE0F9067
:101E10001F9018951F920F920FB60F9211242F93B7
:101E20003F934F935F936F937F938F939F93AF9362
:101E3000BF93CF93EF93FF93C091E900CF70809150
:101E4000EC001092E9008091F000877F8093F00011
:101E500078940E94460F1092E9008091F00088600B
:101E60008093F000C093E900FF91EF91CF91BF9173
:101E7000AF919F918F917F916F915F914F913F9122
:101E80002F910F900FBE0F901F9018951F93CF9317
:101E9000DF93CDB7DEB7AA970FB6F894DEBF0FBEBB
:101EA000CDBFE7EDF1E08091F100819321E0EF3DBE
:101EB000F207C9F70E94A50A8091E80083FF1CC1C0
:101EC0002091D7013091D801832F90E08A3091057D
:101ED00008F012C1FC01EA5AFF4F0C94402A203846
:101EE00081F0223809F008C18091DB018F70809366
:101EF000E9008091EB0085FB882780F91092E900CA
:101F000006C08091D3019091D4019111826090918B
:101F1000E800977F9093E8008093F1001092F10021
:101F2000C5C0822F8D7F09F0E7C0222319F022302F
:101F300061F0E2C08091D901813009F0DDC0333019
:101F400009F080E08093D40128C08091D9018111EB
:101F500024C02091DB012F7009F4CEC02093E9004A
:101F60008091EB0080FF19C08091EB00333011F4B9
:101F7000806211C080618093EB0081E090E0022ECE
:101F800001C0880F0A94EAF78093EA001092EA00F1
:101F90008091EB0088608093EB001092E9008091C3
:101FA000E800877F86C02111A7C01091D9011F7753
:101FB0008091E3008078812B8093E3008091E8009A
:101FC000877F8093E8000E946C0D8091E80080FF7D
:101FD000FCCF8091E30080688093E300112311F02F
:101FE00083E001C082E08093D60186C02058223071
:101FF00008F082C08091D9019091DA018C3D23E0F4
:10200000920779F583E08A838AE289834FB7F8944F
:10201000DE01139620E03EE051E2E32FF0E0509322
:102020005700E49120FF03C0E295EF703F5FEF702F
:102030008E2F90E0EA3010F0C79601C0C0968D93C5
:102040009D932F5F243149F74FBF8091E800877F30
:102050008093E8006AE270E0CE0101960E94740C61
:1020600014C0AE014F5F5F4F6091DB010E94BC0B5B
:10207000009709F441C02091E800277F2093E800F1
:10208000BC0189819A810E94D50C8091E8008B77F0
:102090008093E80031C0203879F58091E800877F8F
:1020A0008093E8008091D2018093F1008091E80054
:1020B0008E778093E8000E946C0D1EC021111CC019
:1020C0009091D9019230C0F48091E800877F80938D
:1020D000E8009093D2010E946C0D8091D201811191
:1020E00004C08091E30087FF02C084E001C081E06A
:1020F0008093D6010E948C0A8091E80083FF0AC079
:102100008091E800877F8093E8008091EB008062F7
:102110008093EB00AA960FB6F894DEBF0FBECDBF3A
:10212000DF91CF911F910895909364018093630193
:102130000895E0916301F0916401309721F00190DE
:10214000F081E02D099480E00895FF920F931F9392
:10215000CF93DF938C01E0916301F091640130979C
:1021600099F10280F381E02D09958091C10182FFF0
:102170002BC080FF04C086E494E00E947E06E80144
:1021800080E1F82E00E414E08091C10180FF0BC0D3
:1021900088811F928F931F930F930E9417070F90B0
:1021A0000F900F900F90FA942196F110EDCF80913F
:1021B000C10180FF09C08EE394E0DF91CF911F91B0
:1021C0000F91FF900C947E06DF91CF911F910F919C
:1021D000FF900895E0916301F0916401309721F040
:1021E0000480F581E02D09940895209161013091DA
:1021F00062018217930771F09093620180936101ED
:10220000E0916301F0916401309721F00680F7813D
:10221000E02D0994089520915F01309160018217AB
:10222000930771F09093600180935F01E0916301E7
:10223000F0916401309721F00084F185E02D09943C
:10224000089508950C9421110E948D1D0E943F074E
:102250000C94AE1F5F926F927F928F929F92AF927B
:10226000BF92CF92DF92EF92FF920F931F93CF9383
:10227000DF9300D000D01F92CDB7DEB70E947A075F
:1022800096E6C92E91E0D92E00E010E0AA24A3948E
:10229000B12C502E802F0E9495083C01F601E19050
:1022A000F1906F01E826F926E114F104B1F40F5F13
:1022B0001F4F0430110569F78FEF89838A831B82D2
:1022C0000E94961D8160782F9D838C8349815A815D
:1022D0006B818D810E94FD1141C08091C10181FD02
:1022E0000E949E0820E030E04501022E02C0880CCA
:1022F000991C0A94E2F7C4018E219F21892B41F198
:1023000029835A826820792081E0672809F480E0D7
:102310008B830E94961D8160782F9D838C834981D9
:102320005A816B818D810E94FD1149815A816B8197
:102330007C818D810E94111DF801EE0FFF1FEA596B
:10234000FE4F80819181882599259183808306C0E5
:102350002F5F3F4F2C30310539F6A9CF0E94101D59
:102360000E943523109165010E949910181771F190
:102370000E949910809365019091C10192FF0EC057
:1023800090FF0CC01F928F9388E594E09F938F93EA
:102390000E9417070F900F900F900F90809165018A
:1023A0000F900F900F900F900F90DF91CF911F9192
:1023B0000F91FF90EF90DF90CF90BF90AF909F90E4
:1023C0008F907F906F905F900C94221D0F900F90D4
:1023D0000F900F900F90DF91CF911F910F91FF9071
:1023E000EF90DF90CF90BF90AF909F908F907F90B5
:1023F0006F905F9008950C94E508CF93DF93CDB76D
:10240000DEB72B970FB6F894DEBF0FBECDBF4F835C
:10241000588769877A878B878A859B85892B31F0D6
:102420005F3F11F080E003C04F3FE1F781E0811191
:1024300007C04F81588569857A858B850E94111D5B
:10244000DE01119686E0FD0111928A95E9F785E09B
:10245000FE01379601900D928A95E1F749815A81E4
:102460006B817C818D819E810E945A192B960FB6BB
:10247000F894DEBF0FBECDBFDF91CF910895CF930B
:10248000C82F882309F4CCC0823859F40E949910CF
:1024900081FDC6C089E30E94D71B0E94B91C89E355
:1024A0000CC0833879F40E94991080FDB9C083E58F
:1024B0000E94D71B0E94B91C83E50E94281CCF9163
:1024C0000C94B91C843859F40E94991082FDA8C05C
:1024D00087E40E94D71B0E94B91C87E4EECF8CEFE3
:1024E0008C0F813A48F48C2F0E94AC27811198C040
:1024F0008C2F0E94D71BE3CF80E28C0F883048F4EA
:10250000C77081E001C0880FCA95EAF70E947D1C60
:10251000D6CF8BE58C0F833078F4C53A29F0C63AD4
:1025200031F482E890E005C081E890E002C083E8E1
:1025300090E0CF910C94F51088E58C0F853108F070
:102540006FC0C83A61F1C93A69F1CA3A71F1CB3A40
:1025500079F1CC3A81F1CD3A89F1CE3A91F1CF3A85
:1025600099F1C13BA1F1C03BA9F1C23BB1F1C33B21
:10257000B9F1C43BC1F1C53BC9F1C63BD1F1C73B81
:10258000D9F1C83BE1F1C93BE9F1CA3BF1F1CB3BE1
:10259000F9F1CC3B09F03FC08AE292E03EC082EE06
:1025A00090E03BC089EE90E038C08AEE90E035C004
:1025B00085EB90E032C086EB90E02FC083EB90E09B
:1025C0002CC084EB90E029C087EB90E026C08CEC17
:1025D00090E023C08DEC90E020C083E891E01DC026
:1025E0008AE891E01AC082E991E017C084E991E09D
:1025F00014C081E292E011C083E292E00EC084E256
:1026000092E00BC085E292E008C086E292E005C04D
:1026100087E292E002C080E090E0CF910C940B1131
:10262000CF910895882309F44BC0823859F40E9451
:10263000991081FF45C089E30E94D71B0E94B91CF5
:1026400089E30CC0833871F40E94991080FF38C070
:1026500083E50E94D71B0E94B91C83E50E94281CB9
:102660000C94B91C843859F40E94991082FF28C038
:1026700087E40E94D71B0E94B91C87E4EFCF9CEF30
:10268000980F913A58F390E2980F983050F4877071
:1026900091E001C0990F8A95EAF7892F0E94831C67
:1026A000DFCF9BE5980F933020F480E090E00C940E
:1026B000F510885A853120F480E090E00C940B11DD
:1026C0000895882321F00E947D1C0C94B91C089564
:1026D000882321F00E94831C0C94B91C0895CF928A
:1026E000DF92EF92FF920F931F93CF93DF93CDB7BB
:1026F000DEB728970FB6F894DEBF0FBECDBF8C01B2
:1027000085E0F801DE01119601900D928A95E1F7BE
:10271000F80140813181F280258122952F708381DB
:102720009481892B31F03F3F31F481E04F3F19F420
:1027300003C081E001C080E080FDCFC249833A83BD
:1027400089819A812F830E94951B9E8388870E948E
:10275000941B0E94BC1A4E81E42FE295EF70F0E0CA
:10276000E05AFF4F2F8168850C94402A842F807F88
:10277000142F1F70882311F01295107FFF2059F03D
:10278000112309F45FC2812F68870E94901C0E9468
:10279000B91C688557C2862F0E941213112309F4B1
:1027A0009CC2812F0E94961C28960FB6F894DEBF1B
:1027B0000FBECDBFDF91CF911F910F91FF90EF9092
:1027C000DF90CF900C94B91C842F807F942F9F7042
:1027D000E92E803219F0E29480EFE822662319F0A6
:1027E000613001F129C0FF20A9F08E2D222349F18B
:1027F000213039F528960FB6F894DEBF0FBECDBF55
:10280000DF91CF911F910F91FF90EF90DF90CF90CC
:102810000C94A01C222319F0213009F45EC20E94FE
:10282000A31C2CC0FF20E9F0263008F056C20E94FD
:102830007A1C8E2129F022C0FF20F1F0211115C051
:102840008E2D28960FB6F894DEBF0FBECDBFDF9158
:10285000CF911F910F91FF90EF90DF90CF900C944C
:102860006113253008F039C209C0F801858180FF65
:10287000E9C18F708583E4CF2111F8C18E2D66C127
:10288000242F26952695237030E02115310521F05F
:1028900021303105C9F021C2FF2021F0862F942F6D
:1028A000937002C080E090E028960FB6F894DEBFE7
:1028B0000FBECDBFDF91CF911F910F91FF90EF9091
:1028C000DF90CF900C94F510FF2021F0862F942FED
:1028D000937002C080E090E028960FB6F894DEBFB7
:1028E0000FBECDBFDF91CF911F910F91FF90EF9061
:1028F000DF90CF900C940B11862FFF2019F00E94CF
:10290000BB2102C00E94232228960FB6F894DEBF96
:102910000FBECDBFDF91CF911F910F91FF90EF9030
:10292000DF90CF900C94A822842F837009F076C09A
:10293000F110D3C1262F229526952770220F220F42
:10294000862F8F70C82ED12CE12CF12C022E04C0C2
:10295000CC0CDD1CEE1CFF1C0A94D2F764FF10C0E7
:102960006FE070E080E090E004C0660F771F881F82
:10297000991F2A95D2F7609570958095909503C020
:1029800060E070E0CB01242F269526952370422F1E
:1029900050E042305105D1F04330510559F16C29D6
:1029A0007D298E299F294130510541F128960FB686
:1029B000F894DEBF0FBECDBFDF91CF911F910F9175
:1029C000FF90EF90DF90CF900C94D11A6C297D2965
:1029D0008E299F2928960FB6F894DEBF0FBECDBF73
:1029E000DF91CF911F910F91FF90EF90DF90CF90EB
:1029F0000C94E31A0E94D11AC701B60128960FB6AB
:102A0000F894DEBF0FBECDBFDF91CF911F910F9124
:102A1000FF90EF90DF90CF900C94BF1AFF2019F039
:102A2000842F817001C08695882309F456C1262F12
:102A3000229526952770220F220F862F8F70C82E81
:102A4000D12CE12CF12C022E04C0CC0CDD1CEE1C90
:102A5000FF1C0A94D2F764FF10C06FE070E080E0C2
:102A600090E004C0660F771F881F991F2A95D2F740
:102A7000609570958095909503C060E070E0CB0103
:102A8000242F269526952370422F50E04230510581
:102A9000D1F04330510559F16C297D298E299F29A8
:102AA0004130510541F128960FB6F894DEBF0FBEB4
:102AB000CDBFDF91CF911F910F91FF90EF90DF90ED
:102AC000CF900C94701B6C297D298E299F29289604
:102AD0000FB6F894DEBF0FBECDBFDF91CF911F912F
:102AE0000F91FF90EF90DF90CF900C94821B0E948B
:102AF000701BC701B60128960FB6F894DEBF0FBE53
:102B0000CDBFDF91CF911F910F91FF90EF90DF909C
:102B1000CF900C945E1B603F49F118F4603E48F47E
:102B20008CC0623F09F451C0E0F1633F09F461C019
:102B300084C0162F1F70842F8F71FF2021F00E94F8
:102B4000091B812F7ECE0E94241B812F28960FB651
:102B5000F894DEBF0FBECDBFDF91CF911F910F91D3
:102B6000FF90EF90DF90CF900C946813FF20A9F0B6
:102B7000253008F0B2C0842F8F7128960FB6F894D4
:102B8000DEBF0FBECDBFDF91CF911F910F91FF90A0
:102B9000EF90DF90CF900C94431B263008F09DC03F
:102BA000EACFFF20A1F0842F8F7128960FB6F894FA
:102BB000DEBF0FBECDBFDF91CF911F910F91FF9070
:102BC000EF90DF90CF900C94091BFF2061F3842FCE
:102BD0008F7128960FB6F894DEBF0FBECDBFDF9180
:102BE000CF911F910F91FF90EF90DF90CF900C94B9
:102BF000241BFF2091F0842F8F7128960FB6F89434
:102C0000DEBF0FBECDBFDF91CF911F910F91FF901F
:102C1000EF90DF90CF900C94FA1A28960FB6F894A4
:102C2000DEBF0FBECDBFDF91CF911F910F91FF90FF
:102C3000EF90DF90CF900C94F51AFF20A1F02223A3
:102C400009F4B1CF862F28960FB6F894DEBF0FBED9
:102C5000CDBFDF91CF911F910F91FF90EF90DF904B
:102C6000CF900C943F12222309F4B1CF862F2896DF
:102C70000FB6F894DEBF0FBECDBFDF91CF911F918D
:102C80000F91FF90EF90DF90CF900C9412134F7044
:102C9000C8010E94501F28960FB6F894DEBF0FBEE1
:102CA000CDBFDF91CF911F910F91FF90EF90DF90FB
:102CB000CF900C94071A4F70C80128960FB6F8945D
:102CC000DEBF0FBECDBFDF91CF911F910F91FF905F
:102CD000EF90DF90CF900C94531F28960FB6F89486
:102CE000DEBF0FBECDBFDF91CF911F910F91FF903F
:102CF000EF90DF90CF9008950E949D1C0E946C1C65
:102D00000E94B91C0E94D6230E94A82280E090E075
:102D10000E94F51080E090E00C940B110E948D1C35
:102D20000C947C160E94951B292F22952F7030E061
:102D30002C3031054CF42A3031056CF42250310925
:102D40002230310590F407C02C30310551F02F307E
:102D5000310539F00AC0803E10F0803F31F481E047
:102D6000089593FB882780F9089580E00895CF9314
:102D7000DF9300D000D01F92CDB7DEB70F900F9039
:102D80000F900F900F90DF91CF910895CF93DF9325
:102D900000D000D000D0CDB7DEB726960FB6F8949D
:102DA000DEBF0FBECDBFDF91CF9108951F93CF93AC
:102DB000DF93C0916E0116E080916F01C81799F002
:102DC000D0E01C9FF0011D9FF00D1124E059FE4F33
:102DD0004081518162817381848195810E94C616F0
:102DE0002196C770E9CFDF91CF911F91089540914F
:102DF000A0015091A1016091A2017091A301809165
:102E0000A4019091A5010C94C616CF938091A501C1
:102E100082958F7009F05FC08091A201882309F428
:102E20005AC020916E01A0916F016091A001709134
:102E3000A1018091A3019091A40131E06F3F09F0BD
:102E400030E0B32FC6E02A1709F445C0009721F0FF
:102E50007F3F21F44B2F03C041E001C040E030E050
:102E600040FD35C0C29FF001C39FF00D1124E05911
:102E7000FE4F418174132BC04081641328C04281EE
:102E8000411125C0438154814817590710F441501E
:102E90005109481B590B483C5105C8F48091A501C4
:102EA0008F7080618093A50186E0829FF001839FEF
:102EB000F00D1124EB58FE4F80818F70806180836C
:102EC00080EA91E00E946F13CF910C94D6162F5F89
:102ED0003F4F2770B8CFCF910895CF92DF92EF92F6
:102EE000FF920F931F93CF93DF93CDB7DEB7629717
:102EF0000FB6F894DEBF0FBECDBF8C0185E0F801A0
:102F0000DE011D9601900D928A95E1F7D8014C9152
:102F100011965C91119712966C9112971396ED9001
:102F2000FC9014977091A001E091A1012091A30160
:102F30003091A4012115310531F0EF3F31F481E0EA
:102F40007F3F19F403C081E001C080E0B82FB17069
:102F5000CB2E80FD6CC1D090A201DD2009F4F5C01C
:102F6000F091A501E216F30638F0C701821B930B1E
:102F7000883C910548F09BC0209530952E0D3F1D53
:102F8000283C310508F093C08F2F807F09F052C094
:102F9000E51314C0741312C0D62E61110FC0FF7058
:102FA000F061F093A5010E94F71680EA91E00E947B
:102FB0006F138091A501F80185836CC1EF2831F072
:102FC0005F3F31F481E04F3F19F403C081E001C05D
:102FD00080E080FD03C081E0862701C080E0F82FFB
:102FE000F170FF2E80FF1CC080916E0120916F0157
:102FF00036E0821709F428C190E0389FF001399F2C
:10300000F00D1124E059FE4F7181571306C07081F5
:10301000471303C07281671303C001968770E9CF1D
:10302000D62E662309F436C18091A5018160809374
:10303000A50153C0E51308C0741306C0611104C094
:10304000D8011596FC93AEC04D875E878D859E8511
:103050006A8B0E9492166A89882329F1D62E6623EC
:1030600011F12091A501822F82958F7090E0029737
:103070000CF460C08091A0019091A10198878F838A
:103080001986FB86EA862C87CE01079651C0E51784
:1030900031F14D875E878D859E856A8B0E949216E1
:1030A0006A8981112EC0C8010E946F13A4C08F2F9E
:1030B000807F69F77E2DF98AE88A89890E94B71690
:1030C00080EA91E00E946F13E0EAF1E086E0DF0120
:1030D0001D928A95E9F70E94F716D12CDBC0741374
:1030E000D8CF6111D6CFD8011596FC93C8010E94A4
:1030F0006F13E0EAF1E086E0DF011D928A95E9F7BF
:10310000C9C0D62E662379F22091A501822F82951F
:103110008F7090E0029774F08091A0019091A101CE
:103120009A8389831B82FD82EC822E83CE010196D5
:103130000E946F1386E0F801A0EAB1E001900D92C1
:103140008A95E1F70E9405176FC0E216F30628F092
:10315000C701821B930B9C0104C0209530952E0D56
:103160003F1D283C310508F052C0D62E662309F4D5
:103170009ACFE5132CC074132AC08091A50180FD5D
:103180001DC0982F92959F70C9F0D80115968C9309
:1031900015979F3039F09F5F9295907F8F70892BA4
:1031A00015968C93C8010E946F1386E0F801A0EA7F
:1031B000B1E001900D928A95E1F736C086E0F80102
:1031C000A0EAB1E001900D928A95E1F763C04D87C6
:1031D0005E878D859E850E949216882379F086E011
:1031E000F801A0EAB1E001900D928A95E1F70E9402
:1031F00005170E94F716DD24D3944CC08091A501D9
:1032000081608093A501C8010E946F1343C07E2D89
:10321000F98AE88A89890E94B716E0EAF1E086E037
:10322000DF011D928A95E9F70E94F71633C06623E5
:1032300009F439CF4D875E878D859E850E94921651
:10324000882309F430CFCBCF4D875E878D859E854F
:103250000E94951B292F22952F7030E022303105D6
:103260002CF49F7041F0811106C00CC02430310550
:103270002CF49F7049F4805E883020F0C8010E94D1
:103280006F13CF2CDC2C06C0D80115969C91907F33
:1032900091F7F8CF8D2D62960FB6F894DEBF0FBE72
:1032A000CDBFDF91CF911F910F91FF90EF90DF90F5
:1032B000CF9008951F93CF93DF93CDB7DEB72C97B0
:1032C0000FB6F894DEBF0FBECDBF4F835887698716
:1032D0007A878B879C87CE0107960E946D1788237B
:1032E000C1F02F8138858A859B85892B31F03F3F3E
:1032F00011F080E003C02F3FE1F781E0811147C06A
:103300004F81588569857A858B859C850E94C61674
:103310003EC086E0FE013796DE01119601900D92C7
:103320008A95E1F7FF81E8854A855B85411551055E
:1033300031F0EF3F31F481E0FF3F19F403C081E049
:1033400001C080E080FD23C020916F0130E0C90101
:1033500001968770992760916E0170E08617970734
:10336000F1F1F983EA835D834C8396E0929FD0016B
:10337000939FB00D1124A059BE4FFE0131960190CC
:103380000D929A95E1F780936F010E94D61616E090
:1033900080916E0190916F01891779F1189FC0019A
:1033A000112480599E4F0E946D17882331F1E091BE
:1033B0006E011E9FF0011124E059FE4F40815181A2
:1033C00062817381848195810E94C61680916E010D
:1033D00090E001968770992780936E01D9CF0E9463
:1033E0008E1610926F0110926E01E0EAF1E086E015
:1033F000DF011D928A95E9F7CACF2C960FB6F89493
:10340000DEBF0FBECDBFDF91CF911F910895DF9238
:10341000EF92FF920F931F93CF93DF93FC010097DE
:1034200009F48AC0E12CF12CDD24D394EF0121961C
:103430008491853709F461C058F4843708F04EC090
:10344000843008F06AC08130D1F0823071F174C0EC
:10345000883709F45DC050F4863709F455C08737C2
:1034600009F06AC08E2D0E948A1C54C09CE7980FF8
:10347000903708F061C08F770E94121350C08F01FF
:103480000E5F1F4FFE01849190E2980F983050F428
:103490008770FD2D01C0FF0F8A95EAF78F2F0E94DC
:1034A000901C15C00E943F1214C08F010E5F1F4F69
:1034B000FE01849190E2980F983068F48770FD2D9A
:1034C00001C0FF0F8A95EAF78F2F0E94961C0E9479
:1034D000B91CE80124C00E941213FBCF9F012E5F8C
:1034E0003F4FFE01C491CC2369F08FE99FE0019723
:1034F000F1F700C00000C150F6CF9F012E5F3F4F93
:10350000FE01F490E9010BC00E947A1CE82E07C06E
:103510000E948D1C0E94B91C02C00E943F129F2D68
:10352000992341F0EFE9FFE03197F1F700C0000087
:103530009150F6CFFE017ACFDF91CF911F910F917D
:10354000FF90EF90DF9008956093AA017093AB0114
:103550008093AC019093AD010E94201D0C947C16C9
:103560006093A6017093A7018093A8019093A9018D
:103570000E94211D0C947C1608950C94A41A0F939C
:103580001F930091AA011091AB012091AC013091E1
:10359000AD01602B712B822B932B1F910F910C94FB
:1035A000A41A0F931F930091AA011091AB012091CF
:1035B000AC013091AD0160237123822393231F91CD
:1035C0000F910C94A41A0F931F930091AA011091CC
:1035D000AB012091AC013091AD01602771278227AA
:1035E00093271F910F910C94A41A60E070E0CB0117
:1035F0000C94B01A41E050E060E070E004C0440F69
:10360000551F661F771F8A95D2F7CB01BA010C941C
:10361000B01A41E050E060E070E004C0440F551F74
:10362000661F771F8A95D2F78091A6019091A70116
:10363000A091A801B091A901482B592B6A2B7B2B93
:10364000CB01BA010C94B01A41E050E060E070E0A8
:1036500004C0440F551F661F771F8A95D2F7409507
:103660005095609570958091A6019091A701A091C9
:10367000A801B091A901482359236A237B23CB01D8
:10368000BA010C94B01A41E050E060E070E004C070
:10369000440F551F661F771F8A95D2F78091A601A8
:1036A0009091A701A091A801B091A901482759279D
:1036B0006A277B27CB01BA010C94B01A0F931F9392
:1036C0000091A6011091A7012091A8013091A901B4
:1036D000602B712B822B932B1F910F910C94B01A9E
:1036E0000F931F930091A6011091A7012091A801AB
:1036F0003091A90160237123822393231F910F919D
:103700000C94B01A0F931F930091A6011091A7017A
:103710002091A8013091A901602771278227932762
:103720001F910F910C94B01A0895CF92DF92EF92EF
:10373000FF920F931F93CF93DF93EC01C090AA01E8
:10374000D090AB01E090AC01F090AD018091A6016A
:103750009091A701A091A801B091A901C82AD92AE6
:10376000EA2AFB2A0FE110E0B701A601002E04C0EF
:1037700076956795579547950A94D2F740FF07C00D
:10378000BE01802F0E94DD1E8130910539F4015069
:10379000110950F7BE0180E00E94DD1EDF91CF913C
:1037A0001F910F91FF90EF90DF90CF90089590912F
:1037B0000B01992361F190910C01992341F1982F0C
:1037C0009695969596959F3088F4E0910D01F0912D
:1037D0000E01E90FF11D877021E030E001C0220FDA
:1037E0008A95EAF78181822B818308959091C101A6
:1037F00090FF2DC01F928F9381E894E09F938F9349
:103800000E9417070F900F900F900F90089540910E
:103810000D0150910E0120E030E09FEFFA01E20F20
:10382000F31F6281681799F09F3F19F4611101C07D
:10383000922F2F5F3F4F2E30310581F79F3F39F098
:10384000FA01E90FF11D97FDFA9582830895089515
:1038500090910B01992369F190910C01992349F101
:10386000982F9695969596959F3090F4E0910D013E
:10387000F0910E01E90FF11D877021E030E001C0E9
:10388000220F8A95EAF720958181282321830895C4
:103890009091C10190FF1FC01F928F9383E694E027
:1038A0009F938F930E9417070F900F900F900F9088
:1038B000089540910D0150910E0120E030E0FA0191
:1038C000E20FF31F9281981301C012822F5F3F4FC6
:1038D0002E303105A1F7089581E090E0E0910D01CF
:1038E000F0910E01E80FF91F1082019680319105C9
:1038F000A9F708958091C00108959091C001982B77
:103900009093C001089580959091C0019823909361
:10391000C00108958093C00108951092C0010895D8
:103920009091BF01982B9093BF010895809590913D
:10393000BF0198239093BF0108951092BF0108958D
:103940008093AE0108951092AE01089540910D014B
:1039500050910E0120E030E080E0FA01E20FF31F09
:10396000918191118F5F2F5F3F4F2F303105A9F764
:103970000895E0910D01F0910E018091C0018083C6
:10398000E0910D01F0910E0180819091BF01892B92
:1039900080839091AE01992361F0E0910D01F09147
:1039A0000E018081892B80830E94A61C81111092B8
:1039B000AE0180910D0190910E010C94A510909391
:1039C00039018093380108958295982F9C7C9695B3
:1039D0009695837344E0849F90011124922B892F44
:1039E0008A7A86959575990F892B08951F93CF93A1
:1039F000DF931F92CDB7DEB799830E94E41C182F86
:103A00009981892F0E94E41C212F30E0322F222738
:103A1000A901482BCA010F90DF91CF911F91089502
:103A20000895CF93DF9300D000D01F92CDB7DEB7BB
:103A30000F900F900F900F900F90DF91CF910895FE
:103A4000089508950C94FB1108958091D601843057
:103A500009F11092C20120E488E190E00FB6F894D9
:103A6000A895809360000FBE2093600083B7817F8C
:103A7000846083BF83B7816083BF7894889583B760
:103A80008E7F83BF88E10FB6F89480936000109218
:103A900060000FBE089508950895CF930E944B1DB6
:103AA0000E947A070E944C1DC0E08C2F0E9495084E
:103AB000892B29F4CF5FC430C1F780E001C081E0D9
:103AC000CF9108950C948E161F920F920FB60F92FD
:103AD00011248F939F93AF93BF938091C201811163
:103AE00013C08091C3019091C401A091C501B09110
:103AF000C6014196A11DB11D8093C3019093C401DD
:103B0000A093C501B093C601BF91AF919F918F91D2
:103B10000F900FBE0F901F90189582E084BD93E028
:103B200095BD9AEF97BD80936E0008952FB7F894D6
:103B30008091C3019091C401A091C501B091C601CB
:103B40002FBF08952FB7F8946091C3017091C401FD
:103B50008091C5019091C6012FBF0895CF92DF9249
:103B6000EF92FF920F931F932FB7F8944091C301E8
:103B70005091C4016091C5017091C6012FBF6A01C7
:103B80007B01EE24FF248C0120E030E0C016D1063A
:103B9000E206F30610F441505109481B590BCA01C3
:103BA0001F910F91FF90EF90DF90CF9008951F929B
:103BB0000F920FB60F9211248F939F93AF93BF93E1
:103BC0008091C3019091C401A091C501B091C6013B
:103BD0000196A11DB11D8093C3019093C401A093D0
:103BE000C501B093C601BF91AF919F918F910F9086
:103BF0000FBE0F901F9018950E94BD0DF8942FEFE7
:103C000087EA91E6215080409040E1F700C0000033
:103C100087E090EBDC018093E0019093E101A093B9
:103C2000E201B093E3012CE088E190E00FB6F89454
:103C3000A895809360000FBE20936000FFCF8D3B5E
:103C400060F4883A80F5853A28F5843008F58130AB
:103C500009F06BC081E090E00895883E98F4803EC2
:103C6000B8F48F3B09F061C00E948E162FEF80E7F9
:103C700092E0215080409040E1F700C000000E9497
:103C8000FC1D53C0803F08F450C090E0906508953B
:103C900090E00895853A09F44BC0863A09F04BC08C
:103CA00082E890E40895883A09F448C0893A09F412
:103CB00048C08A3A09F448C08B3A09F448C08C3AA3
:103CC00009F448C08D3A09F448C08E3A09F448C056
:103CD0008F3A09F448C0813B09F448C0803B09F49D
:103CE00048C0823B09F448C0833B09F448C0843B88
:103CF00009F448C0853B09F448C0863B09F448C034
:103D0000873B09F448C0883B09F448C0893B09F463
:103D100048C08A3B09F448C08B3B09F448C08C3B3F
:103D200009F048C08AE296E4089580E090E00895A2
:103D300081E890E4089583E890E4089582EE94E4A5
:103D4000089589EE94E408958AEE94E4089585EB4D
:103D500094E4089586EB94E4089583EB94E4089545
:103D600084EB94E4089587EB94E408958CEC94E458
:103D700008958DEC94E4089583E895E408958AE825
:103D800095E4089582E995E4089584E995E4089519
:103D900081E296E4089583E296E4089584E296E44D
:103DA000089585E296E4089586E296E4089587E210
:103DB00096E4089580E094E408950E942007803EF0
:103DC000A8F4803C00F5813309F45CC038F48932F2
:103DD00009F452C08A3209F45BC05FC08933B1F084
:103DE0008238A1F0853309F441C057C0833E41F1C8
:103DF00028F4803E99F0823EB9F04FC0863E31F102
:103E0000873E71F14AC00E942F0708959091DF010B
:103E100090FD02C091FF41C080EE3FC08091DF0164
:103E200080FFFACF89E339C08091DF0182FF0CC0A7
:103E30008091DF0184FF02C080E02FC083EE2DC09F
:103E40008091DF0182FFF4CF82EE27C08091DF01F5
:103E500083FF0AC08091DF0184FDEECF87EE1DC095
:103E60008091DF0183FFF6CF86EE17C08091DF01DE
:103E700085FF06C089E211C08091DF0185FFFACF7E
:103E800085E30BC08091DF0186FF06C08AE205C092
:103E90008091DF0186FFFACF81E30E941F1E089503
:103EA00080E090E008950895BF92CF92DF92EF9264
:103EB000FF920F931F93CF93DF938C01B12CEE24CD
:103EC000E394F12C8B2D0E9495086C01C0E0D0E0AA
:103ED00097010C2E02C0220F331F0A94E2F72C2107
:103EE0003D21232BB1F06C2F7B2D80E00E94DD1E45
:103EF0009C018017910759F0832F807E932F907C2F
:103F000011F0803A31F430E02017310711F481E0EC
:103F100009C02196CC30D105D9F6B39484E0B8120B
:103F2000D1CF80E0DF91CF911F910F91FF90EF9063
:103F3000DF90CF90BF900895CF93DF93EC018CE298
:103F400090E00E94541F882329F0CE01DF91CF9189
:103F50000C94541F80E0DF91CF910895CF930E947D
:103F60001421811102C00E94FA2086EA94E00E9486
:103F70007E06C5E6C15049F00E947A078FE39CE9AE
:103F80000197F1F700C00000F5CF8FE994E00E949F
:103F90007E0689E290E00E949C1F811129C18AE27D
:103FA00090E00E949C1F81110E94FA2085E090E021
:103FB0000E949C1F81110E94FC1D0E94241D0E94D2
:103FC0001F218093C10187E090E00E949C1F8823FD
:103FD000B1F18BE190E00E949C1F882351F09091F9
:103FE000C10191FB882780F921E0822780FB91F9AC
:103FF00024C08EE090E00E949C1F882351F0909195
:10400000C10192FB882780F921E0822780FB92F989
:1040100014C080E190E00E949C1F9091C101882310
:1040200041F093FB882780F921E0822780FB93F9F8
:1040300004C0892F809580FB90F99093C1018091F5
:10404000C1010E9423210E9431218093DF0180EE73
:1040500090E00E949C1F882341F08091DF01982FFF
:10406000909590FB80F98093DF0189E390E00E94B6
:104070009C1F882359F09091DF0191FB882780F9DC
:1040800021E0822780FB91F99093DF0182EE90E09E
:104090000E949C1F882359F09091DF0192FB882792
:1040A00080F921E0822780FB92F99093DF0186EE70
:1040B00090E00E949C1F882359F09091DF0193FBB0
:1040C000882780F921E0822780FB93F99093DF0114
:1040D00083EE90E00E949C1F882359F09091DF01AD
:1040E00094FB882780F921E0822780FB94F9909344
:1040F000DF0185E390E00E949C1F882359F0909196
:10410000DF0195FB882780F921E0822780FB95F964
:104110009093DF0181E390E00E949C1F882359F077
:104120009091DF0196FB882780F921E0822780FBB0
:1041300096F99093DF0181E190E00E949C1F882313
:1041400059F09091DF0197FB882780F921E08227C1
:1041500080FB97F99093DF018091DF010E94352168
:104160008091DF0187FB882780F980930C0187E22B
:1041700090E00E949C1FC82F8EE190E00E949C1F3F
:104180008111C2608FE190E00E949C1F8111C46088
:1041900080E290E00E949C1F8111C86081E290E063
:1041A0000E949C1F8111C06182E290E00E949C1FCE
:1041B0008111C06283E290E00E949C1F8111C06463
:1041C00084E290E00E949C1F882311F0C06802C026
:1041D000CC2329F08C2F0E942C216C2F03C00E942D
:1041E0002821682F70E080E090E0CF910C94BD1AF8
:1041F000CF9108956DEE7EEF80E090E00E94762AE8
:1042000060E082E090E00E94682A60E083E090E055
:104210000E94682A60E084E090E00E94682A60E0E2
:1042200085E090E00C94682A80E090E00E94622A89
:1042300021E08D3E9E4F09F020E0822F089582E01C
:1042400090E00C945A2A682F82E090E00C94682A3F
:1042500083E090E00C945A2A682F83E090E00C945D
:10426000682A84E090E00C945A2A682F84E090E059
:104270000C94682A8091C90180FF0BC060911201E3
:1042800085E0689FB00111247595679575956795D0
:104290002AC081FF09C06091120185E0689FB001CA
:1042A0001124759567951FC082FF07C060911201A8
:1042B00085E0689FB001112416C04091CA014423D3
:1042C000C9F060911101461788F72091120185E02D
:1042D000289F90011124429FC001439F900D1124FB
:1042E00070E00E942C2A6038710540F46115710558
:1042F00039F002C065E070E0862F08958FE70895D9
:1043000081E008958091C90180FF08C0609110018B
:1043100070E0759567957595679521C081FF06C01A
:104320006091100170E07595679519C082FF04C017
:104330006091100170E010C08091CA018823C1F023
:1043400060910F018617A0F790911001989FC0010E
:10435000112470E00E942C2A6038710528F4611540
:10436000710521F0862F08958FE7089581E0089563
:1043700061E070E0F4CF803F21F40E943A21819502
:1043800004C0813F29F40E943A218093CD01089511
:10439000823F21F40E943A21819504C0833F29F491
:1043A0000E943A218093CC010895893F19F40E941C
:1043B000822105C08A3F31F40E9482218195809339
:1043C000CE0108958B3F21F40E948221819504C083
:1043D0008C3F29F40E9482218093CF010895843F6D
:1043E00021F48091CB01816017C0853F21F4809139
:1043F000CB01826011C0863F21F48091CB018460A3
:104400000BC0873F21F48091CB01886005C0883FB5
:1044100031F48091CB0180618093CB0108958D3F71
:1044200021F48091C90181600BC08E3F21F48091FD
:10443000C901826005C08F3F29F48091C901846061
:104440008093C9010895803F39F48091CD0187FFA1
:104450006CC01092CD0169C0813F29F48091CD01DB
:104460001816BCF362C09091CC01823F29F497FFEB
:104470005CC01092CC0159C0833F19F41916CCF3DB
:1044800054C0893F41F48091CE0118160CF04DC004
:104490001092CE014AC08A3F29F48091CE0187FF55
:1044A00044C0F6CF8B3F39F48091CF0187FF3DC0E8
:1044B0001092CF013AC08C3F29F48091CF01181699
:1044C000BCF333C0843F21F48091CB018E7F17C0B1
:1044D000853F21F48091CB018D7F11C0863F21F46F
:1044E0008091CB018B7F0BC0873F21F48091CB0162
:1044F000877F05C0883F31F48091CB018F7E809308
:10450000CB0113C08D3F21F48091C9018E7F0BC078
:104510008E3F21F48091C9018D7F05C08F3F29F422
:104520008091C9018B7F8093C9018091CC01811159
:104530000EC08091CD0181110AC08091CE01811100
:1045400006C08091CF01811102C01092CA01089566
:104550008091C10183FF7EC082EE94E00E947E06BE
:104560008091CB011F928F938DED94E09F938F9359
:104570000E9417078BED94E00E947E062091CC01EB
:10458000822F992787FD90959F932F9388ED94E034
:104590009F938F930E94170786ED94E00E947E06FA
:1045A0002091CD01822F992787FD90959F932F937E
:1045B00083ED94E09F938F930E94170781ED94E021
:1045C0000E947E062091CE01822F992787FD90952B
:1045D0009F932F938EEC94E09F938F930E941707E5
:1045E0008CEC94E00E947E062091CF01822F9927C7
:1045F00087FD90959F932F9389EC94E09F938F93E1
:104600000E94170786EC94E00E947E068091CA0102
:104610001F928F9383EC94E09F938F930E941707D0
:1046200081EC94E00E947E068091C9011F928F93D5
:104630008EEB94E09F938F930E9417078BEB94E08F
:104640000E947E068DB79EB74C960FB6F8949EBF1B
:104650000FBE8DBF8BEC91E00E94EA100E94961D68
:104660009093C8018093C70108951F93CF93DF9360
:104670008091C7019091C8010E94AE1D4091CA016E
:10468000442321F02091130130E006C02091140151
:104690005AE0259F900111248217930708F482C0E5
:1046A0008091CC011091CD01D091CE01C091CF016C
:1046B000811107C0111105C0D11103C0CC2309F429
:1046C00071C04F3F19F04F5F4093CA01181624F490
:1046D0000E943A218093CC018091CC0187FF05C0D4
:1046E0000E943A2181958093CC01111624F40E94F6
:1046F0003A218093CD018091CD0187FF05C00E94B2
:104700003A2181958093CD016091CC01662339F1E6
:104710001091CD01112319F1772767FD7095872F2F
:10472000972F0E94312923E333E343E35FE30E94A1
:1047300095290E94FE286093CC01612F772767FDA1
:104740007095872F972F0E94312923E333E343E3AA
:104750005FE30E9495290E94FE286093CD011D16FB
:1047600024F40E9482218093CE018091CE0187FFA4
:1047700005C00E94822181958093CE011C1624F4ED
:104780000E9482218093CF018091CF0187FF05C0D5
:104790000E94822181958093CF01DF91CF911F915B
:1047A0000C94A822DF91CF911F910895EBECF1E0DA
:1047B00085E0DF011D928A95E9F71092CA011092F7
:1047C000C901089585E097E00E947E061F9281E06E
:1047D0008F931F9285E08F9387EB96E09F938F9343
:1047E0000E9417070F900F900F900F900F900F904F
:1047F00008958330E9F128F4813061F0823009F1C5
:104800000895853009F462C008F449C0863009F47F
:1048100074C0089520911401862F90E0820F911D9D
:104820008F3F910520F4620F6093140103C08FEF56
:1048300080931401809114011F928F9380EF95E073
:1048400072C020911301862F90E0820F911D8F3F3F
:10485000910520F4620F6093130103C08FEF8093E2
:104860001301809113011F928F938EED95E05BC031
:1048700020911201862F90E0820F911D8F3F9105AC
:1048800020F4620F6093120103C08FEF8093120136
:10489000809112011F928F938BEC95E044C0209180
:1048A0001101862F90E0820F911D8F3F910520F41A
:1048B000620F6093110103C08FEF8093110180910B
:1048C00011011F928F9386EB95E02DC0209110016E
:1048D000862F90E0820F911D8F3F910520F4620F8B
:1048E0006093100103C08FEF80931001809110013D
:1048F0001F928F938DE995E016C020910F01862FAE
:1049000090E0820F911D8F3F910520F4620F60931C
:104910000F0103C08FEF80930F0180910F011F9251
:104920008F9382E895E09F938F930E9417070F90D3
:104930000F900F900F900895833081F128F481300B
:1049400059F08230D1F00895853009F449C0B8F1AA
:10495000863009F456C0089580911401681720F438
:10496000861B8093140102C01092140180911401DF
:104970001F928F9383E795E054C0809113016817CD
:1049800020F4861B8093130102C0109213018091C2
:1049900013011F928F9381E695E043C0809112012D
:1049A000681720F4861B8093120102C01092120136
:1049B000809112011F928F938EE495E032C0809116
:1049C0001101681720F4861B8093110102C0109218
:1049D0001101809111011F928F9389E395E021C00D
:1049E00080911001681720F4861B8093100102C08B
:1049F00010921001809110011F928F9380E295E038
:104A000010C080910F01681720F4861B80930F015E
:104A100002C010920F0180910F011F928F9385E0C9
:104A200095E09F938F930E9417070F900F900F9020
:104A30000F900895CF93C82F1F928F932AE038E0EC
:104A40003F932F930E94170761E070E080E090E0B1
:104A500004C0660F771F881F991FCA95D2F70E945E
:104A6000BD1A0F900F900F900F90CF910C948E164F
:104A7000CF938B3109F4CBC108F049C08E3009F4D3
:104A8000D9C100F5873009F4A9C1A8F4863009F02E
:104A900057C28091C101817F8E7F8093C1018FE0D9
:104AA00098E00E947E0689E49CE00E947E0681E0F8
:104AB0008093D10191C1883009F45BC08B3009F437
:104AC00087C13EC2813109F423C220F4803109F448
:104AD000C4C136C2863109F4DAC1893109F030C265
:104AE0008DEB9BE00E947E0681E99BE00E947E06A2
:104AF00081E59BE00E947E0684E29BE00E947E06A8
:104B00008FED9AE00E947E0681EB9AE063C18533C7
:104B100009F410C268F4873209F40CC228F48E310B
:104B200008F40EC28D5109C2893209F403C208C2C9
:104B3000833438F48A3308F0FFC1883309F448C15C
:104B4000FFC1833409F4F6C1883409F0F9C10E9429
:104B50008E1688E39CE00E947E069FEF23ED80E3A3
:104B6000915020408040E1F700C000000E94FC1DF1
:104B700033C18DE49CE00E947E068EE09AE00E94A4
:104B80007E060E9428211F928F938BE09AE09F93CC
:104B90008F930E94170789E09AE00E947E060E9488
:104BA0001F21C82F86EF99E00E947E061F92CF93A7
:104BB00021EF39E03F932F930E9417078FEE99E082
:104BC0000E947E0685EE99E00E947E068C2F817001
:104BD0001F928F9322EE39E03F932F930E94170785
:104BE00080EE99E00E947E0686ED99E00E947E06A6
:104BF000C1FB882780F91F928F9323ED39E03F9303
:104C00002F930E94170781ED99E00E947E0685ECA4
:104C100099E00E947E06C2FB882780F91F928F933D
:104C200022EC39E03F932F930E94170780EC99E024
:104C30000E947E0687EB99E00E947E06C3FBCC278C
:104C4000C0F91F92CF9384EB99E09F938F930E94BA
:104C5000170782EB99E00E947E060E943121C82F3F
:104C60008EE999E00E947E061F92CF9329E939E0F0
:104C70003F932F930E94170787E999E00E947E06D1
:104C80008EE799E00E947E068C2F81701F928F9391
:104C90002BE739E03F932F930E9417078DB79EB7FC
:104CA00080960FB6F8949EBF0FBE8DBF89E799E03E
:104CB0000E947E0682E699E00E947E06C1FB88275C
:104CC00080F91F928F932FE539E03F932F930E9435
:104CD00017078DE599E00E947E068BE499E00E941B
:104CE0007E06C2FB882780F91F928F9328E439E063
:104CF0003F932F930E94170786E499E00E947E0657
:104D000084E399E00E947E06C3FB882780F91F9206
:104D10008F9321E339E03F932F930E9417078FE28F
:104D200099E00E947E0685E299E00E947E06C4FB1F
:104D3000882780F91F928F9322E239E03F932F93C7
:104D40000E94170780E299E00E947E068EE099E0BB
:104D50000E947E06C5FB882780F91F928F932BE067
:104D600039E03F932F930E94170789E099E00E9452
:104D70007E068DEE98E00E947E06C6FB882780F9AD
:104D80001F928F932AEE38E03F932F930E941707CC
:104D900088EE98E00E947E0680EE98E00E947E06F3
:104DA000C7FBCC27C0F91F92CF938DED98E09F935E
:104DB0008F930E9417078BED98E00E947E068DB7B7
:104DC0009EB74C960FB6F8949EBF0FBE8DBF04C021
:104DD00086E398E00E947E06C1E0B7C08091C101E1
:104DE000C82FC17080FF09C08BE29CE00E947E0644
:104DF0008091C101817F8E7F44C08FE19CE00E9441
:104E00007E068091C10181608093C101E5CF8091D0
:104E1000C10181FBCC27C0F991E0C927C0FB81F912
:104E20008093C101CC2319F082E19CE025C084E08D
:104E30009CE0D0CF8091C10182FBCC27C0F991E0EA
:104E4000C927C0FB82F98093C101CC2319F085EFFB
:104E50009BE012C085EE9BE0BDCF8091C10183FB3A
:104E6000CC27C0F991E0C927C0FB83F98093C10129
:104E7000CC2351F089ED9BE00E947E068091C10118
:104E800081608093C10161C08CEC9BE0A3CF83EA79
:104E90009AE00E947E060E9499101F928F9389E8E3
:104EA0009AE09F938F930E94170780910B011F92A6
:104EB0008F9382E79AE09F938F930E9417078091C8
:104EC0005E011F928F938FE59AE09F938F930E94CC
:104ED000170780910C011F928F938CE49AE09F93A7
:104EE0008F930E9417070E94A21D9F938F937F9319
:104EF0006F9385E39AE09F938F930E9417078DB776
:104F00009EB746960FB6F8949EBF0FBE8DBF64CF76
:104F10000E948E16C0910C0181E0C827C0930C013D
:104F2000CC2329F08BE29AE00E947E060EC080E23C
:104F30009AE050CF80E001C089530E941A254CCFDF
:104F40008EE19AE00E947E06C0E08C2FCF910895FA
:104F500080E0089580E00895CF93C82F8091D1011B
:104F6000813071F020F0823009F448C03FC1A09137
:104F70000D01B0910E018C91823209F039C107C048
:104F8000A0910D01B0910E018C91823249F48C2FC9
:104F90000E94A82781112FC08C2F0E9438252CC079
:104FA0008C2F0E94AA27811126C0C431E1F070F431
:104FB000CB3081F0C031D1F40E94E22382E098E04E
:104FC0000E947E0682E08093D10115C0C93259F05B
:104FD000C83361F48FE098E00E947E0686E098E096
:104FE0000E947E0608C01092D10104C180E098E0C2
:104FF0000E947E06FFC081E08170FEC0C43228F5A9
:10500000CE3108F0C1C0CB30A1F1D0F4C73009F0E7
:10501000D3C08EE18093140182E3809313018AE070
:105020008093120184E18093110188E08093100144
:1050300088E280930F0186EA96E00E947E06BFC058
:10504000C33149F1C431C1F0B7C0CB3409F4A9C0B0
:1050500028F4C93289F0C83361F0AEC0C13509F413
:105060009EC0C23509F499C0CE3409F0A5C06AE0EB
:105070009EC00E94E223A3C08091D001882319F032
:105080001092D0019CC083EB96E00E947E0681E0E6
:105090008093D101B1C08DE896E00E947E068BE737
:1050A00096E00E947E06809114011F928F9388E7FC
:1050B00096E09F938F930E94170786E796E00E94E1
:1050C0007E0684E696E00E947E06809113011F9280
:1050D0008F9381E696E09F938F930E9417078FE549
:1050E00096E00E947E0680E596E00E947E06809112
:1050F00012011F928F938DE496E09F938F930E94ED
:1051000017078BE496E00E947E068AE396E00E94F1
:105110007E06809111011F928F9387E396E09F9303
:105120008F930E94170785E396E00E947E0680E237
:1051300096E00E947E06809110011F928F938DE170
:1051400096E09F938F930E9417078BE196E00E9451
:105150007E0684E096E00E947E0680910F011F92F9
:105160008F9381E096E09F938F930E9417078FEFB4
:1051700095E00E947E068DB79EB748960FB6F894CC
:105180009EBF0FBE8DBF1BC0CE51EC2FF0E0E25D85
:10519000FE4F80818093D00112C061E003C061E0C6
:1051A00006C06AE08091D0010E94F92308C0809176
:1051B000D0010E949C2403C084EA96E013C0809131
:1051C000D001882369F01F928F938EE996E09F9318
:1051D0008F930E9417070F900F900F900F9004C0AD
:1051E0008BE996E00E947E0681E006C01092D10114
:1051F00080E002C080E000CFCF91089504D0689491
:10520000B1118DC0089570D088F09F5790F0B92FDC
:105210009927B751A0F0D1F0660F771F881F991F0B
:105220001AF0BA95C9F712C0B13081F077D0B1E069
:10523000089574C0672F782F8827B85F39F0B93F79
:10524000CCF3869577956795B395D9F73EF490950D
:105250008095709561957F4F8F4F9F4F0895E8948B
:1052600009C097FB3EF490958095709561957F4FAE
:105270008F4F9F4F9923A9F0F92F96E9BB2793955C
:10528000F695879577956795B795F111F8CFFAF46C
:10529000BB0F11F460FF1BC06F5F7F4F8F4F9F4F9D
:1052A00016C0882311F096E911C0772321F09EE8FB
:1052B000872F762F05C0662371F096E8862F70E061
:1052C00060E02AF09A95660F771F881FDAF7880F3B
:1052D0009695879597F9089557FD9058440F551F57
:1052E00059F05F3F71F04795880F97FB991F61F068
:1052F0009F3F79F087950895121613061406551FDF
:10530000F2CF4695F1DF08C0161617061806991F4A
:10531000F1CF86957105610508940895E894BB273F
:1053200066277727CB0197F908950BD078C069D00D
:1053300028F06ED018F0952309F05AC05FC01124F0
:10534000EECFCADFA0F3959FD1F3950F50E0551F24
:10535000629FF001729FBB27F00DB11D639FAA27CA
:10536000F00DB11DAA1F649F6627B00DA11D661F19
:10537000829F2227B00DA11D621F739FB00DA11D3A
:10538000621F839FA00D611D221F749F3327A00DF4
:10539000611D231F849F600D211D822F762F6A2F90
:1053A00011249F5750408AF0E1F088234AF0EE0F15
:1053B000FF1FBB1F661F771F881F91505040A9F722
:1053C0009E3F510570F014C0AACF5F3FECF3983EAA
:1053D000DCF3869577956795B795F795E7959F5F89
:1053E000C1F7FE2B880F911D9695879597F9089523
:1053F00097F99F6780E870E060E008959FEF80EC88
:10540000089500240A94161617061806090608952A
:1054100000240A9412161306140605060895092E90
:105420000394000C11F4882352F0BB0F40F4BF2BFF
:1054300011F460FF04C06F5F7F4F8F4F9F4F08953F
:10544000991B79E004C0991F961708F0961B881FD6
:105450007A95C9F78095089597FB072E16F4009466
:1054600007D077FD09D00E94462A07FC05D03EF4FC
:10547000909581959F4F0895709561957F4F089500
:10548000EE0FFF1F0590F491E02D0994AA1BBB1BA2
:1054900051E107C0AA1FBB1FA617B70710F0A61B34
:1054A000B70B881F991F5A95A9F780959095BC0155
:1054B000CD010895F999FECF92BD81BDF89A992743
:1054C00080B50895A8E1B0E042E050E00C947D2A58
:1054D000262FF999FECF1FBA92BD81BD20BD0FB610
:1054E000F894FA9AF99A0FBE019608950E94682AD4
:1054F000272F0C94692ADC01CB01FC01F999FECF1E
:1055000006C0F2BDE1BDF89A319600B40D9241504B
:0A5510005040B8F70895F894FFCF5B
:10551A0005EC08DD09BA09860953090101AF01281A
:10552A0008140A321E3F4D362039FF03B2037C03AA
:10553A005C0323039602AF02C802E10201030102DF
:08554A0003040506070809002F
:00000001FF
