:100000000C9414060C9458060C9458060C9458063C
:100010000C9458060C9458060C9458060C945806E8
:100020000C9458060C9458060C94200E0C94F20E66
:100030000C944C1D0C9458060C9458060C945806BD
:100040000C9458060C9458060C9458060C945806B8
:100050000C9458060C94BF1D0C9458060C9458062A
:100060000C9458060C9458060C9458060C94580698
:100070000C9458060C9458060C9458060C94580688
:100080000C9458060C9458060C9458060C94580678
:100090000C9458060C9458060C9458060C94580668
:1000A0000C9458060C9458060C945806570F790F68
:1000B0006410790F6410BB0FDE0F6410331046100C
:1000C0009E139E13CC13CC13281464145516551686
:1000D0007C145516731573152F16551655164316A1
:1000E000F1A133A2F1A329212B141A0815171C180A
:1000F0000C12132AC3041607090A0B0D0E0F00C1B8
:10010000E1001D1B0619051110363738C0E200E367
:1001100028002C0000C234E50101010101010101A8
:10012000010101010101010101015051524F000182
:10013000010001010101010101010101C0010001F2
:1001400001000100000101010101010101010101A2
:10015000010101010101010101010101010100C1D0
:100160000100010101010101010101010101000181
:100170000100010000010101011E1F202122232492
:1001800025262701010101010101010101010001F1
:100190000100010101010101010101BF0101000193
:1001A0000100010000C201010A0025303136620061
:1001B0003A200025303258000A722F632030313245
:1001C000333435363738394142434445460A000A0C
:1001D000002530325800626F756E6365213A200049
:1001E0005B735D004B6579626F617264207374614B
:1001F00072742E0A0055534220636F6E66696775EC
:100200007265642E0A005B575D005B535D005B52B4
:100210005D005B445D005B435D0010034D006900C1
:100220006E006F0072006300610000002203500046
:1002300061006E006300200049006E0074006500DC
:1002400072006100630074006900760065000000C0
:100250000403090409028D00050100A0320904000D
:10026000000103010100092111010001223F0007E3
:1002700005810308000A09040100010301020009C5
:100280002111010001224D000705820308000A091F
:1002900004020001030000000921110100012236BF
:1002A000000705830308000A090403000203000095
:1002B000000921110100012220000705840320000C
:1002C00001070504032000010904040001030000E4
:1002D00000092111010001223900070585031000E2
:1002E000011201100100000008EDFE606001000134
:1002F00002000105010906A101050719E029E7151A
:100300000025019508750181020508190129059547
:1003100005750191029501750391010507190029E1
:100320007715002501957875018102C00631FF0916
:1003300074A1010975150025FF9520750881020932
:1003400076150025FF952075089102C005010980EA
:10035000A101850216010026B7001A01002AB70084
:10036000751095018100C0050C0901A101850316D6
:100370000100269C021A01002A9C02751095018139
:1003800000C005010902A1010901A1000509190127
:100390002905150025019505750181029501750353
:1003A00081010501093009311581257F9502750804
:1003B000810609381581257F950175088106050C90
:1003C0000A38021581257F950175088106C0C00590
:1003D000010906A101050719E029E7150025019586
:1003E0000875018102950175088101050819012927
:1003F0000595057501910295017503910105071990
:100400000029FF150025FF950675088100C00A0028
:100410002530325820006B6579626F6172645F72BB
:1004200065706F72743A20004C45443A2025303292
:10043000580A0064656C5F6B65795F6269743A2085
:1004400063616E27742064656C3A20253032580A47
:10045000006164645F6B65795F6269743A2063610F
:100460006E2774206164643A20253032580A006493
:100470006F6E652E0A00626F6F746D61676963202D
:100480007363616E3A202E2E2E2000290A002575F6
:10049000002F002575005D280025640020002564DC
:1004A00000200025640020002564007C00253032F7
:1004B00058006D6F7573656B6579205B62746E7C37
:1004C000782079207620685D287265702F61636CD2
:1004D000293A205B006D6B5F776865656C5F7469B6
:1004E0006D655F746F5F6D6178203D2025640A0043
:1004F0006D6B5F776865656C5F6D61785F73706564
:100500006564203D2025640A006D6B5F74696D652C
:100510005F746F5F6D6178203D2025640A006D6B0C
:100520005F6D61785F7370656564203D2025640AA6
:10053000006D6B5F696E74657276616C203D20257D
:10054000640A006D6B5F64656C6179203D202564F1
:100550000A006D6B5F776865656C5F74696D655FD8
:10056000746F5F6D6178203D2025640A006D6B5FBC
:10057000776865656C5F6D61785F73706565642031
:100580003D2025640A006D6B5F74696D655F746F53
:100590005F6D6178203D2025640A006D6B5F6D61A1
:1005A000785F7370656564203D2025640A006D6B7B
:1005B0005F696E74657276616C203D2025640A0067
:1005C0006D6B5F64656C6179203D2025640A000ACB
:1005D00000257500363A20776865656C5F74696D33
:1005E000655F746F5F6D61783A20000A00257500C1
:1005F000353A20776865656C5F6D61785F7370650B
:1006000065643A20000A00257500343A2074696D4B
:10061000655F746F5F6D61783A20000A0025750090
:10062000333A206D61785F73706565643A20000A23
:1006300000257500323A20696E74657276616C2807
:100640006D73293A20000A00257500313A2064654F
:100650006C6179282A31306D73293A20000A092DFE
:100660002056616C756573202D0A004D3E004D25A6
:10067000643E20003F007365742064656661756C9C
:10068000740A00433E200077686572652064656CDB
:1006900074613A20637572736F723D25642C207704
:1006A0006865656C3D25640A5365652068747470DF
:1006B0003A2F2F656E2E77696B6970656469612EBC
:1006C0006F72672F77696B692F4D6F7573655F6BFD
:1006D0006579730A000A092D204D6F7573656B6586
:1006E00079202D0A4553432F713A09717569740AAF
:1006F000313A0964656C6179282A31306D73290AB1
:10070000323A09696E74657276616C286D73290AD4
:10071000333A096D61785F73706565640A343A092C
:1007200074696D655F746F5F6D61780A353A09773A
:100730006865656C5F6D61785F73706565640A36C6
:100740003A09776865656C5F74696D655F746F5FA2
:100750006D61780A0A703A097072696E7420766168
:100760006C7565730A643A09736574206465666123
:10077000756C74730A75703A092B310A646F776E61
:100780003A092D310A706775703A092B31300A70B9
:1007900067646F776E3A092D31300A0A73706565A8
:1007A00064203D2064656C7461202A206D61785F4F
:1007B0007370656564202A202872657065617420F5
:1007C0002F2074696D655F746F5F6D6178290A0011
:1007D0003F004D3E2000433E20004C25640A000AA5
:1007E000092D20436F6E736F6C65202D0A455343AE
:1007F0002F713A09717569740A6D3A096D6F7573D5
:10080000656B65790A000A092D204D6167696320CF
:100810002D0A643A0964656275670A783A09646565
:10082000627567206D61747269780A6B3A09646554
:10083000627567206B6579626F6172640A6D3A094F
:100840006465627567206D6F7573650A763A09761F
:10085000657273696F6E0A733A09737461747573A4
:100860000A633A09636F6E736F6C65206D6F646520
:100870000A302D343A096C61796572302D3428467E
:1008800031302D4634290A506175733A09626F6F11
:10089000746C6F616465720A653A09656570726FA0
:1008A0006D0A6E3A094E4B524F0A000A0025750038
:1008B0002E6E6B726F3A20000A002575002E73773A
:1008C00061705F6261636B736C6173685F626163C7
:1008D0006B73706163653A20000A002575002E7302
:1008E0007761705F67726176655F6573633A200058
:1008F0000A002575002E6E6F5F6775693A20000A41
:10090000002575002E737761705F72616C745F7281
:100910006775693A20000A002575002E73776170AB
:100920005F6C616C745F6C6775693A20000A002522
:1009300075002E636170736C6F636B5F746F5F63C0
:100940006F6E74726F6C3A20000A002575002E736A
:100950007761705F636F6E74726F6C5F63617073E9
:100960006C6F636B3A20000A0025303258006B65CB
:10097000796D61705F636F6E6669672E7261773A39
:1009800020000A002575002E6D6F7573653A2000F2
:100990000A002575002E6B6579626F6172643A20DA
:1009A000000A002575002E6D61747269783A200086
:1009B0000A002575002E656E61626C653A20000A9A
:1009C00000253032580064656275675F636F6E663C
:1009D00069672E7261773A20000A00257500646508
:1009E0006661756C745F6C617965723A20003F00D6
:1009F0004E4B524F3A206F66660A004E4B524F3AAA
:100A0000206F6E0A0074696D65725F726561643390
:100A10003228293A202530346C580A006B657962F7
:100A20006F6172645F6E6B726F3A2025580A006BBB
:100A30006579626F6172645F69646C653A202558FC
:100A40000A006B6579626F6172645F70726F746FB8
:100A5000636F6C3A2025580A00686F73745F6B658A
:100A600079626F6172645F6C65647328293A20252E
:100A7000580A000A092D20537461747573202D0AD9
:100A8000004743433A20342E382E31204156522D10
:100A90004C4942433A20312E382E3073766E204135
:100AA00056525F415243483A20617672350A004FF0
:100AB0005054494F4E533A204C55464120424F4FD7
:100AC000544D41474943204D4F5553454B455920BF
:100AD00045585452414B455920434F4E534F4C4576
:100AE00020434F4D4D414E44204E4B524F20343009
:100AF00039360A004255494C443A2039626235621F
:100B000066652D6469727479202831313A31323A40
:100B10003031205365702031312032303136290A8E
:100B2000005649443A203078464545442850616E85
:100B30006320496E7465726163746976652920501B
:100B400049443A20307836303630284D696E6F721D
:100B5000636129205645523A203078303030310ACE
:100B600000444553433A20742E6D2E6B2E206B6546
:100B700079626F617264206669726D776172652057
:100B8000666F72204D696E6F7263610A000A092DEB
:100B90002056657273696F6E202D0A000A6D6F759D
:100BA00073653A206F66660A000A6D6F7573653A61
:100BB000206F6E0A000A6B6579626F6172643A2079
:100BC0006F66660A000A6B6579626F6172643A202B
:100BD0006F6E0A000A6D61747269783A206F6666FA
:100BE0000A000A6D61747269783A206F6E0A000A11
:100BF00064656275673A206F6E0A000A6465627503
:100C0000673A206F66660A000A0A626F6F746C6F3B
:100C1000616465722E2E2E2000433E2000656563C0
:100C20006F6E6669673A0A0011241FBECFEFDAE0E3
:100C3000DEBFCDBF04B603FE24C08091E0019091D9
:100C4000E101A091E201B091E3018730904BA74010
:100C5000B04BB9F41092E0011092E1011092E20160
:100C60001092E30114BE84B7877F84BF88E10FB67A
:100C7000F89480936000109260000FBEE0E0F8E30B
:100C8000099511E0A0E0B1E0EAEEF4E502C00590BC
:100C90000D92A833B107D9F721E0A8E3B1E001C074
:100CA0001D92A03EB207E1F70E94540B0C94732AE8
:100CB0000C940000FF93EF93E0913801F09139011B
:100CC000309709F00995EF91FF910895FC01859106
:100CD000803011F0EFDFFBCF0895FF27E0E230E234
:100CE00047FF0CC0419597FF09C0EDE260957095F4
:100CF00080959095611D711D811D911D27FF02C07A
:100D0000219530E350E2AA27660F771F881F991FAD
:100D1000AA1FA41710F0A41B63955A95A9F7AA302F
:100D200008F0A95FA05DAF93F3956115710581058A
:100D3000910541F7ED3211F4EF93F395F21718F4A2
:100D40003F93F395FBCF8F91B5DFFA95E1F70895C7
:100D5000E991F9918591803021F0853219F0AADF6F
:100D6000F9CF089520E0E89455915532C1F35033FE
:100D700011F4689455915A3348F4505390F3220F6C
:100D8000022E220F220F200D250FF4CF0EF42195F5
:100D900089919991533619F3533729F1533559F104
:100DA000BC0188279927E8945C3621F489919991B0
:100DB00068945591543639F446EF7EF077FF0DC0B4
:100DC0008FEF9FEF0AC055374AE039F0583540E1C0
:100DD00021F0523642E009F00895FF93EF937DDF52
:100DE000EF91FF91B7CFFF93EF93FC01819180309A
:100DF000B9F360DFFBCFFF93EF9368DFF1CFDF93B1
:100E0000CF93CDB7DEB72596A3DFCF91DF910895BD
:100E10009CE0799FF001112490E3899FE00DF11D82
:100E20001124E60FF11DE851FF4F84910895E82F3A
:100E3000F0E0EE0FFF1FE05AF04085919491089585
:100E400080B38C7C80BB81B38C7C81BB08950E9475
:100E5000200780B38F7380BB81B3806C81BB84B16A
:100E60008F7084B985B1806785B98AB180778AB976
:100E70008BB18F688BB987B18F7387B988B1806C5C
:100E800088B9109243011092420110923B011092D6
:100E90003A01109245011092440110923D011092C6
:100EA0003C01109247011092460110923F011092AE
:100EB0003E01109249011092480110924101109296
:100EC00040010895BF92CF92DF92EF92FF920F936D
:100ED0001F93CF93DF93CAE3D1E0D12CCC24C394EA
:100EE000A5E0BA2EB1EDEB2EB1E0FB2E82E0D816D4
:100EF00061F093E0D91661F081E0D81619F0809A7C
:100F0000889808C0819A899805C0849A8C9802C0F4
:100F1000859A8D9890EA9A95F1F78FB1829586958A
:100F2000869583708C25082F017010E08FB199276A
:100F300087FD9095809590958827990F881F992710
:100F4000880F991F802B912B1E9B03C020E030E05F
:100F500002C024E030E0822B932B1D9B03C020E0D5
:100F600030E002C028E030E0822B932B1C9B03C0B2
:100F700020E030E002C020E130E0822B932B29B149
:100F8000332727FD3095209530952227330F221FD8
:100F9000332755E0220F331F5A95E1F7822B932B0D
:100FA00026B1332727FD3095209530952227330F22
:100FB000221F332776E0220F331F7A95E1F7822B29
:100FC000932B369B03C060E070E002C060E870E0E5
:100FD000862B972B4B9B03C060E070E002C060E063
:100FE00071E0862B972B4A9B03C040E050E002C083
:100FF00040E052E0842B952B499B03C020E030E079
:1010000002C020E034E0822B932B489B03C020E0F9
:1010100030E002C020E038E0822B932B2881398118
:101020002817390741F1998388838091000188232B
:1010300001F18091C10180FF04C086ED91E00E9422
:1010400066068091C10180FF0CC0809100011F9253
:101050008F93FF92EF920E94FF060F900F900F90D8
:101060000F908091C10180FF04C08FEC91E00E943D
:101070006606B09200010E942007D394229684E075
:10108000D81234CF80910001882361F18150809380
:101090000001882339F08FE99FE00197F1F700C044
:1010A000000020C080913A0190913B019093430150
:1010B0008093420180913C0190913D0190934501C4
:1010C0008093440180913E0190913F0190934701AC
:1010D0008093460180914001909141019093490194
:1010E0008093480181E0DF91CF911F910F91FF9094
:1010F000EF90DF90CF90BF900895E82FF0E0EE0FD3
:10110000FF1FEE5BFE4F808191810895CF92DF92A9
:10111000EF92FF920F931F93CF93DF9388EB91E0B1
:101120000E94660622E4E22E21E0F22EC0E0D0E02A
:1011300033EBC32E31E0D32E0AEA11E0DF93CF93D5
:10114000DF92CF920E94FF0680EB91E00E9466063C
:10115000F701819191917F010E94DE1C9F938F93F3
:101160001F930F930E94FF0688EA91E00E94660693
:1011700021968DB79EB708960FB6F8949EBF0FBE06
:101180008DBFC430D105D1F6DF91CF911F910F9162
:10119000FF90EF90DF90CF90089581FF02C0229AD8
:1011A00001C022982A98089580915D0108959FB703
:1011B000F89410924C019FBF9091D601943009F0A1
:1011C00058C09091E9009F702091EC0020FF02C070
:1011D00020E801C020E0292B94E09093E900909151
:1011E000EB0090FF43C09091EE0097FF3FC09091BD
:1011F0004A01992321F09091E80095FF37C01092A1
:101200004A0196E03091E80035FD15C03091D601D5
:10121000343061F53091EB0035FD28C0915021F458
:1012200081E080934A0122C0EFE9FFE03197F1F7B6
:1012300000C00000E7CF8093F1008091E80085FDB9
:101240000AC08091E80080FFFCCF8091E8008E7793
:101250008093E80006C08FB7F89491E090934C011A
:101260008FBF2F702093E90080E008952F702093A6
:10127000E9008FEF0895CF93DF9300D01F92CDB791
:10128000DEB72091D601243019F523E029839B8312
:101290008A832093E9008FEF9091E800815095FDBB
:1012A00006C095ED9A95F1F700008111F5CF809178
:1012B000E80085FF0DC040E050E063E070E0CE0143
:1012C00001960E94130C8091E8008E778093E800CD
:1012D0000F900F900F90DF91CF910895CF93DF93F0
:1012E00000D01F92CDB7DEB72091D601243021F572
:1012F00022E029839B838A8383E08093E9008FEF38
:101300009091E800815095FD06C095ED9A95F1F712
:1013100000008111F5CF8091E80085FF0DC040E00D
:1013200050E063E070E0CE0101960E94130C8091C2
:10133000E8008E778093E8000F900F900F90DF9178
:10134000CF9108952091D6012430F1F422E020932A
:10135000E9002FEF3091E800215035FD06C035ED52
:101360003A95F1F700002111F5CF2091E80025FF13
:101370000BC040E050E065E070E00E94130C8091EB
:10138000E8008E778093E8000895CF93DF93EC0117
:101390008091D601843009F047C080910B018823E9
:1013A000E1F080910C018823C1F085E08093E90091
:1013B0008FEF9091E800815095FD06C095E19A95D8
:1013C000F1F700008111F5CF8091E80085FF2CC076
:1013D00040E050E060E170E017C081E08093E900F8
:1013E0008FEF9091E800815095FD06C095ED9A959C
:1013F000F1F700008111F5CF8091E80085FF14C05E
:1014000040E050E068E070E0CE010E94130C809153
:10141000E8008E778093E80080E1FE01ADE4B1E062
:1014200001900D928A95E1F7DF91CF91089586E1C1
:1014300092E00E9466068091D501811109C00E9448
:10144000A50D0E94020E8091E20084608093E2006C
:10145000089582E192E00E9466061092D5010895F7
:101460008EE092E00C94660680914B018F5F809332
:101470004B0162E30E94082A911135C010924B0182
:1014800080914C01882379F18091D601843049F50F
:101490008091E9008F709091EC0090FF02C090E87D
:1014A00001C090E0982B84E08093E9008091EB00EC
:1014B00080FF14C08091EE0087FF10C08091E8008B
:1014C00085FF03C01092F100F9CF8091E80080FF02
:1014D00005C08091E8008E778093E8009F7090931C
:1014E000E90010924C01089542E061EC81E00E9415
:1014F0001F0D42E061EC82E00E941F0D42E061ECB2
:1015000083E00E941F0D42E261EC84E00E941F0D07
:1015100042E161EC85E00C941F0D8091D80183308D
:1015200009F455C030F4813071F0823009F48EC076
:1015300008958A3009F47AC08B3009F460C089308C
:1015400009F09CC020C08091D701813A09F096C073
:101550008091E800877F8093E8008091DB01909183
:10156000DC01892B21F060E080E090E003C060E1C5
:101570008DE491E070E00E945C0C8091E8008B7734
:101580008093E80008958091D701813209F076C0F8
:101590008091DB019091DC01009719F0049709F02C
:1015A0006DC08091E800877F8093E8008091E8001B
:1015B00082FD05C08091D6018111F8CF5FC0809176
:1015C000F10080935D018091E8008B7753C080919A
:1015D000D701813A09F052C08091DB019091DC0182
:1015E000892B09F04BC08091E800877F8093E80049
:1015F0008091E80080FFFCCF80910B0136C0809184
:10160000D7018132D9F58091DB019091DC01892BE2
:10161000A9F58091E800877F8093E8000E94540D2F
:101620008091D90180930B010C9476168091D7019B
:10163000813221F58091E800877F8093E8000E9445
:10164000540D8091DA0180935E0108958091D70155
:10165000813AA1F48091E800877F8093E80080912F
:10166000E80080FFFCCF80915E018093F1008091C3
:10167000E8008E778093E8000C94540D0895089547
:10168000089508958AE092E00E9466060C94410B4A
:101690000E940D1D8091D401882329F00E94351DE0
:1016A00081110C94FD0B089584B7877F84BF88E176
:1016B0000FB6F89480936000109260000FBE90E027
:1016C00080E80FB6F89480936100909361000FBE9C
:1016D0000E943F0B0E940A110E94A50D0E94020E5B
:1016E0008091E20084608093E20087ED98E00E94A0
:1016F000C71C78948091D6018430E1F785EF91E0A2
:101700000E9466060E940C1181E091E00E947C100C
:1017100084EE91E00E9466060E94400B8091D60103
:10172000853039F480EE91E00E9466060E94480BF5
:10173000F5CF0E941211F2CF0C944A1D86E092E080
:101740000E9466060C949C0B292F33272330310509
:10175000A9F06CF42130310509F442C02230310582
:1017600009F043C08DE890E024E532E042C0213228
:101770003105C9F02232310519F137C0992781307E
:10178000910541F08230910541F0892B71F5E0E53A
:10179000F2E005C0ECE2F2E002C0EAE1F2E084919E
:1017A00090E09F0126C0653000F5E62FF0E0EE0FD7
:1017B000FF1FEC5DFE4F2081318189E090E019C070
:1017C000653098F4E62FF0E0DF01AA0FBB1FA65E9C
:1017D000BE4F2D913C91EB5EFE4F808190E009C0A1
:1017E00082E190E021EE32E004C080E090E020E071
:1017F00030E0FA0131832083089580E189BD82E1E0
:1018000089BD09B400FEFDCF8091D8008F7D809303
:10181000D8008091E00082608093E0008091E00039
:1018200081FDFCCF0895CF92DF92EF92FF920F934C
:101830001F93CF93DF937C018B01EA010E94750D0A
:10184000811131C0209731F088819981081B190BD3
:10185000E80EF91EC12CD12C0115110519F180914A
:10186000E80085FD14C08091E8008E778093E80041
:10187000209741F0888199818C0D9D1D99838883E3
:1018800085E011C00E94750D882331F30CC0F7016B
:1018900081917F018093F10001501109FFEFCF1A70
:1018A000DF0ADACF80E0DF91CF911F910F91FF9097
:1018B000EF90DF90CF9008952091DD013091DE010F
:1018C0002617370748F06115710539F42091E800B3
:1018D0002E772093E80001C0B901FC0120E06115DA
:1018E0007105B9F18091D601882309F440C0853093
:1018F00009F43FC08091E80083FD3DC08091E8007D
:1019000082FF06C08091E80082FF26C080E0089533
:101910008091E80080FFE3CF2091F3008091F200F6
:1019200090E0922B6115710551F08830910538F4E3
:1019300021912093F100615071090196F3CF21E0CC
:10194000089709F020E08091E8008E778093E80006
:10195000C6CF2111C7CFD6CF8091D601882339F0C9
:10196000853039F08091E80083FFCCCF04C082E05D
:10197000089583E0089581E008952091DD0130917C
:10198000DE012617370748F06115710539F42091FB
:10199000E8002E772093E80001C0B901FC0120E0A7
:1019A00061157105C1F18091D601882309F441C008
:1019B000853009F440C08091E80083FD3EC08091ED
:1019C000E80082FF06C08091E80082FF27C080E027
:1019D00008958091E80080FFE3CF2091F30080918B
:1019E000F20090E0922B6115710559F08830910555
:1019F00040F424912093F1003196615071090196D1
:101A0000F2CF21E0089709F020E08091E8008E777E
:101A10008093E800C5CF2111C6CFD5CF8091D601E4
:101A2000882339F0853039F08091E80083FFCBCFEF
:101A300004C082E0089583E0089581E00895982F1E
:101A4000973058F59093E900981739F07091EC00B1
:101A50002091ED005091F00003C0242F762F50E02C
:101A600021FF19C03091EB003E7F3093EB003091A5
:101A7000ED003D7F3093ED003091EB00316030930D
:101A8000EB007093EC002093ED005093F000209158
:101A9000EE0027FF07C09F5FD3CF8F708093E900D0
:101AA00081E0089580E008958091D70187FD05C009
:101AB0008091E80080FF0EC012C08091E80082FD96
:101AC00005C08091D6018111F8CF08958091E8007A
:101AD0008B7708C08091D6018111EACF089580915B
:101AE000E8008E778093E80008958091E40090915B
:101AF000E50045E62091EC0020FF21C02091E800A0
:101B000020FD21C02091D601222389F0253089F0C3
:101B10002091EB0025FD0FC02091E4003091E500FD
:101B20002817390739F3415041F0C901E3CF82E06A
:101B3000089583E0089581E0089584E00895209158
:101B4000E80022FFDFCF80E008950E94130E0E947C
:101B50001B0EE0EEF0E0808181608083E8EDF0E034
:101B600080818F77808319BCA7EDB0E08C918E7F48
:101B70008C9380818F7E80831092D50108950F937E
:101B80001F93CF93DF930E94130E0E941B0EC8ED8C
:101B9000D0E088818F778883888180688883888176
:101BA0008F7D888319BC1092D6011092D2011092B9
:101BB000D4011092D30100EE10E0F80180818B7FF8
:101BC000808388818160888342E060E080E00E94B9
:101BD0001F0DE1EEF0E080818E7F8083E2EEF0E089
:101BE000808181608083808188608083F80180812A
:101BF0008E7F8083888180618883DF91CF911F9160
:101C00000F910895E8EDF0E080818F7E8083E7ED0D
:101C1000F0E080818160808384E082BF81E08093F6
:101C2000D5010C94BF0DE8EDF0E080818E7F8083BC
:101C30001092E20008951092DA001092E1000895E7
:101C40001F920F920FB60F9211242F933F934F9331
:101C50005F936F937F938F939F93AF93BF93EF9314
:101C6000FF938091E10082FF0BC08091E20082FF30
:101C700007C08091E1008B7F8093E1000E94340ACD
:101C80008091DA0080FF1FC08091D80080FF1BC0C8
:101C90008091DA008E7F8093DA008091D90080FFF6
:101CA0000DC080E189BD82E189BD09B400FEFDCF90
:101CB00081E08093D6010E94170A05C019BC1092DA
:101CC000D6010E94290A8091E10080FF19C080910D
:101CD000E20080FF15C08091E2008E7F8093E200D9
:101CE0008091E20080618093E2008091D800806260
:101CF0008093D80019BC85E08093D6010E94420BE6
:101D00008091E10084FF30C08091E20084FF2CC00C
:101D100080E189BD82E189BD09B400FEFDCF8091DB
:101D2000D8008F7D8093D8008091E1008F7E8093D2
:101D3000E1008091E2008F7E8093E2008091E200DA
:101D400081608093E2008091D201882311F084E0C9
:101D500007C08091E30087FF02C083E001C081E0FB
:101D60008093D6010E949E0B8091E10083FF29C0E1
:101D70008091E20083FF25C08091E100877F8093FE
:101D8000E10082E08093D6011092D2018091E100BF
:101D90008E7F8093E1008091E2008E7F8093E2004D
:101DA0008091E20080618093E20042E060E080E0A8
:101DB0000E941F0D8091F00088608093F0000E94C7
:101DC000300AFF91EF91BF91AF919F918F917F91D9
:101DD0006F915F914F913F912F910F900FBE0F9098
:101DE0001F9018951F920F920FB60F9211242F93E8
:101DF0003F934F935F936F937F938F939F93AF9393
:101E0000BF93CF93EF93FF93C091E900CF70809180
:101E1000EC001092E9008091F000877F8093F00041
:101E200078940E942E0F1092E9008091F000886053
:101E30008093F000C093E900FF91EF91CF91BF91A3
:101E4000AF919F918F917F916F915F914F913F9152
:101E50002F910F900FBE0F901F9018951F93CF9347
:101E6000DF93CDB7DEB7AA970FB6F894DEBF0FBEEB
:101E7000CDBFE7EDF1E08091F100819321E0EF3DEE
:101E8000F207C9F70E948D0A8091E80083FF1CC108
:101E90002091D7013091D801832F90E08A309105AD
:101EA00008F012C1FC01EA5AFF4F0C94282A20388E
:101EB00081F0223809F008C18091DB018F70809396
:101EC000E9008091EB0085FB882780F91092E900FA
:101ED00006C08091D3019091D401911182609091BC
:101EE000E800977F9093E8008093F1001092F10052
:101EF000C5C0822F8D7F09F0E7C0222319F0223060
:101F000061F0E2C08091D901813009F0DDC0333049
:101F100009F080E08093D40128C08091D90181111B
:101F200024C02091DB012F7009F4CEC02093E9007A
:101F30008091EB0080FF19C08091EB00333011F4E9
:101F4000806211C080618093EB0081E090E0022EFE
:101F500001C0880F0A94EAF78093EA001092EA0021
:101F60008091EB0088608093EB001092E9008091F3
:101F7000E800877F86C02111A7C01091D9011F7783
:101F80008091E3008078812B8093E3008091E800CA
:101F9000877F8093E8000E94540D8091E80080FFC5
:101FA000FCCF8091E30080688093E300112311F05F
:101FB00083E001C082E08093D60186C020582230A1
:101FC00008F082C08091D9019091DA018C3D23E024
:101FD000920779F583E08A838AE289834FB7F89480
:101FE000DE01139620E03EE051E2E32FF0E0509353
:101FF0005700E49120FF03C0E295EF703F5FEF7060
:102000008E2F90E0EA3010F0C79601C0C0968D93F5
:102010009D932F5F243149F74FBF8091E800877F60
:102020008093E8006AE270E0CE0101960E945C0CA9
:1020300014C0AE014F5F5F4F6091DB010E94A40BA3
:10204000009709F441C02091E800277F2093E80021
:10205000BC0189819A810E94BD0C8091E8008B7738
:102060008093E80031C0203879F58091E800877FBF
:102070008093E8008091D2018093F1008091E80084
:102080008E778093E8000E94540D1EC021111CC061
:102090009091D9019230C0F48091E800877F8093BD
:1020A000E8009093D2010E94540D8091D2018111D9
:1020B00004C08091E30087FF02C084E001C081E09A
:1020C0008093D6010E94740A8091E80083FF0AC0C1
:1020D0008091E800877F8093E8008091EB00806228
:1020E0008093EB00AA960FB6F894DEBF0FBECDBF6B
:1020F000DF91CF911F9108959093640180936301C4
:102100000895E0916301F0916401309721F001900E
:10211000F081E02D099480E00895FF920F931F93C2
:10212000CF93DF938C01E0916301F09164013097CC
:1021300099F10280F381E02D09958091C10182FF20
:102140002BC080FF04C086E194E00E946606E8018F
:1021500080E1F82E00E114E08091C10180FF0BC006
:1021600088811F928F931F930F930E94FF060F90F9
:102170000F900F900F90FA942196F110EDCF80916F
:10218000C10180FF09C08EE094E0DF91CF911F91E3
:102190000F91FF900C946606DF91CF911F910F91E4
:1021A000FF900895E0916301F0916401309721F070
:1021B0000480F581E02D099408952091610130910A
:1021C00062018217930771F090936201809361011D
:1021D000E0916301F0916401309721F00680F7816E
:1021E000E02D0994089520915F01309160018217DC
:1021F000930771F09093600180935F01E091630118
:10220000F0916401309721F00084F185E02D09946C
:10221000089508950C9409110E94751D0E942707C6
:102220000C94961F5F926F927F928F929F92AF92C3
:10223000BF92CF92DF92EF92FF920F931F93CF93B3
:10224000DF9300D000D01F92CDB7DEB70E946207A7
:1022500096E6C92E91E0D92E00E010E0AA24A394BE
:10226000B12C502E802F0E947D083C01F601E19098
:10227000F1906F01E826F926E114F104B1F40F5F43
:102280001F4F0430110569F78FEF89838A831B8202
:102290000E947E1D8160782F9D838C8349815A81A5
:1022A0006B818D810E94E51141C08091C10181FD4A
:1022B0000E94860820E030E04501022E02C0880C12
:1022C000991C0A94E2F7C4018E219F21892B41F1C8
:1022D00029835A826820792081E0672809F480E008
:1022E0008B830E947E1D8160782F9D838C83498122
:1022F0005A816B818D810E94E51149815A816B81E0
:102300007C818D810E94F91CF801EE0FFF1FEA59B4
:10231000FE4F80819181882599259183808306C015
:102320002F5F3F4F2C30310539F6A9CF0E94F81CA2
:102330000E941D23109165010E948110181771F1F0
:102340000E948110809365019091C10192FF0EC09F
:1023500090FF0CC01F928F9388E294E09F938F931D
:102360000E94FF060F900F900F900F9080916501D3
:102370000F900F900F900F900F90DF91CF911F91C2
:102380000F91FF90EF90DF90CF90BF90AF909F9014
:102390008F907F906F905F900C940A1D0F900F901C
:1023A0000F900F900F90DF91CF911F910F91FF90A1
:1023B000EF90DF90CF90BF90AF909F908F907F90E5
:1023C0006F905F9008950C94CD08CF93DF93CDB7B5
:1023D000DEB72B970FB6F894DEBF0FBECDBF4F838D
:1023E000588769877A878B878A859B85892B31F007
:1023F0005F3F11F080E003C04F3FE1F781E08111C2
:1024000007C04F81588569857A858B850E94F91CA4
:10241000DE01119686E0FD0111928A95E9F785E0CB
:10242000FE01379601900D928A95E1F749815A8114
:102430006B817C818D819E810E9442192B960FB603
:10244000F894DEBF0FBECDBFDF91CF910895CF933B
:10245000C82F882309F4CCC0823859F40E94811017
:1024600081FDC6C089E30E94BF1B0E94A11C89E3B5
:102470000CC0833879F40E94811080FDB9C083E5D7
:102480000E94BF1B0E94A11C83E50E94101CCF91DB
:102490000C94A11C843859F40E94811082FDA8C0BC
:1024A00087E40E94BF1B0E94A11C87E4EECF8CEF43
:1024B0008C0F813A48F48C2F0E949427811198C088
:1024C0008C2F0E94BF1BE3CF80E28C0F883048F432
:1024D000C77081E001C0880FCA95EAF70E94651CA9
:1024E000D6CF8BE58C0F833078F4C53A29F0C63A05
:1024F00031F482E890E005C081E890E002C083E812
:1025000090E0CF910C94DD1088E58C0F853108F0B8
:102510006FC0C83A61F1C93A69F1CA3A71F1CB3A70
:1025200079F1CC3A81F1CD3A89F1CE3A91F1CF3AB5
:1025300099F1C13BA1F1C03BA9F1C23BB1F1C33B51
:10254000B9F1C43BC1F1C53BC9F1C63BD1F1C73BB1
:10255000D9F1C83BE1F1C93BE9F1CA3BF1F1CB3B11
:10256000F9F1CC3B09F03FC08AE292E03EC082EE36
:1025700090E03BC089EE90E038C08AEE90E035C034
:1025800085EB90E032C086EB90E02FC083EB90E0CB
:102590002CC084EB90E029C087EB90E026C08CEC47
:1025A00090E023C08DEC90E020C083E891E01DC056
:1025B0008AE891E01AC082E991E017C084E991E0CD
:1025C00014C081E292E011C083E292E00EC084E286
:1025D00092E00BC085E292E008C086E292E005C07E
:1025E00087E292E002C080E090E0CF910C94F3107B
:1025F000CF910895882309F44BC0823859F40E9482
:10260000811081FF45C089E30E94BF1B0E94A11C6D
:1026100089E30CC0833871F40E94811080FF38C0B8
:1026200083E50E94BF1B0E94A11C83E50E94101C31
:102630000C94A11C843859F40E94811082FF28C098
:1026400087E40E94BF1B0E94A11C87E4EFCF9CEF90
:10265000980F913A58F390E2980F983050F48770A1
:1026600091E001C0990F8A95EAF7892F0E946B1CAF
:10267000DFCF9BE5980F933020F480E090E00C943E
:10268000DD10885A853120F480E090E00C94F3103E
:102690000895882321F00E94651C0C94A11C0895C4
:1026A000882321F00E946B1C0C94A11C0895CF92EA
:1026B000DF92EF92FF920F931F93CF93DF93CDB7EB
:1026C000DEB728970FB6F894DEBF0FBECDBF8C01E2
:1026D00085E0F801DE01119601900D928A95E1F7EF
:1026E000F80140813181F280258122952F7083810C
:1026F0009481892B31F03F3F31F481E04F3F19F451
:1027000003C081E001C080E080FDCFC249833A83ED
:1027100089819A812F830E947D1B9E8388870E94D6
:102720007C1B0E94A41A4E81E42FE295EF70F0E02A
:10273000E05AFF4F2F8168850C94282A842F807FD0
:10274000142F1F70882311F01295107FFF2059F06D
:10275000112309F45FC2812F68870E94781C0E94B0
:10276000A11C688557C2862F0E94FA12112309F412
:102770009CC2812F0E947E1C28960FB6F894DEBF63
:102780000FBECDBFDF91CF911F910F91FF90EF90C2
:10279000DF90CF900C94A11C842F807F942F9F708A
:1027A000E92E803219F0E29480EFE822662319F0D6
:1027B000613001F129C0FF20A9F08E2D222349F1BB
:1027C000213039F528960FB6F894DEBF0FBECDBF85
:1027D000DF91CF911F910F91FF90EF90DF90CF90FD
:1027E0000C94881C222319F0213009F45EC20E9447
:1027F0008B1C2CC0FF20E9F0263008F056C20E9446
:10280000621C8E2129F022C0FF20F1F0211115C099
:102810008E2D28960FB6F894DEBF0FBECDBFDF9188
:10282000CF911F910F91FF90EF90DF90CF900C947C
:102830004913253008F039C209C0F801858180FFAD
:10284000E9C18F708583E4CF2111F8C18E2D66C157
:10285000242F26952695237030E02115310521F08F
:1028600021303105C9F021C2FF2021F0862F942F9D
:10287000937002C080E090E028960FB6F894DEBF17
:102880000FBECDBFDF91CF911F910F91FF90EF90C1
:10289000DF90CF900C94DD10FF2021F0862F942F35
:1028A000937002C080E090E028960FB6F894DEBFE7
:1028B0000FBECDBFDF91CF911F910F91FF90EF9091
:1028C000DF90CF900C94F310862FFF2019F00E9418
:1028D000A32102C00E940B2228960FB6F894DEBFF7
:1028E0000FBECDBFDF91CF911F910F91FF90EF9061
:1028F000DF90CF900C949022842F837009F076C0E3
:10290000F110D3C1262F229526952770220F220F72
:10291000862F8F70C82ED12CE12CF12C022E04C0F2
:10292000CC0CDD1CEE1CFF1C0A94D2F764FF10C017
:102930006FE070E080E090E004C0660F771F881FB2
:10294000991F2A95D2F7609570958095909503C050
:1029500060E070E0CB01242F269526952370422F4E
:1029600050E042305105D1F04330510559F16C2906
:102970007D298E299F294130510541F128960FB6B6
:10298000F894DEBF0FBECDBFDF91CF911F910F91A5
:10299000FF90EF90DF90CF900C94B91A6C297D29AD
:1029A0008E299F2928960FB6F894DEBF0FBECDBFA3
:1029B000DF91CF911F910F91FF90EF90DF90CF901B
:1029C0000C94CB1A0E94B91AC701B60128960FB60B
:1029D000F894DEBF0FBECDBFDF91CF911F910F9155
:1029E000FF90EF90DF90CF900C94A71AFF2019F082
:1029F000842F817001C08695882309F456C1262F43
:102A0000229526952770220F220F862F8F70C82EB1
:102A1000D12CE12CF12C022E04C0CC0CDD1CEE1CC0
:102A2000FF1C0A94D2F764FF10C06FE070E080E0F2
:102A300090E004C0660F771F881F991F2A95D2F770
:102A4000609570958095909503C060E070E0CB0133
:102A5000242F269526952370422F50E042305105B1
:102A6000D1F04330510559F16C297D298E299F29D8
:102A70004130510541F128960FB6F894DEBF0FBEE4
:102A8000CDBFDF91CF911F910F91FF90EF90DF901D
:102A9000CF900C94581B6C297D298E299F2928964C
:102AA0000FB6F894DEBF0FBECDBFDF91CF911F915F
:102AB0000F91FF90EF90DF90CF900C946A1B0E94D3
:102AC000581BC701B60128960FB6F894DEBF0FBE9B
:102AD000CDBFDF91CF911F910F91FF90EF90DF90CD
:102AE000CF900C94461B603F49F118F4603E48F4C7
:102AF0008CC0623F09F451C0E0F1633F09F461C04A
:102B000084C0162F1F70842F8F71FF2021F00E9428
:102B1000F11A812F7ECE0E940C1B812F28960FB6B2
:102B2000F894DEBF0FBECDBFDF91CF911F910F9103
:102B3000FF90EF90DF90CF900C945013FF20A9F0FE
:102B4000253008F0B2C0842F8F7128960FB6F89404
:102B5000DEBF0FBECDBFDF91CF911F910F91FF90D0
:102B6000EF90DF90CF900C942B1B263008F09DC087
:102B7000EACFFF20A1F0842F8F7128960FB6F8942A
:102B8000DEBF0FBECDBFDF91CF911F910F91FF90A0
:102B9000EF90DF90CF900C94F11AFF2061F3842F17
:102BA0008F7128960FB6F894DEBF0FBECDBFDF91B0
:102BB000CF911F910F91FF90EF90DF90CF900C94E9
:102BC0000C1BFF2091F0842F8F7128960FB6F8947C
:102BD000DEBF0FBECDBFDF91CF911F910F91FF9050
:102BE000EF90DF90CF900C94E21A28960FB6F894ED
:102BF000DEBF0FBECDBFDF91CF911F910F91FF9030
:102C0000EF90DF90CF900C94DD1AFF20A1F02223EB
:102C100009F4B1CF862F28960FB6F894DEBF0FBE09
:102C2000CDBFDF91CF911F910F91FF90EF90DF907B
:102C3000CF900C942712222309F4B1CF862F289627
:102C40000FB6F894DEBF0FBECDBFDF91CF911F91BD
:102C50000F91FF90EF90DF90CF900C94FA124F708D
:102C6000C8010E94381F28960FB6F894DEBF0FBE29
:102C7000CDBFDF91CF911F910F91FF90EF90DF902B
:102C8000CF900C94EF194F70C80128960FB6F894A6
:102C9000DEBF0FBECDBFDF91CF911F910F91FF908F
:102CA000EF90DF90CF900C943B1F28960FB6F894CE
:102CB000DEBF0FBECDBFDF91CF911F910F91FF906F
:102CC000EF90DF90CF9008950E94851C0E94541CC5
:102CD0000E94A11C0E94BE230E94902280E090E0EE
:102CE0000E94DD1080E090E00C94F3100E94751CAF
:102CF0000C9464160E947D1B292F22952F7030E0C2
:102D00002C3031054CF42A3031056CF42250310955
:102D10002230310590F407C02C30310551F02F30AE
:102D2000310539F00AC0803E10F0803F31F481E077
:102D3000089593FB882780F9089580E00895CF9344
:102D4000DF9300D000D01F92CDB7DEB70F900F9069
:102D50000F900F900F90DF91CF910895CF93DF9355
:102D600000D000D000D0CDB7DEB726960FB6F894CD
:102D7000DEBF0FBECDBFDF91CF9108951F93CF93DC
:102D8000DF93C0916E0116E080916F01C81799F032
:102D9000D0E01C9FF0011D9FF00D1124E059FE4F63
:102DA0004081518162817381848195810E94AE1638
:102DB0002196C770E9CFDF91CF911F91089540917F
:102DC000A0015091A1016091A2017091A301809195
:102DD000A4019091A5010C94AE16CF938091A5010A
:102DE00082958F7009F05FC08091A201882309F459
:102DF0005AC020916E01A0916F016091A001709165
:102E0000A1018091A3019091A40131E06F3F09F0ED
:102E100030E0B32FC6E02A1709F445C0009721F02F
:102E20007F3F21F44B2F03C041E001C040E030E080
:102E300040FD35C0C29FF001C39FF00D1124E05941
:102E4000FE4F418174132BC04081641328C042811E
:102E5000411125C0438154814817590710F441504E
:102E60005109481B590B483C5105C8F48091A501F4
:102E70008F7080618093A50186E0829FF001839F1F
:102E8000F00D1124EB58FE4F80818F70806180839C
:102E900080EA91E00E945713CF910C94BE162F5FE9
:102EA0003F4F2770B8CFCF910895CF92DF92EF9226
:102EB000FF920F931F93CF93DF93CDB7DEB7629747
:102EC0000FB6F894DEBF0FBECDBF8C0185E0F801D0
:102ED000DE011D9601900D928A95E1F7D8014C9183
:102EE00011965C91119712966C9112971396ED9032
:102EF000FC9014977091A001E091A1012091A30191
:102F00003091A4012115310531F0EF3F31F481E01A
:102F10007F3F19F403C081E001C080E0B82FB17099
:102F2000CB2E80FD6CC1D090A201DD2009F4F5C04C
:102F3000F091A501E216F30638F0C701821B930B4E
:102F4000883C910548F09BC0209530952E0D3F1D83
:102F5000283C310508F093C08F2F807F09F052C0C4
:102F6000E51314C0741312C0D62E61110FC0FF7088
:102F7000F061F093A5010E94DF1680EA91E00E94C3
:102F800057138091A501F80185836CC1EF2831F0BA
:102F90005F3F31F481E04F3F19F403C081E001C08D
:102FA00080E080FD03C081E0862701C080E0F82F2B
:102FB000F170FF2E80FF1CC080916E0120916F0187
:102FC00036E0821709F428C190E0389FF001399F5C
:102FD000F00D1124E059FE4F7181571306C0708126
:102FE000471303C07281671303C001968770E9CF4E
:102FF000D62E662309F436C18091A50181608093A5
:10300000A50153C0E51308C0741306C0611104C0C4
:10301000D8011596FC93AEC04D875E878D859E8541
:103020006A8B0E947A166A89882329F1D62E662334
:1030300011F12091A501822F82958F7090E0029767
:103040000CF460C08091A0019091A10198878F83BA
:103050001986FB86EA862C87CE01079651C0E517B4
:1030600031F14D875E878D859E856A8B0E947A1629
:103070006A8981112EC0C8010E945713A4C08F2FE6
:10308000807F69F77E2DF98AE88A89890E949F16D8
:1030900080EA91E00E945713E0EAF1E086E0DF0168
:1030A0001D928A95E9F70E94DF16D12CDBC07413BC
:1030B000D8CF6111D6CFD8011596FC93C8010E94D4
:1030C0005713E0EAF1E086E0DF011D928A95E9F707
:1030D000C9C0D62E662379F22091A501822F829550
:1030E0008F7090E0029774F08091A0019091A101FF
:1030F0009A8389831B82FD82EC822E83CE01019606
:103100000E94571386E0F801A0EAB1E001900D9209
:103110008A95E1F70E94ED166FC0E216F30628F0DB
:10312000C701821B930B9C0104C0209530952E0D86
:103130003F1D283C310508F052C0D62E662309F405
:103140009ACFE5132CC074132AC08091A50180FD8D
:103150001DC0982F92959F70C9F0D80115968C9339
:1031600015979F3039F09F5F9295907F8F70892BD4
:1031700015968C93C8010E94571386E0F801A0EAC7
:10318000B1E001900D928A95E1F736C086E0F80132
:10319000A0EAB1E001900D928A95E1F763C04D87F6
:1031A0005E878D859E850E947A16882379F086E059
:1031B000F801A0EAB1E001900D928A95E1F70E9432
:1031C000ED160E94DF16DD24D3944CC08091A5013A
:1031D00081608093A501C8010E94571343C07E2DD2
:1031E000F98AE88A89890E949F16E0EAF1E086E080
:1031F000DF011D928A95E9F70E94DF1633C066232E
:1032000009F439CF4D875E878D859E850E947A1699
:10321000882309F430CFCBCF4D875E878D859E857F
:103220000E947D1B292F22952F7030E0223031051E
:103230002CF49F7041F0811106C00CC02430310580
:103240002CF49F7049F4805E883020F0C8010E9401
:103250005713CF2CDC2C06C0D80115969C91907F7B
:1032600091F7F8CF8D2D62960FB6F894DEBF0FBEA2
:10327000CDBFDF91CF911F910F91FF90EF90DF9025
:10328000CF9008951F93CF93DF93CDB7DEB72C97E0
:103290000FB6F894DEBF0FBECDBF4F835887698746
:1032A0007A878B879C87CE0107960E9455178823C3
:1032B000C1F02F8138858A859B85892B31F03F3F6E
:1032C00011F080E003C02F3FE1F781E0811147C09A
:1032D0004F81588569857A858B859C850E94AE16BD
:1032E0003EC086E0FE013796DE01119601900D92F8
:1032F0008A95E1F7FF81E8854A855B85411551058F
:1033000031F0EF3F31F481E0FF3F19F403C081E079
:1033100001C080E080FD23C020916F0130E0C90131
:1033200001968770992760916E0170E08617970764
:10333000F1F1F983EA835D834C8396E0929FD0019B
:10334000939FB00D1124A059BE4FFE0131960190FC
:103350000D929A95E1F780936F010E94BE1616E0D8
:1033600080916E0190916F01891779F1189FC001CA
:10337000112480599E4F0E945517882331F1E09106
:103380006E011E9FF0011124E059FE4F40815181D2
:1033900062817381848195810E94AE1680916E0155
:1033A00090E001968770992780936E01D9CF0E9493
:1033B000761610926F0110926E01E0EAF1E086E05D
:1033C000DF011D928A95E9F7CACF2C960FB6F894C3
:1033D000DEBF0FBECDBFDF91CF911F910895DF9269
:1033E000EF92FF920F931F93CF93DF93FC0100970F
:1033F00009F48AC0E12CF12CDD24D394EF0121964D
:103400008491853709F461C058F4843708F04EC0C0
:10341000843008F06AC08130D1F0823071F174C01C
:10342000883709F45DC050F4863709F455C08737F2
:1034300009F06AC08E2D0E94721C54C09CE7980F40
:10344000903708F061C08F770E94FA1250C08F0148
:103450000E5F1F4FFE01849190E2980F983050F458
:103460008770FD2D01C0FF0F8A95EAF78F2F0E940C
:10347000781C15C00E94271214C08F010E5F1F4FC9
:10348000FE01849190E2980F983068F48770FD2DCA
:1034900001C0FF0F8A95EAF78F2F0E947E1C0E94C1
:1034A000A11CE80124C00E94FA12FBCF9F012E5FED
:1034B0003F4FFE01C491CC2369F08FE99FE0019753
:1034C000F1F700C00000C150F6CF9F012E5F3F4FC3
:1034D000FE01F490E9010BC00E94621CE82E07C0B7
:1034E0000E94751C0E94A11C02C00E9427129F2DE1
:1034F000992341F0EFE9FFE03197F1F700C00000B8
:103500009150F6CFFE017ACFDF91CF911F910F91AD
:10351000FF90EF90DF9008956093AA017093AB0144
:103520008093AC019093AD010E94081D0C94641629
:103530006093A6017093A7018093A8019093A901BD
:103540000E94091D0C94641608950C948C1A0F9314
:103550001F930091AA011091AB012091AC01309111
:10356000AD01602B712B822B932B1F910F910C942B
:103570008C1A0F931F930091AA011091AB01209117
:10358000AC013091AD0160237123822393231F91FD
:103590000F910C948C1A0F931F930091AA01109114
:1035A000AB012091AC013091AD01602771278227DA
:1035B00093271F910F910C948C1A60E070E0CB015F
:1035C0000C94981A41E050E060E070E004C0440FB1
:1035D000551F661F771F8A95D2F7CB01BA010C944D
:1035E000981A41E050E060E070E004C0440F551FBD
:1035F000661F771F8A95D2F78091A6019091A70147
:10360000A091A801B091A901482B592B6A2B7B2BC3
:10361000CB01BA010C94981A41E050E060E070E0F0
:1036200004C0440F551F661F771F8A95D2F7409537
:103630005095609570958091A6019091A701A091F9
:10364000A801B091A901482359236A237B23CB0108
:10365000BA010C94981A41E050E060E070E004C0B8
:10366000440F551F661F771F8A95D2F78091A601D8
:103670009091A701A091A801B091A90148275927CD
:103680006A277B27CB01BA010C94981A0F931F93DA
:103690000091A6011091A7012091A8013091A901E4
:1036A000602B712B822B932B1F910F910C94981AE6
:1036B0000F931F930091A6011091A7012091A801DB
:1036C0003091A90160237123822393231F910F91CD
:1036D0000C94981A0F931F930091A6011091A701C3
:1036E0002091A8013091A901602771278227932793
:1036F0001F910F910C94981A0895CF92DF92EF9238
:10370000FF920F931F93CF93DF93EC01C090AA0118
:10371000D090AB01E090AC01F090AD018091A6019A
:103720009091A701A091A801B091A901C82AD92A16
:10373000EA2AFB2A0FE110E0B701A601002E04C01F
:1037400076956795579547950A94D2F740FF07C03D
:10375000BE01802F0E94C51E8130910539F40150B1
:10376000110950F7BE0180E00E94C51EDF91CF9184
:103770001F910F91FF90EF90DF90CF90089590915F
:103780000B01992361F190910C01992341F1982F3C
:103790009695969596959F3088F4E0910D01F0915D
:1037A0000E01E90FF11D877021E030E001C0220F0A
:1037B0008A95EAF78181822B818308959091C101D6
:1037C00090FF2DC01F928F9381E594E09F938F937C
:1037D0000E94FF060F900F900F900F900895409158
:1037E0000D0150910E0120E030E09FEFFA01E20F51
:1037F000F31F6281681799F09F3F19F4611101C0AE
:10380000922F2F5F3F4F2E30310581F79F3F39F0C8
:10381000FA01E90FF11D97FDFA9582830895089545
:1038200090910B01992369F190910C01992349F131
:10383000982F9695969596959F3090F4E0910D016E
:10384000F0910E01E90FF11D877021E030E001C019
:10385000220F8A95EAF720958181282321830895F4
:103860009091C10190FF1FC01F928F9383E394E05A
:103870009F938F930E94FF060F900F900F900F90D1
:10388000089540910D0150910E0120E030E0FA01C1
:10389000E20FF31F9281981301C012822F5F3F4FF6
:1038A0002E303105A1F7089581E090E0E0910D01FF
:1038B000F0910E01E80FF91F1082019680319105F9
:1038C000A9F708958091C00108959091C001982BA7
:1038D0009093C001089580959091C0019823909392
:1038E000C00108958093C00108951092C001089509
:1038F0009091BF01982B9093BF010895809590916E
:10390000BF0198239093BF0108951092BF010895BD
:103910008093AE0108951092AE01089540910D017B
:1039200050910E0120E030E080E0FA01E20FF31F39
:10393000918191118F5F2F5F3F4F2F303105A9F794
:103940000895E0910D01F0910E018091C0018083F6
:10395000E0910D01F0910E0180819091BF01892BC2
:1039600080839091AE01992361F0E0910D01F09177
:103970000E018081892B80830E948E1C8111109200
:10398000AE0180910D0190910E010C948D109093D9
:1039900039018093380108958295982F9C7C9695E3
:1039A0009695837344E0849F90011124922B892F74
:1039B0008A7A86959575990F892B08951F93CF93D1
:1039C000DF931F92CDB7DEB799830E94CC1C182FCE
:1039D0009981892F0E94CC1C212F30E0322F222781
:1039E000A901482BCA010F90DF91CF911F91089533
:1039F0000895CF93DF9300D000D01F92CDB7DEB7EC
:103A00000F900F900F900F900F90DF91CF9108952E
:103A1000089508950C94E31108958091D60184309F
:103A200009F11092C20120E488E190E00FB6F89409
:103A3000A895809360000FBE2093600083B7817FBC
:103A4000846083BF83B7816083BF7894889583B790
:103A50008E7F83BF88E10FB6F89480936000109248
:103A600060000FBE089508950895CF930E94331DFE
:103A70000E9462070E94341DC0E08C2F0E947D08C6
:103A8000892B29F4CF5FC430C1F780E001C081E009
:103A9000CF9108950C9476161F920F920FB60F9245
:103AA00011248F939F93AF93BF938091C201811193
:103AB00013C08091C3019091C401A091C501B09140
:103AC000C6014196A11DB11D8093C3019093C4010D
:103AD000A093C501B093C601BF91AF919F918F9103
:103AE0000F900FBE0F901F90189582E084BD93E059
:103AF00095BD9AEF97BD80936E0008952FB7F89407
:103B00008091C3019091C401A091C501B091C601FB
:103B10002FBF08952FB7F8946091C3017091C4012D
:103B20008091C5019091C6012FBF0895CF92DF9279
:103B3000EF92FF920F931F932FB7F8944091C30118
:103B40005091C4016091C5017091C6012FBF6A01F7
:103B50007B01EE24FF248C0120E030E0C016D1066A
:103B6000E206F30610F441505109481B590BCA01F3
:103B70001F910F91FF90EF90DF90CF9008951F92CB
:103B80000F920FB60F9211248F939F93AF93BF9311
:103B90008091C3019091C401A091C501B091C6016B
:103BA0000196A11DB11D8093C3019093C401A09300
:103BB000C501B093C601BF91AF919F918F910F90B6
:103BC0000FBE0F901F9018950E94A50DF8942FEF2F
:103BD00087EA91E6215080409040E1F700C0000064
:103BE00087E090EBDC018093E0019093E101A093EA
:103BF000E201B093E3012CE088E190E00FB6F89485
:103C0000A895809360000FBE20936000FFCF8D3B8E
:103C100060F4883A80F5853A28F5843008F58130DB
:103C200009F06BC081E090E00895883E98F4803EF2
:103C3000B8F48F3B09F061C00E9476162FEF80E741
:103C400092E0215080409040E1F700C000000E94C7
:103C5000E41D53C0803F08F450C090E09065089583
:103C600090E00895853A09F44BC0863A09F04BC0BC
:103C700082E890E40895883A09F448C0893A09F442
:103C800048C08A3A09F448C08B3A09F448C08C3AD3
:103C900009F448C08D3A09F448C08E3A09F448C086
:103CA0008F3A09F448C0813B09F448C0803B09F4CD
:103CB00048C0823B09F448C0833B09F448C0843BB8
:103CC00009F448C0853B09F448C0863B09F448C064
:103CD000873B09F448C0883B09F448C0893B09F494
:103CE00048C08A3B09F448C08B3B09F448C08C3B70
:103CF00009F048C08AE296E4089580E090E00895D3
:103D000081E890E4089583E890E4089582EE94E4D5
:103D1000089589EE94E408958AEE94E4089585EB7D
:103D200094E4089586EB94E4089583EB94E4089575
:103D300084EB94E4089587EB94E408958CEC94E488
:103D400008958DEC94E4089583E895E408958AE855
:103D500095E4089582E995E4089584E995E4089549
:103D600081E296E4089583E296E4089584E296E47D
:103D7000089585E296E4089586E296E4089587E240
:103D800096E4089580E094E408950E940807803E38
:103D9000A8F4803C00F5813309F45CC038F4893222
:103DA00009F452C08A3209F45BC05FC08933B1F0B4
:103DB0008238A1F0853309F441C057C0833E41F1F8
:103DC00028F4803E99F0823EB9F04FC0863E31F132
:103DD000873E71F14AC00E94170708959091DF0154
:103DE00090FD02C091FF41C080EE3FC08091DF0195
:103DF00080FFFACF89E339C08091DF0182FF0CC0D8
:103E00008091DF0184FF02C080E02FC083EE2DC0CF
:103E10008091DF0182FFF4CF82EE27C08091DF0125
:103E200083FF0AC08091DF0184FDEECF87EE1DC0C5
:103E30008091DF0183FFF6CF86EE17C08091DF010E
:103E400085FF06C089E211C08091DF0185FFFACFAE
:103E500085E30BC08091DF0186FF06C08AE205C0C2
:103E60008091DF0186FFFACF81E30E94071E08954B
:103E700080E090E008950895BF92CF92DF92EF9294
:103E8000FF920F931F93CF93DF938C01B12CEE24FD
:103E9000E394F12C8B2D0E947D086C01C0E0D0E0F2
:103EA00097010C2E02C0220F331F0A94E2F72C2137
:103EB0003D21232BB1F06C2F7B2D80E00E94C51E8D
:103EC0009C018017910759F0832F807E932F907C5F
:103ED00011F0803A31F430E02017310711F481E01D
:103EE00009C02196CC30D105D9F6B39484E0B8123C
:103EF000D1CF80E0DF91CF911F910F91FF90EF9094
:103F0000DF90CF90BF900895CF93DF93EC018CE2C8
:103F100090E00E943C1F882329F0CE01DF91CF91D1
:103F20000C943C1F80E0DF91CF910895CF930E94C5
:103F3000FC20811102C00E94E22086E794E00E94EA
:103F40006606C5E6C15049F00E9462078FE39CE90E
:103F50000197F1F700C00000F5CF8FE694E00E94D2
:103F6000660689E290E00E94841F811129C18AE2DD
:103F700090E00E94841F81110E94E22085E090E081
:103F80000E94841F81110E94E41D0E940C1D0E944A
:103F900007218093C10187E090E00E94841F88235D
:103FA000B1F18BE190E00E94841F882351F0909141
:103FB000C10191FB882780F921E0822780FB91F9DC
:103FC00024C08EE090E00E94841F882351F09091DD
:103FD000C10192FB882780F921E0822780FB92F9BA
:103FE00014C080E190E00E94841F9091C101882359
:103FF00041F093FB882780F921E0822780FB93F929
:1040000004C0892F809580FB90F99093C101809125
:10401000C1010E940B210E9419218093DF0180EED3
:1040200090E00E94841F882341F08091DF01982F47
:10403000909590FB80F98093DF0189E390E00E94E6
:10404000841F882359F09091DF0191FB882780F924
:1040500021E0822780FB91F99093DF0182EE90E0CE
:104060000E94841F882359F09091DF0192FB8827DA
:1040700080F921E0822780FB92F99093DF0186EEA0
:1040800090E00E94841F882359F09091DF0193FBF8
:10409000882780F921E0822780FB93F99093DF0144
:1040A00083EE90E00E94841F882359F09091DF01F5
:1040B00094FB882780F921E0822780FB94F9909374
:1040C000DF0185E390E00E94841F882359F09091DE
:1040D000DF0195FB882780F921E0822780FB95F995
:1040E0009093DF0181E390E00E94841F882359F0C0
:1040F0009091DF0196FB882780F921E0822780FBE1
:1041000096F99093DF0181E190E00E94841F88235B
:1041100059F09091DF0197FB882780F921E08227F1
:1041200080FB97F99093DF018091DF010E941D21B0
:104130008091DF0187FB882780F980930C0187E25B
:1041400090E00E94841FC82F8EE190E00E94841F9F
:104150008111C2608FE190E00E94841F8111C460D0
:1041600080E290E00E94841F8111C86081E290E0AB
:104170000E94841F8111C06182E290E00E94841F2E
:104180008111C06283E290E00E94841F8111C064AB
:1041900084E290E00E94841F882311F0C06802C06E
:1041A000CC2329F08C2F0E9414216C2F03C00E9475
:1041B0001021682F70E080E090E0CF910C94A51A58
:1041C000CF9108956DEE7EEF80E090E00E945E2A30
:1041D00060E082E090E00E94502A60E083E090E09E
:1041E0000E94502A60E084E090E00E94502A60E043
:1041F00085E090E00C94502A80E090E00E944A2AEA
:1042000021E08D3E9E4F09F020E0822F089582E04C
:1042100090E00C94422A682F82E090E00C94502A9F
:1042200083E090E00C94422A682F83E090E00C94A5
:10423000502A84E090E00C94422A682F84E090E0B9
:104240000C94502A8091C90180FF0BC0609112012B
:1042500085E0689FB0011124759567957595679500
:104260002AC081FF09C06091120185E0689FB001FA
:104270001124759567951FC082FF07C060911201D8
:1042800085E0689FB001112416C04091CA01442303
:10429000C9F060911101461788F72091120185E05D
:1042A000289F90011124429FC001439F900D11242B
:1042B00070E00E94142A6038710540F461157105A0
:1042C00039F002C065E070E0862F08958FE7089509
:1042D00081E008958091C90180FF08C060911001BC
:1042E00070E0759567957595679521C081FF06C04B
:1042F0006091100170E07595679519C082FF04C048
:104300006091100170E010C08091CA018823C1F053
:1043100060910F018617A0F790911001989FC0013E
:10432000112470E00E94142A6038710528F4611588
:10433000710521F0862F08958FE7089581E0089593
:1043400061E070E0F4CF803F21F40E94222181954A
:1043500004C0813F29F40E9422218093CD01089559
:10436000823F21F40E942221819504C0833F29F4D9
:104370000E9422218093CC010895893F19F40E9464
:104380006A2105C08A3F31F40E946A218195809399
:10439000CE0108958B3F21F40E946A21819504C0CB
:1043A0008C3F29F40E946A218093CF010895843FB5
:1043B00021F48091CB01816017C0853F21F4809169
:1043C000CB01826011C0863F21F48091CB018460D3
:1043D0000BC0873F21F48091CB01886005C0883FE6
:1043E00031F48091CB0180618093CB0108958D3FA2
:1043F00021F48091C90181600BC08E3F21F480912E
:10440000C901826005C08F3F29F48091C901846091
:104410008093C9010895803F39F48091CD0187FFD1
:104420006CC01092CD0169C0813F29F48091CD010B
:104430001816BCF362C09091CC01823F29F497FF1B
:104440005CC01092CC0159C0833F19F41916CCF30B
:1044500054C0893F41F48091CE0118160CF04DC034
:104460001092CE014AC08A3F29F48091CE0187FF85
:1044700044C0F6CF8B3F39F48091CF0187FF3DC018
:104480001092CF013AC08C3F29F48091CF011816C9
:10449000BCF333C0843F21F48091CB018E7F17C0E1
:1044A000853F21F48091CB018D7F11C0863F21F49F
:1044B0008091CB018B7F0BC0873F21F48091CB0192
:1044C000877F05C0883F31F48091CB018F7E809338
:1044D000CB0113C08D3F21F48091C9018E7F0BC0A9
:1044E0008E3F21F48091C9018D7F05C08F3F29F453
:1044F0008091C9018B7F8093C9018091CC0181118A
:104500000EC08091CD0181110AC08091CE01811130
:1045100006C08091CF01811102C01092CA01089596
:104520008091C10183FF7EC082EB94E00E94660609
:104530008091CB011F928F938DEA94E09F938F938C
:104540000E94FF068BEA94E00E9466062091CC014F
:10455000822F992787FD90959F932F9388EA94E067
:104560009F938F930E94FF0686EA94E00E9466065E
:104570002091CD01822F992787FD90959F932F93AE
:1045800083EA94E09F938F930E94FF0681EA94E070
:104590000E9466062091CE01822F992787FD909573
:1045A0009F932F938EE994E09F938F930E94FF0631
:1045B0008CE994E00E9466062091CF01822F992712
:1045C00087FD90959F932F9389E994E09F938F9314
:1045D0000E94FF0686E994E00E9466068091CA0167
:1045E0001F928F9383E994E09F938F930E94FF061D
:1045F00081E994E00E9466068091C9011F928F9321
:104600008EE894E09F938F930E94FF068BE894E0DE
:104610000E9466068DB79EB74C960FB6F8949EBF63
:104620000FBE8DBF8BEC91E00E94D2100E947E1DC8
:104630009093C8018093C70108951F93CF93DF9390
:104640008091C7019091C8010E94961D4091CA01B6
:10465000442321F02091130130E006C02091140181
:104660005AE0259F900111248217930708F482C015
:104670008091CC011091CD01D091CE01C091CF019C
:10468000811107C0111105C0D11103C0CC2309F459
:1046900071C04F3F19F04F5F4093CA01181624F4C0
:1046A0000E9422218093CC018091CC0187FF05C01C
:1046B0000E94222181958093CC01111624F40E943E
:1046C00022218093CD018091CD0187FF05C00E94FA
:1046D000222181958093CD016091CC01662339F12F
:1046E0001091CD01112319F1772767FD7095872F60
:1046F000972F0E94192923E333E343E35FE30E94EA
:104700007D290E94E6286093CC01612F772767FD01
:104710007095872F972F0E94192923E333E343E3F2
:104720005FE30E947D290E94E6286093CD011D165B
:1047300024F40E946A218093CE018091CE0187FFEC
:1047400005C00E946A2181958093CE011C1624F435
:104750000E946A218093CF018091CF0187FF05C01D
:104760000E946A2181958093CF01DF91CF911F91A3
:104770000C949022DF91CF911F910895EBECF1E022
:1047800085E0DF011D928A95E9F71092CA01109227
:10479000C901089585ED96E00E9466061F9281E0AA
:1047A0008F931F9285E08F9387E896E09F938F9376
:1047B0000E94FF060F900F900F900F900F900F9098
:1047C00008958330E9F128F4813061F0823009F1F5
:1047D0000895853009F462C008F449C0863009F4B0
:1047E00074C0089520911401862F90E0820F911DCE
:1047F0008F3F910520F4620F6093140103C08FEF87
:1048000080931401809114011F928F9380EC95E0A6
:1048100072C020911301862F90E0820F911D8F3F6F
:10482000910520F4620F6093130103C08FEF809312
:104830001301809113011F928F938EEA95E05BC064
:1048400020911201862F90E0820F911D8F3F9105DC
:1048500020F4620F6093120103C08FEF8093120166
:10486000809112011F928F938BE995E044C02091B3
:104870001101862F90E0820F911D8F3F910520F44A
:10488000620F6093110103C08FEF8093110180913B
:1048900011011F928F9386E895E02DC020911001A1
:1048A000862F90E0820F911D8F3F910520F4620FBB
:1048B0006093100103C08FEF80931001809110016D
:1048C0001F928F938DE695E016C020910F01862FE1
:1048D00090E0820F911D8F3F910520F4620F60934D
:1048E0000F0103C08FEF80930F0180910F011F9282
:1048F0008F9382E595E09F938F930E94FF060F9020
:104900000F900F900F900895833081F128F481303B
:1049100059F08230D1F00895853009F449C0B8F1DA
:10492000863009F456C0089580911401681720F468
:10493000861B8093140102C010921401809114010F
:104940001F928F9383E495E054C080911301681700
:1049500020F4861B8093130102C0109213018091F2
:1049600013011F928F9381E395E043C08091120160
:10497000681720F4861B8093120102C01092120166
:10498000809112011F928F938EE195E032C0809149
:104990001101681720F4861B8093110102C0109248
:1049A0001101809111011F928F9389E095E021C040
:1049B00080911001681720F4861B8093100102C0BB
:1049C00010921001809110011F928F9380EF94E05C
:1049D00010C080910F01681720F4861B80930F018F
:1049E00002C010920F0180910F011F928F9385EDED
:1049F00094E09F938F930E94FF060F900F900F906B
:104A00000F900895CF93C82F1F928F932AED37E010
:104A10003F932F930E94FF0661E070E080E090E0FA
:104A200004C0660F771F881F991FCA95D2F70E948E
:104A3000A51A0F900F900F900F90CF910C947616AF
:104A4000CF938B3109F4CBC108F049C08E3009F403
:104A5000D9C100F5873009F4A9C1A8F4863009F05E
:104A600057C28091C101817F8E7F8093C1018FEDFC
:104A700097E00E94660689E19CE00E94660681E05C
:104A80008093D10191C1883009F45BC08B3009F467
:104A900087C13EC2813109F423C220F4803109F478
:104AA000C4C136C2863109F4DAC1893109F030C295
:104AB0008DE89BE00E94660681E69BE00E94660608
:104AC00081E29BE00E94660684EF9AE00E946606FF
:104AD0008FEA9AE00E94660681E89AE063C1853316
:104AE00009F410C268F4873209F40CC228F48E313C
:104AF00008F40EC28D5109C2893209F403C208C2FA
:104B0000833438F48A3308F0FFC1883309F448C18C
:104B1000FFC1833409F4F6C1883409F0F9C10E9459
:104B2000761688E09CE00E9466069FEF23ED80E306
:104B3000915020408040E1F700C000000E94E41D39
:104B400033C18DE19CE00E9466068EED99E00E94E3
:104B500066060E9410211F928F938BED99E09F9320
:104B60008F930E94FF0689ED99E00E9466060E94DD
:104B70000721C82F86EC99E00E9466061F92CF930A
:104B800021EC39E03F932F930E94FF068FEB99E0D1
:104B90000E94660685EB99E00E9466068C2F817064
:104BA0001F928F9322EB39E03F932F930E94FF06D1
:104BB00080EB99E00E94660686EA99E00E9466060C
:104BC000C1FB882780F91F928F9323EA39E03F9336
:104BD0002F930E94FF0681EA99E00E94660685E90C
:104BE00099E00E946606C2FB882780F91F928F9386
:104BF00022E939E03F932F930E94FF0680E999E074
:104C00000E94660687E899E00E946606C3FBCC27EF
:104C1000C0F91F92CF9384E899E09F938F930E94ED
:104C2000FF0682E899E00E9466060E941921C82FBB
:104C30008EE699E00E9466061F92CF9329E639E03E
:104C40003F932F930E94FF0687E699E00E94660635
:104C50008EE499E00E9466068C2F81701F928F93DC
:104C60002BE439E03F932F930E94FF068DB79EB748
:104C700080960FB6F8949EBF0FBE8DBF89E499E071
:104C80000E94660682E399E00E946606C1FB8827BF
:104C900080F91F928F932FE239E03F932F930E9468
:104CA000FF068DE299E00E9466068BE199E00E9482
:104CB0006606C2FB882780F91F928F9328E139E0AE
:104CC0003F932F930E94FF0686E199E00E946606BB
:104CD00084E099E00E946606C3FB882780F91F9252
:104CE0008F9321E039E03F932F930E94FF068FEFCF
:104CF00098E00E94660685EF98E00E946606C4FB75
:104D0000882780F91F928F9322EF38E03F932F93EB
:104D10000E94FF0680EF98E00E9466068EED98E004
:104D20000E946606C5FB882780F91F928F932BEDA2
:104D300038E03F932F930E94FF0689ED98E00E9490
:104D400066068DEB98E00E946606C6FB882780F910
:104D50001F928F932AEB38E03F932F930E94FF0618
:104D600088EB98E00E94660680EB98E00E94660659
:104D7000C7FBCC27C0F91F92CF938DEA98E09F9391
:104D80008F930E94FF068BEA98E00E9466068DB71B
:104D90009EB74C960FB6F8949EBF0FBE8DBF04C051
:104DA00086E098E00E946606C1E0B7C08091C1012C
:104DB000C82FC17080FF09C08BEF9BE00E94660680
:104DC0008091C101817F8E7F44C08FEE9BE00E9465
:104DD00066068091C10181608093C101E5CF809119
:104DE000C10181FBCC27C0F991E0C927C0FB81F943
:104DF0008093C101CC2319F082EE9BE025C084EDA5
:104E00009BE0D0CF8091C10182FBCC27C0F991E01B
:104E1000C927C0FB82F98093C101CC2319F085EC2E
:104E20009BE012C085EB9BE0BDCF8091C10183FB6D
:104E3000CC27C0F991E0C927C0FB83F98093C10159
:104E4000CC2351F089EA9BE00E9466068091C10163
:104E500081608093C10161C08CE99BE0A3CF83E7AF
:104E60009AE00E9466060E9481101F928F9389E546
:104E70009AE09F938F930E94FF0680910B011F92EF
:104E80008F9382E49AE09F938F930E94FF06809114
:104E90005E011F928F938FE29AE09F938F930E94FF
:104EA000FF0680910C011F928F938CE19AE09F93F3
:104EB0008F930E94FF060E948A1D9F938F937F937A
:104EC0006F9385E09AE09F938F930E94FF068DB7C2
:104ED0009EB746960FB6F8949EBF0FBE8DBF64CFA7
:104EE0000E947616C0910C0181E0C827C0930C0186
:104EF000CC2329F08BEF99E00E9466060EC080EF6C
:104F000099E050CF80E001C089530E9402254CCF28
:104F10008EEE99E00E946606C0E08C2FCF91089536
:104F200080E0089580E00895CF93C82F8091D1014B
:104F3000813071F020F0823009F448C03FC1A09167
:104F40000D01B0910E018C91823209F039C107C078
:104F5000A0910D01B0910E018C91823249F48C2FF9
:104F60000E94902781112FC08C2F0E9420252CC0D9
:104F70008C2F0E949227811126C0C431E1F070F479
:104F8000CB3081F0C031D1F40E94CA2382ED97E08A
:104F90000E94660682E08093D10115C0C93259F0A3
:104FA000C83361F48FED97E00E94660686ED97E0C6
:104FB0000E94660608C01092D10104C180ED97E0FE
:104FC0000E946606FFC081E08170FEC0C43228F5F1
:104FD000CE3108F0C1C0CB30A1F1D0F4C73009F018
:104FE000D3C08EE18093140182E3809313018AE0A1
:104FF0008093120184E18093110188E08093100175
:1050000088E280930F0186E796E00E946606BFC0A3
:10501000C33149F1C431C1F0B7C0CB3409F4A9C0E0
:1050200028F4C93289F0C83361F0AEC0C13509F443
:105030009EC0C23509F499C0CE3409F0A5C06AE01B
:105040009EC00E94CA23A3C08091D001882319F07A
:105050001092D0019CC083E896E00E94660681E031
:105060008093D101B1C08DE596E00E9466068BE485
:1050700096E00E946606809114011F928F9388E447
:1050800096E09F938F930E94FF0686E496E00E942D
:10509000660684E396E00E946606809113011F92E3
:1050A0008F9381E396E09F938F930E94FF068FE298
:1050B00096E00E94660680E296E00E946606809175
:1050C00012011F928F938DE196E09F938F930E9420
:1050D000FF068BE196E00E9466068AE096E00E9459
:1050E0006606809111011F928F9387E096E09F934F
:1050F0008F930E94FF0685E096E00E94660680EF8F
:1051000095E00E946606809110011F928F938DEEAC
:1051100095E09F938F930E94FF068BEE95E00E948F
:10512000660684ED95E00E94660680910F011F924D
:105130008F9381ED95E09F938F930E94FF068FECF4
:1051400095E00E9466068DB79EB748960FB6F89414
:105150009EBF0FBE8DBF1BC0CE51EC2FF0E0E25DB5
:10516000FE4F80818093D00112C061E003C061E0F6
:1051700006C06AE08091D0010E94E12308C08091BE
:10518000D0010E94842403C084E796E013C080917C
:10519000D001882369F01F928F938EE696E09F934B
:1051A0008F930E94FF060F900F900F900F9004C0F6
:1051B0008BE696E00E94660681E006C01092D1015F
:1051C00080E002C080E000CFCF91089504D06894C1
:1051D000B1118DC0089570D088F09F5790F0B92F0D
:1051E0009927B751A0F0D1F0660F771F881F991F3C
:1051F0001AF0BA95C9F712C0B13081F077D0B1E09A
:10520000089574C0672F782F8827B85F39F0B93FA9
:10521000CCF3869577956795B395D9F73EF490953D
:105220008095709561957F4F8F4F9F4F0895E894BB
:1052300009C097FB3EF490958095709561957F4FDE
:105240008F4F9F4F9923A9F0F92F96E9BB2793958C
:10525000F695879577956795B795F111F8CFFAF49C
:10526000BB0F11F460FF1BC06F5F7F4F8F4F9F4FCD
:1052700016C0882311F096E911C0772321F09EE82B
:10528000872F762F05C0662371F096E8862F70E091
:1052900060E02AF09A95660F771F881FDAF7880F6B
:1052A0009695879597F9089557FD9058440F551F87
:1052B00059F05F3F71F04795880F97FB991F61F098
:1052C0009F3F79F087950895121613061406551F0F
:1052D000F2CF4695F1DF08C0161617061806991F7B
:1052E000F1CF86957105610508940895E894BB2770
:1052F00066277727CB0197F908950BD078C069D03E
:1053000028F06ED018F0952309F05AC05FC0112420
:10531000EECFCADFA0F3959FD1F3950F50E0551F54
:10532000629FF001729FBB27F00DB11D639FAA27FA
:10533000F00DB11DAA1F649F6627B00DA11D661F49
:10534000829F2227B00DA11D621F739FB00DA11D6A
:10535000621F839FA00D611D221F749F3327A00D24
:10536000611D231F849F600D211D822F762F6A2FC0
:1053700011249F5750408AF0E1F088234AF0EE0F45
:10538000FF1FBB1F661F771F881F91505040A9F752
:105390009E3F510570F014C0AACF5F3FECF3983EDA
:1053A000DCF3869577956795B795F795E7959F5FB9
:1053B000C1F7FE2B880F911D9695879597F9089553
:1053C00097F99F6780E870E060E008959FEF80ECB8
:1053D000089500240A94161617061806090608955B
:1053E00000240A9412161306140605060895092EC1
:1053F0000394000C11F4882352F0BB0F40F4BF2B30
:1054000011F460FF04C06F5F7F4F8F4F9F4F08956F
:10541000991B79E004C0991F961708F0961B881F06
:105420007A95C9F78095089597FB072E16F4009496
:1054300007D077FD09D00E942E2A07FC05D03EF444
:10544000909581959F4F0895709561957F4F089530
:10545000EE0FFF1F0590F491E02D0994AA1BBB1BD2
:1054600051E107C0AA1FBB1FA617B70710F0A61B64
:10547000B70B881F991F5A95A9F780959095BC0185
:10548000CD010895F999FECF92BD81BDF89A992773
:1054900080B50895A8E1B0E042E050E00C94652AA0
:1054A000262FF999FECF1FBA92BD81BD20BD0FB640
:1054B000F894FA9AF99A0FBE019608950E94502A1C
:1054C000272F0C94512ADC01CB01FC01F999FECF66
:1054D00006C0F2BDE1BDF89A319600B40D9241507C
:0A54E0005040B8F70895F894FFCF8C
:1054EA0005D408C509A2096E093B090101AF0128C3
:1054FA0008140A321E3F4D362039CF0382034C036B
:10550A002C03F30266027F029802B102D102010261
:08551A0003040506070809005F
:00000001FF
