:100000000C9433060C9477060C9477060C947706C0
:100010000C9477060C9477060C9477060C9477066C
:100020000C9477060C9477060C94080F0C94CC0E65
:100030000C94EB1D0C9477060C9477060C947706C1
:100040000C9477060C9477060C9477060C9477063C
:100050000C9477060C94841E0C9477060C94770607
:100060000C9477060C9477060C9477060C9477061C
:100070000C9477060C9477060C9477060C9477060C
:100080000C9477060C9477060C9477060C947706FC
:100090000C9477060C9477060C9477060C947706EC
:1000A0000C9477060C9477060C94770629141A089A
:1000B00015171C180C12132A2B041607090A0B0D0E
:1000C0000E0F0028E0001D1B061905111033C1C0DA
:1000D00000E1E200C22C003637343800290101016A
:1000E0000101010101010101010101010101010100
:1000F0000101000101000101010101010101C1C073
:1001000000010100C201005052514F00351E1F2056
:10011000212223242526274C394A01014B4A2D2E22
:100120002F30002801004DC9494E4D333133C1C035
:1001300000010100C22C005052514F00291E1F2007
:10014000212223242526274C4A2122234BC3C4C520
:10015000080C00C74D002425264E460E1033C1C0A2
:1001600000E12700C2C6005052514F0029141A085E
:1001700015171C180C12132A2B041607090A0B0D4D
:100180000E0F0028E1001D1B061905111033C1C018
:1001900000E0E200C22C00363734380029141A0877
:1001A00015171C180C12132A2B0416E1E5480B0D29
:1001B0000E0F0028E0001D1B061905111033C1C0E9
:1001C00000E1E200C22C003637343800F1A2028A86
:1001D000088A218A048AF3A0F3A0228A0A00253023
:1001E000313662003A200025303258000A722F63FF
:1001F0002030313233343536373839414243444583
:10020000460A000A002530325800626F756E636539
:10021000213A20005B735D004B6579626F61726407
:100220002073746172742E0A0055534220636F6EFE
:10023000666967757265642E0A005B575D005B53E3
:100240005D005B525D005B445D005B435D0005014A
:100250000906A101050719E029E715002501950800
:1002600075018102950175088101050819012905AB
:100270009505750191029501750391010507190016
:1002800029FF150025FF950675088100C0050109A5
:1002900002A1010901A1000509190129051500257F
:1002A000019505750181029501750381010501091B
:1002B0003009311581257F950275088106093815A9
:1002C00081257F950175088106050C0A3802158184
:1002D000257F950175088106C0C005010980A1012F
:1002E000850216010026B7001A01002AB700751012
:1002F00095018100C0050C0901A1018503160100CB
:10030000269C021A01002A9C02751095018100C0EA
:100310000631FF0974A1010975150025FF952075A7
:100320000881020976150025FF952075089102C005
:1003300005010906A101050719E029E715002501B6
:1003400095087501810205081901290595057501B2
:100350009102950175039101050719002977150090
:100360002501957875018102C0120110010000007D
:1003700008EDFE606001000102000109028D000528
:100380000100A0320904000001030101000921114C
:10039000010001223F000705810308000A0904014A
:1003A000000103010200092111010001224D000793
:1003B00005820308000A0904020001030000000985
:1003C00021110100012236000705830308000A09F4
:1003D0000403000203000000092111010001222092
:1003E000000705840320000107050403200001091C
:1003F0000404000103000000092111010001223959
:1004000000070585031000010403090422035000BE
:1004100061006E006300200049006E0074006500FA
:1004200072006100630074006900760065000000DE
:1004300012035300650062007200690067006800E3
:10044000740000000A002530325820006B65796284
:100450006F6172645F7265706F72743A20000A0097
:1004600025303258006B6579626F6172645F736525
:10047000745F6C65643A200064656C5F6B65795FDE
:100480006269743A2063616E27742064656C3A2057
:10049000253032580A006164645F6B65795F626978
:1004A000743A2063616E2774206164643A202530B9
:1004B00032580A00646F6E652E0A00626F6F746DA9
:1004C00061676963207363616E3A202E2E2E2000CF
:1004D000290A002575002F002575005D2800256478
:1004E0000020002564002000256400200025640011
:1004F0007C0025303258006D6F7573656B6579200F
:100500005B62746E7C782079207620685D28726545
:10051000702F61636C293A205B003F004E4B524FB5
:100520003A206F66660A004E4B524F3A206F6E0AB1
:100530000074696D65725F72656164333228293AAF
:10054000202530346C580A006B6579626F617264E3
:100550005F6E6B726F3A2025580A006B6579626F87
:100560006172645F69646C653A2025580A006B65A6
:1005700079626F6172645F70726F746F636F6C3AEF
:100580002025580A00686F73745F6B6579626F612C
:1005900072645F6C65647328293A2025580A000A42
:1005A000092D20537461747573202D0A004743434D
:1005B0003A20342E332E33204156522D4C4942439B
:1005C0003A20312E362E37204156525F4152434851
:1005D0003A20617672350A004F5054494F4E533AD3
:1005E000204C55464120424F4F544D4147494320EE
:1005F0004D4F5553454B45592045585452414B4555
:100600005920434F4E534F4C4520434F4D4D414E83
:1006100044204E4B524F20343039360A004255495F
:100620004C443A20756E6B6E6F776E202831383AE5
:1006300035393A353320417072203134203230312F
:1006400036290A005649443A203078464545442820
:1006500050616E6320496E7465726163746976657A
:1006600029205049443A20307836303630285365B6
:1006700062726967687429205645523A2030783092
:100680003030310A00444553433A20742E6D2E6BAE
:100690002E206B6579626F617264206669726D7776
:1006A00061726520666F7220536562726967687453
:1006B0000A000A092D2056657273696F6E202D0A93
:1006C000000A6D6F7573653A206F66660A000A6DE1
:1006D0006F7573653A206F6E0A000A6B6579626FF9
:1006E0006172643A206F66660A000A6B6579626F10
:1006F0006172643A206F6E0A000A6D6174726978E3
:100700003A206F66660A000A6D61747269783A2051
:100710006F6E0A000A64656275673A206F6E0A00A0
:100720000A64656275673A206F66660A000A0A62A3
:100730006F6F746C6F616465722E2E2E2000433EC5
:1007400020006565636F6E6669673A0A000A0025D6
:1007500075002E6E6B726F3A20000A002575002E10
:10076000737761705F6261636B736C6173685F6202
:1007700061636B73706163653A20000A0025750040
:100780002E737761705F67726176655F6573633A38
:1007900020000A002575002E6E6F5F6775693A208C
:1007A000000A002575002E737761705F72616C74AA
:1007B0005F726775693A20000A002575002E73770D
:1007C00061705F6C616C745F6C6775693A20000AD8
:1007D000002575002E636170736C6F636B5F746FBF
:1007E0005F636F6E74726F6C3A20000A00257500AB
:1007F0002E737761705F636F6E74726F6C5F63618D
:1008000070736C6F636B3A20000A00253032580019
:100810006B65796D61705F636F6E6669672E72617B
:10082000773A20000A002575002E6D6F7573653AC2
:1008300020000A002575002E6B6579626F61726475
:100840003A20000A002575002E6D61747269783AAD
:1008500020000A002575002E656E61626C653A20E5
:10086000000A00253032580064656275675F636F67
:100870006E6669672E7261773A20000A002575005E
:1008800064656661756C745F6C617965723A2000AD
:100890000A092D204D61676963202D0A643A0964B5
:1008A000656275670A783A096465627567206D61EB
:1008B000747269780A6B3A096465627567206B65C2
:1008C00079626F6172640A6D3A09646562756720C6
:1008D0006D6F7573650A763A0976657273696F6E26
:1008E0000A733A097374617475730A633A09636F22
:1008F0006E736F6C65206D6F64650A302D343A0934
:100900006C61796572302D34284631302D4634299A
:100910000A506175733A09626F6F746C6F61646538
:10092000720A653A09656570726F6D0A6E3A094E12
:100930004B524F0A000A092D20436F6E736F6C658E
:10094000202D0A4553432F713A09717569740A6D58
:100950003A096D6F7573656B65790A004C25640AF9
:1009600000433E20003F004D3E20007768657265E1
:100970002064656C74613A20637572736F723D25F3
:10098000642C20776865656C3D25640A5365652095
:10099000687474703A2F2F656E2E77696B69706575
:1009A0006469612E6F72672F77696B692F4D6F7560
:1009B00073655F6B6579730A000A092D204D6F75A9
:1009C00073656B6579202D0A4553432F713A097180
:1009D0007569740A313A0964656C6179282A313085
:1009E0006D73290A323A09696E74657276616C28F2
:1009F0006D73290A333A096D61785F7370656564B8
:100A00000A343A0974696D655F746F5F6D61780AC5
:100A1000353A09776865656C5F6D61785F737065FD
:100A200065640A363A09776865656C5F74696D6557
:100A30005F746F5F6D61780A0A703A097072696E4F
:100A4000742076616C7565730A643A097365742065
:100A500064656661756C74730A75703A092B310AA6
:100A6000646F776E3A092D310A706775703A092BF9
:100A700031300A7067646F776E3A092D31300A0A97
:100A80007370656564203D2064656C7461202A2064
:100A90006D61785F7370656564202A2028726570C7
:100AA000656174202F2074696D655F746F5F6D617F
:100AB00078290A004D3E004D25643E20003F00731A
:100AC00065742064656661756C740A00433E20009D
:100AD0000A00257500363A20776865656C5F746991
:100AE0006D655F746F5F6D61783A20000A0025754F
:100AF00000353A20776865656C5F6D61785F73706B
:100B00006565643A20000A00257500343A2074694E
:100B10006D655F746F5F6D61783A20000A0025751E
:100B200000333A206D61785F73706565643A200028
:100B30000A00257500323A20696E74657276616C20
:100B4000286D73293A20000A00257500313A206487
:100B5000656C6179282A31306D73293A20000A09C1
:100B60002D2056616C756573202D0A006D6B5F77C3
:100B70006865656C5F74696D655F746F5F6D6178E2
:100B8000203D2025640A006D6B5F776865656C5FAA
:100B90006D61785F7370656564203D2025640A008F
:100BA0006D6B5F74696D655F746F5F6D6178203D1B
:100BB0002025640A006D6B5F6D61785F73706565F9
:100BC00064203D2025640A006D6B5F696E74657258
:100BD00076616C203D2025640A006D6B5F64656C56
:100BE0006179203D2025640A006D6B5F776865653B
:100BF0006C5F74696D655F746F5F6D6178203D2017
:100C000025640A006D6B5F776865656C5F6D617860
:100C10005F7370656564203D2025640A006D6B5F1D
:100C200074696D655F746F5F6D6178203D20256428
:100C30000A006D6B5F6D61785F7370656564203D60
:100C40002025640A006D6B5F696E74657276616C55
:100C5000203D2025640A006D6B5F64656C6179201E
:100C60003D2025640A0011241FBECFEFDAE0DEBF6D
:100C7000CDBF04B603FE24C08091BE019091BF0198
:100C8000A091C001B091C1018750904BA740B04BDB
:100C9000B9F41092BE011092BF011092C0011092DF
:100CA000C10114BE84B7877F84BF88E10FB6F89472
:100CB00080936000109260000FBEE0E0F8E30995B9
:100CC00011E0A0E0B1E0ECEAFAE502C005900D9277
:100CD000A631B107D9F711E0A6E1B1E001C01D923C
:100CE000AE3BB107E1F70E94D60A0C94542D0C9448
:100CF0000000FF93EF93E0911601F09117013097F8
:100D000009F00995EF91FF910895FC0185918030DC
:100D100011F0EFDFFBCF0895FF27E0E230E247FF5D
:100D20000CC0419597FF09C0EDE2609570958095E4
:100D30009095611D711D811D911D27FF02C0219598
:100D400030E350E2AA27660F771F881F991FAA1F5A
:100D5000A41710F0A41B63955A95A9F7AA3008F0C0
:100D6000A95FA05DAF93F3956115710581059105AC
:100D700041F7ED3211F4EF93F395F21718F43F9326
:100D8000F395FBCF8F91B5DFFA95E1F70895E991DF
:100D9000F9918591803021F0853219F0AADFF9CFE1
:100DA000089520E0E89455915532C1F3503311F481
:100DB000689455915A3348F4505390F3220F022E01
:100DC000220F220F200D250FF4CF0EF421958991CB
:100DD0009991533619F3533729F1533559F1BC0121
:100DE00088279927E8945C3621F489919991689431
:100DF0005591543639F446EF7EF077FF0DC08FEFF2
:100E00009FEF0AC055374AE039F0583540E121F0EC
:100E1000523642E009F00895FF93EF937DDFEF91A2
:100E2000FF91B7CFFF93EF93FC0181918030B9F32D
:100E300060DFFBCFFF93EF9368DFF1CFDF93CF93BA
:100E4000CDB7DEB72596A3DFCF91DF9108959CE063
:100E5000799FF0011124E60FF11D90E3899FC001F5
:100E60001124E80FF91FE455FF4FE4918E2F0895E8
:100E7000E82FF0E0EE0FFF1FE45BFF4F2591349168
:100E8000C9010895E82FF0E0EE0FFF1FE85EFE4F66
:100E900080819181089580B38C7C80BB81B38C7CF0
:100EA00081BB08950E944B0780B38F7380BB81B3D1
:100EB000806C81BB84B18F7884B985B1806785B936
:100EC0008AB180778AB98BB18F688BB987B18F73FC
:100ED00087B988B1806C88B980E090E0FC01E85E59
:100EE000FE4F11821082FC01E05EFE4F11821082E3
:100EF00002968830910591F708952F923F924F9274
:100F00005F926F927F928F929F92AF92BF92CF9299
:100F1000DF92EF92FF920F931F93CF93DF9360E2E4
:100F2000A62E61E0B62EDD2455E0C52E22242394A2
:100F3000D21469F0D21440F042E0342ED31451F0B0
:100F400083E0D81661F409C0809A889808C0819A15
:100F5000899805C0849A8C9802C0859A8D9880EAF9
:100F60008A95F1F72FB18FB1682F772767FD7095BC
:100F7000609570956627770F661F7727660F771F36
:100F80001E9904C084E0482E512C02C044245524EC
:100F90001D9904C008E0602E712C02C066247724DD
:100FA0001C9904C010E1812E912C02C08824992440
:100FB00089B1482F552747FD5095409550954427B6
:100FC000550F441F5527A5E0440F551FAA95E1F77B
:100FD00086B1992787FD9095809590958827990FE0
:100FE000881F9927E6E0880F991FEA95E1F736995F
:100FF00004C030E8E32EF12C02C0EE24FF244B990C
:1010000003C000E011E002C000E010E04A9903C014
:10101000C0E0D2E002C0C0E0D0E0499903C0A0E047
:10102000B4E002C0A0E0B0E0489903C0E0E0F8E01E
:1010300002C0E0E0F0E030E0689415F836952795BE
:101040001694E1F72224332423942225332521709A
:101050003070262B372B2429352926293729282992
:101060003929242B352B282B392B2E293F29202BAE
:10107000312B2C2B3D2B2A2B3B2B2E2B3F2BD50101
:101080008D919C91119782179307A9F12D933C9311
:1010900080910001882369F180919F0180FF04C045
:1010A0008AE092E00E94850680919F0180FF19C02E
:1010B00000D000D0EDB7FEB7319625E0222E22E019
:1010C000322EADB7BEB712963C922E9211978091F8
:1010D0000001828313820E941E070F900F900F90D1
:1010E0000F9080919F0180FF04C083E092E00E94F6
:1010F0008506C09200010E944B07D39482E090E0E5
:10110000A80EB91E94E0D91609F010CF8091000105
:10111000882351F1815080930001882329F080EACF
:101120009FE00197F1F720C080912001909121016B
:1011300090931901809318018091220190912301CD
:1011400090931B0180931A018091240190912501B5
:1011500090931D0180931C0180912601909127019D
:1011600090931F0180931E0181E0DF91CF911F9129
:101170000F91FF90EF90DF90CF90BF90AF909F9036
:101180008F907F906F905F904F903F902F90089539
:10119000CF92DF92EF92FF920F931F93CF93DF9343
:1011A0008CEE91E00E94850608E111E0C0E0D0E0FD
:1011B000E7EECE2EE1E0DE2E7EEDE72E71E0F72E9B
:1011C00000D000D0EDB7FEB7D282C182D483C383F2
:1011D0000E941E070F900F900F900F9084EE91E0E9
:1011E0000E948506F801819191918F010E94B01DA6
:1011F00000D000D0EDB7FEB7F282E1829483838302
:101200000E941E070F900F900F900F908CED91E0B1
:101210000E9485062196C430D10591F6DF91CF91C9
:101220001F910F91FF90EF90DF90CF90089581FF75
:1012300002C0229A01C022982A98089580912C0118
:101240008F5F80932C0162E30E94F02C9923A9F513
:1012500010922C0180912A01882379F18091B401A8
:10126000843049F59091E9008091EC0080FD02C046
:1012700080E001C080E89F70982B84E08093E900B3
:101280008091EB0080FF14C08091EE0087FD03C0C9
:101290000FC01092F1008091E80085FDFACF809197
:1012A000E80080FF05C08091E8008E778093E80019
:1012B0009F709093E90010922A010895809129016E
:1012C0000895682F8FB7F89410922A018FBF8091EC
:1012D000B401843011F08FEF08959091E90080916E
:1012E000EC0080FD02C080E001C080E8392F3F7033
:1012F000382B84E08093E9008091EB0080FF43C0AD
:101300008091EE0087FF3FC080912B01882321F060
:101310008091E80085FF37C010922B0125E040EA5C
:101320005FE012C08091B401843069F58091EB00D8
:1013300085FD29C0222321F481E080932B0123C065
:101340002150CA010197F1F78091E80085FFEACFAB
:101350006093F1008091E80085FD0AC08091E8006B
:1013600080FFFCCF8091E8008E778093E80006C074
:101370009FB7F89481E080932A019FBF3F7030931C
:10138000E90080E008953F703093E9008FEF089501
:10139000DF93CF9300D00F92CDB7DEB7AC01809131
:1013A000B401843029F583E08093E9002FEF95EDB7
:1013B00005C0892F8A95F1F7222329F08091E80052
:1013C000215085FFF6CF8091E80085FF11C05B8337
:1013D0004A8383E08983CE01019663E070E040E0B8
:1013E00050E00E946E0D8091E8008E778093E800B7
:1013F0000F900F900F90CF91DF910895DF93CF93CF
:1014000000D00F92CDB7DEB7AC018091B40184302B
:1014100029F583E08093E9002FEF95ED05C0892F32
:101420008A95F1F7222329F08091E800215085FF69
:10143000F6CF8091E80085FF11C05B834A8382E08C
:101440008983CE01019663E070E040E050E00E94A5
:101450006E0D8091E8008E778093E8000F900F90DA
:101460000F90CF91DF910895AC018091B401843049
:1014700001F582E08093E9002FEF95ED05C0892FFB
:101480008A95F1F7222329F08091E800215085FF09
:10149000F6CF8091E80085FF0CC0CA0165E070E0DE
:1014A00040E050E00E946E0D8091E8008E778093BE
:1014B000E80008950F931F93182F092F8091B4010E
:1014C000843009F04DC0809101018823E9F08091BA
:1014D0000C018823C9F085E08093E9009FEF25E1A6
:1014E00005C0822F8A95F1F7992329F08091E800B1
:1014F000915085FFF6CF8091E80085FF31C0812FA4
:10150000902F60E170E018C081E08093E9009FEFC8
:1015100025ED05C0822F8A95F1F7992329F0809156
:10152000E800915085FFF6CF8091E80085FF18C054
:10153000812F902F68E070E040E050E00E946E0D37
:101540008091E8008E778093E800ADE2B1E0212F32
:10155000302FC901FC0180E101900D928150E1F72B
:101560001F910F9108958EE392E00E9485060895E1
:1015700082E492E00E948506089586E492E00E944B
:1015800085061092B30108958AE492E00E948506D0
:101590008091B301882349F40E944C0E0E94AD0E45
:1015A0008091E20084608093E200089584B7877F91
:1015B00084BF88E10FB6F8948093600010926000B9
:1015C0000FBE80E090E020E80FB6F8942093610011
:1015D000809361000FBE0E94E8110E944C0E0E9491
:1015E000AD0E8091E20084608093E20081E699E094
:1015F0000E94891D78948091B4018430E1F789E2DA
:1016000092E00E9485060E94CC1282E091E00E9446
:101610004A1188E192E00E94850610C084E192E0C0
:101620000E9485060E94C31D8091B201882331F07B
:101630000E94171E882311F00E94830C8091B40130
:10164000853061F30E941D12F9CF8091B60183307D
:1016500009F457C0843030F4813071F0823009F0E1
:10166000B1C098C08A3009F485C08B3009F46AC0D3
:10167000893009F0A7C020C08091B501813A09F0F6
:10168000A1C08091E800877F8093E8008091B90134
:101690009091BA01892B21F48DE291E060E103C0C1
:1016A00080E090E060E070E00E94990C8091E8009A
:1016B0008B778093E80008958091B501813209F01D
:1016C00081C08091B9019091BA01009719F00497F7
:1016D00009F078C08091E800877F8093E80005C01A
:1016E0008091B401882309F46DC08091E80082FFE5
:1016F000F7CF8091F100809329018091E8008B77EA
:101700001CC08091B501813A09F05CC08091B9019B
:101710009091BA01892B09F055C08091E800877F2C
:101720008093E8008091E80080FFFCCF8091010168
:101730008093F1008091E8008E778093E8000E940A
:10174000F90D08958091B5018132E1F58091B901DB
:101750009091BA01892BB1F58091E800877F809341
:10176000E8000E94F90D8091B701809301010E9469
:10177000321308958091B501813221F58091E800FE
:10178000877F8093E8000E94F90D8091B8018093D3
:10179000280108958091B501813AA1F48091E80073
:1017A000877F8093E8008091E80080FFFCCF8091E4
:1017B00028018093F1008091E8008E778093E80003
:1017C0000E94F90D089581E061EC42E00E94C10D94
:1017D00082E061EC42E00E94C10D83E061EC42E0F6
:1017E0000E94C10D84E061EC42E20E94C10D85E0DF
:1017F00061EC42E10E94C10D08958AE392E00E94EB
:1018000085060E94141E0895DA019330C1F09430C9
:1018100030F4913051F0923009F06DC00BC091322C
:1018200021F1923209F067C03FC0E9E6F3E022E11E
:1018300030E065C0EBE7F3E02DE830E060C08130D8
:1018400051F0813020F0823009F055C008C0E8E046
:10185000F4E0849107C0ECE0F4E0849103C0E0E39D
:10186000F4E08491282F30E04AC06230A1F0633068
:1018700028F4662341F06130F1F508C0633071F05F
:101880006430C9F50EC0EDE8F3E002C0E6EAF3E02B
:1018900029E030E034C0EFEBF3E0FACFE8EDF3E01D
:1018A000F7CFE8EFF3E0F4CF6230B1F0633028F423
:1018B000662341F06130F9F40AC0633091F064307E
:1018C000D1F414C0EEE4F2E02FE330E018C0EDE80C
:1018D000F2E02DE430E013C0EAEDF2E026E330E080
:1018E0000EC0E0E1F3E020E230E009C0E0E3F3E025
:1018F00029E330E004C0E0E0F0E020E030E0ED93E8
:10190000FC93C901089580E189BD82E189BD09B4D4
:1019100000FEFDCF8091D8008F7D8093D80080910C
:10192000E00082608093E0008091E00081FDFCCFC8
:1019300008959C014091BB015091BC014617570787
:1019400018F4F90190E043C06115710511F0AB0185
:10195000F8CF8091E8008E778093E80040E050E077
:10196000F0CF8091B401882309F447C0853009F491
:1019700046C08091E80083FD44C08091E80082FD6C
:1019800036C08091E80080FF22C08091F3009091E2
:10199000F200782F60E0292F30E0262B372B07C08C
:1019A00081918093F100415050402F5F3F4F41158E
:1019B000510519F02830310598F390E028303105B1
:1019C00009F491E08091E8008E778093E80041155A
:1019D000510539F6992329F60AC08091B40188236C
:1019E00061F0853061F08091E80083FD0AC080914C
:1019F000E80082FFF2CF80E0089582E0089583E05E
:101A0000089581E008959C014091BB015091BC0173
:101A10004617570718F4F90190E044C061157105A5
:101A200011F0AB01F8CF8091E8008E778093E80049
:101A300040E050E0F0CF8091B401882309F448C021
:101A4000853009F447C08091E80083FD45C080914E
:101A5000E80082FD37C08091E80080FF23C08091BC
:101A6000F3009091F200782F60E0292F30E0262BD0
:101A7000372B08C084918093F1003196415050403B
:101A80002F5F3F4F4115510519F02830310590F374
:101A900090E02830310509F491E08091E8008E77DC
:101AA0008093E8004115510531F6992321F60AC0CB
:101AB0008091B401882361F0853061F08091E80065
:101AC00083FD0AC08091E80082FFF2CF80E0089594
:101AD00082E0089583E0089581E00895BF92CF9257
:101AE000DF92EF92FF920F931F93CF93DF93182F04
:101AF000092F7B016A010E941A0EB82E8823B1F5C6
:101B0000812F902F9C01E901C114D10439F0F60115
:101B100080819181E81AF90AC80FD91F00E010E00E
:101B200022C08091E80085FD16C08091E8008E7784
:101B30008093E800C114D10449F0F60180819181BD
:101B4000800F911F9183808385E011C00E941A0E3F
:101B5000882349F00CC089918093F1000894E10832
:101B6000F1080F5F1F4FE114F104D9F68B2DDF91BF
:101B7000CF911F910F91FF90EF90DF90CF90BF908A
:101B80000895382F282F2EC0822F8F708093E90060
:101B9000231721F4762F942F50E006C07091EC00AB
:101BA0009091ED005091F00091FF1BC08091EB00EF
:101BB0008E7F8093EB008091ED008D7F8093ED0010
:101BC0008091EB0081608093EB007093EC00909328
:101BD000ED005093F0008091EE0087FD02C080E0A0
:101BE00008952F5F273080F23F703093E90081E045
:101BF00008958091B50188239CF404C08091B401BC
:101C00008823B9F08091E80082FFF8CF8091E80046
:101C10008B778093E80008958091B401882349F080
:101C20008091E80080FFF8CF8091E8008E77809364
:101C3000E80008954091E4005091E50024E6809189
:101C4000EC0080FF24C08091E80080FD1EC08091E0
:101C5000B401882311F482E00895853011F483E003
:101C600008958091EB0085FF02C081E00895809186
:101C7000E4009091E5008417950709F3222311F4FD
:101C800084E008952150AC01DACF80E0089580917E
:101C9000E80082FFDCCFF9CF0E94BF0E0E94C70E82
:101CA000E0EEF0E0808181608083A8EDB0E08C916F
:101CB0008F778C9319BCE7EDF0E080818E7F808375
:101CC0008C918F7E8C931092B3010895EF92FF92C6
:101CD0000F931F930E94BF0E0E94C70E08ED10E0E5
:101CE000F80180818F778083808180688083808104
:101CF0008F7D808319BC1092B4011092B0011092B4
:101D0000B2011092B10180EEE82EF12CF701808132
:101D10008B7F8083F80180818160808380E060E038
:101D200042E00E94C10DE1EEF0E080818E7F808371
:101D3000E2EEF0E080818160808380818860808332
:101D4000F70180818E7F8083F801808180618083AC
:101D50001F910F91FF90EF900895E8EDF0E08081E2
:101D60008F7E8083E7EDF0E080818160808384E076
:101D700082BF81E08093B3010E94660E0895E8ED72
:101D8000F0E080818E7F80831092E20008951092AF
:101D9000DA001092E10008951F920F920FB60F9291
:101DA00011241F932F933F934F935F936F937F93D0
:101DB0008F939F93AF93BF93EF93FF931091E9009D
:101DC0008091EC001092E9008091F000877F809371
:101DD000F00078940E94DA0F1092E9008091F000F0
:101DE00088608093F0001F701093E900FF91EF91DD
:101DF000BF91AF919F918F917F916F915F914F9123
:101E00003F912F911F910F900FBE0F901F9018952B
:101E10001F920F920FB60F9211242F933F934F935F
:101E20005F936F937F938F939F93AF93BF93EF9342
:101E3000FF938091E10082FF0BC08091E20082FF5E
:101E400007C08091E1008B7F8093E1000E941E0912
:101E50008091DA0080FF1FC08091D80080FF1BC0F6
:101E60008091DA008E7F8093DA008091D90080FF24
:101E70000DC080E189BD82E189BD09B400FEFDCFBE
:101E800081E08093B4010E94C40A05C019BC10927D
:101E9000B4010E94BD0A8091E10080FF19C08091C9
:101EA000E20080FF15C08091E2008E7F8093E20007
:101EB0008091E20080618093E2008091D80080628E
:101EC0008093D80019BC85E08093B4010E94B30AC6
:101ED0008091E10084FF30C08091E20084FF2CC03B
:101EE00080E189BD82E189BD09B400FEFDCF80910A
:101EF000D8008F7D8093D8008091E1008F7E809301
:101F0000E1008091E2008F7E8093E2008091E20008
:101F100081608093E2008091B001882311F084E019
:101F200007C08091E30087FD02C081E001C083E02B
:101F30008093B4010E94FD0B8091E10083FF29C0D2
:101F40008091E20083FF25C08091E100877F80932C
:101F5000E10082E08093B4011092B0018091E10031
:101F60008E7F8093E1008091E2008E7F8093E2007B
:101F70008091E20080618093E20080E060E042E0D6
:101F80000E94C10D8091F00088608093F0000E9453
:101F9000B80AFF91EF91BF91AF919F918F917F917F
:101FA0006F915F914F913F912F910F900FBE0F90C6
:101FB0001F9018951F93DF93CF93CDB7DEB7AC97E3
:101FC0000FB6F894DEBF0FBECDBFE5EBF1E0809118
:101FD000F100819321E0ED3BF207C9F70E94250B48
:101FE0008091E80083FF3EC18091B5013091B60138
:101FF000353009F487C0363040F43130C9F1313022
:1020000070F0333009F02EC133C0383009F4F9C014
:10201000393009F409C1363009F024C197C080383D
:1020200021F0823809F01EC108C09091B101809161
:10203000B201882399F0926011C08091B9018F702C
:102040008093E9008091EB0090E025E096958795DC
:102050002A95E1F7982F91701092E9008091E8009D
:10206000877F8093E8009093F1001092F100D4C034
:10207000882319F0823009F0F5C090E08F719070DC
:10208000009721F0029709F0EDC00CC08091B701D4
:10209000813009F0E7C01092B201333069F58093C6
:1020A000B2012AC08091B701882331F52091B9018E
:1020B0002F7009F4D7C02093E9008091EB0080FFD6
:1020C0001BC0333021F48091EB00806213C08091FB
:1020D000EB0080618093EB0081E090E002C0880F0C
:1020E000991F2A95E2F78093EA001092EA00809106
:1020F000EB0088608093EB001092E9008091E8008B
:10210000877F8DC0882309F0ADC01091B7011F777C
:102110008091E3008078812B8093E3008091E80038
:10212000877F8093E8000E94F90D8091E80080FF8E
:10213000FCCF8091E30080688093E300112311F4C9
:1021400082E001C083E08093B4018CC0805882306B
:1021500008F088C08091B7019091B80123E08C3DD0
:10216000920709F034C083E08C838AE28B837FB7C7
:10217000F894DE0115966EE040E050E011E2E62FA3
:10218000F0E010935700849140FF03C082958F7058
:102190006F5F8F70282F30E08A3018F0C901C79622
:1021A00002C0C901C0968D939D934F5F5F4F44312C
:1021B000510529F77FBF8091E800877F8093E80071
:1021C000CE0103966AE270E00E94990C14C06091FF
:1021D000B901AE014F5F5F4F0E94040CBC01009734
:1021E00009F440C08091E800877F8093E8008981EE
:1021F0009A810E94030D8091E8008B778093E8001C
:1022000031C0803879F58091E800877F8093E800BD
:102210008091B0018093F1008091E8008E778093E7
:10222000E8000E94F90D1EC08823E1F49091B701E7
:102230009230C0F48091E800877F8093E80090930B
:10224000B0010E94F90D8091B001882331F4809192
:10225000E30087FD02C081E001C084E08093B40107
:102260000E94E30B8091E80083FF0AC08091E800A0
:10227000877F8093E8008091EB0080628093EB0081
:10228000AC960FB6F894DEBF0FBECDBFCF91DF91F5
:102290001F91089590934201809341010895E09128
:1022A0004101F0914201309711F480E008950190CE
:1022B000F081E02D09950895E0914101F0914201EE
:1022C000309721F00480F581E02D099508959C0157
:1022D00080913F01909140012817390779F03093A0
:1022E000400120933F01E0914101F091420130977C
:1022F00029F00680F781E02DC901099508959C0118
:1023000080913D0190913E012817390779F0309373
:102310003E0120933D01E0914101F091420130974F
:1023200029F00084F185E02DC90109950895EF9207
:10233000FF920F931F93CF93DF93182F092FE091F4
:102340004101F09142013097D9F10280F381E02DF3
:10235000099580919F0182FF33C080FF04C08CE407
:1023600094E00E948506812F902F9C01E90110E0E6
:1023700086E4E82E84E0F82E80919F0180FF14C04F
:1023800000D000D0EDB7FEB73196ADB7BEB712960C
:10239000FC92EE9211978881828313820E941E071D
:1023A0000F900F900F900F901F5F2196103121F723
:1023B00080919F0180FF04C084E494E00E94850620
:1023C000DF91CF911F910F91FF90EF9008950895A5
:1023D0000E94E71108951F93182F80919F0182FF9B
:1023E00027C080FF04C085E694E00E9485068091A6
:1023F0009F0180FF15C000D000D0EDB7FEB7319629
:1024000080E694E0ADB7BEB712969C938E93119779
:10241000128313820E941E070F900F900F900F904F
:1024200080919F0180FF04C08EE594E00E948506A4
:10243000812F0E9417091F9108952F923F925F925A
:102440006F927F928F929F92AF92BF92CF92DF92C4
:10245000EF92FF920F931F93DF93CF93CDB7DEB729
:102460002A970FB6F894DEBF0FBECDBF0E947D073E
:1024700024E4822E21E0922EAA24BB2491E0292E6E
:10248000312C5A2C8A2D0E9442076C01F401E08005
:10249000F180E826F926E114F104E1F180919F0131
:1024A00081FF02C00E94C80800E010E03101002E48
:1024B00002C0660C771C0A94E2F7C3018E219F21AB
:1024C000892B19F10E943E1E9C0109835A821B82AE
:1024D000C620D720CD2811F081E08B83C90181600F
:1024E000782F9D838C8349815A816B818D810E94D5
:1024F000A916F501EE0FFF1FEC5BFE4F8081918165
:10250000862597259183808321C00F5F1F4F0C3054
:10251000110561F60894A11CB11C82E090E0880EC0
:10252000991E94E0A916B10409F0ABCF0E943E1E9B
:102530002FEF2E832F8318868160782F9A878987C3
:102540004FEF5FEF60E08A850E94A9160E94102479
:10255000109143010E944F11181731F00E944F1142
:10256000809343010E94EB112A960FB6F894DEBFC8
:102570000FBECDBFCF91DF911F910F91FF90EF90D4
:10258000DF90CF90BF90AF909F908F907F906F9093
:102590005F903F902F9008950E94351E0E94520731
:1025A0000E9414200895DF93CF9300D000D00F92A3
:1025B000CDB7DEB70F900F900F900F900F90CF9187
:1025C000DF910895DF93CF9300D000D000D0CDB736
:1025D000DEB726960FB6F894DEBF0FBECDBFCF9103
:1025E000DF9108950E943B1B482F892F82958F70A1
:1025F000282F30E02C3031054CF42A3031056CF4B2
:102600002250304022303105C0F407C02C30310553
:1026100051F02F30310589F406C0403E10F0403FA4
:1026200061F481E008959F70892F90E023E09695F2
:1026300087952A95E1F78170089580E008950E94BA
:10264000A31C0E94721C0E94611D0E9434230E94E0
:10265000402380E090E00E94671180E090E00E94BB
:102660007F1108950E94931C0E941F1308958823D0
:1026700021F00E94891C0E94611D0895882321F089
:102680000E94831C0E94611D0895282F882309F44D
:102690004EC0823859F40E944F1181FF48C089E32F
:1026A0000E94091D0E94611D89E30CC0833869F4F2
:1026B0000E944F1180FF3BC083E50E94091D0E94CC
:1026C000611D83E50E94BB1C1FC0843859F40E9421
:1026D0004F1182FF2CC087E40E94091D0E94611DDA
:1026E00087E4F0CF8450813A10F4822FEBCF822F11
:1026F000805E883060F4277081E090E001C0880F30
:102700002A95EAF70E94891C0E94611D0895822F74
:10271000855A833028F480E090E00E946711089584
:10272000285A253120F480E090E00E947F1108951E
:102730001F93182F882309F4D0C0823859F40E94BF
:102740004F1181FDCAC089E30E94091D0E94611DCD
:1027500089E30CC0833879F40E944F1180FDBDC01D
:1027600083E50E94091D0E94611D83E50E94BB1C38
:102770000E94611DB2C0843859F40E944F1182FD3D
:10278000ACC087E40E94091D0E94611D87E4EECF62
:102790008450813A50F4812F0E94002A882309F046
:1027A0009CC0812F0E94091DE3CF812F805E88305D
:1027B00050F4177081E090E001C0880F1A95EAF795
:1027C0000E94831CD5CF812F855A8330A0F4153AFF
:1027D00019F481E890E00CC0163A19F482E890E010
:1027E00007C0173A19F080E090E002C083E890E05B
:1027F0000E94671172C0812F885A853108F06DC020
:10280000183A19F482EE90E066C0193A19F489EE8C
:1028100090E061C01A3A19F48AEE90E05CC01B3A6D
:1028200019F485EB90E057C01C3A19F486EB90E060
:1028300052C01D3A19F483EB90E04DC01E3A19F4D2
:1028400084EB90E048C01F3A19F487EB90E043C056
:10285000113B19F48CEC90E03EC0103B19F48DEC68
:1028600090E039C0123B19F483E891E034C0133B87
:1028700019F48AE891E02FC0143B19F482E991E041
:102880002AC0153B19F484E991E025C0163B19F4E0
:1028900081E292E020C0173B19F483E292E01BC072
:1028A000183B19F484E292E016C0193B19F485E252
:1028B00092E011C01A3B19F486E292E00CC01B3B77
:1028C00019F487E292E007C01C3B19F080E090E029
:1028D00002C08AE292E00E947F111F910895AF9298
:1028E000BF92CF92DF92EF92FF920F931F93DF93ED
:1028F000CF93CDB7DEB72A970FB6F894DEBF0FBEE1
:10290000CDBF5C01DE011196FC0185E001900D92C6
:102910008150E1F70B81F501F580F2944FE0F4224C
:10292000DE011696FE01319685E001900D928150F0
:10293000E1F73E812F8189859A85892B09F4F8C1B9
:102940002F3F09F0C8C13F3F09F0C5C1F1C18D2D2E
:102950008F70222311F4182F03C0182F1295107FA7
:10296000002349F0112309F490C1812F0E94961C85
:102970000E94611D8AC18C2D0E944513112309F408
:10298000D7C1812F0E949C1C0E94611DD1C18D2D39
:102990008F70203211F4182F03C0182F1295107F5A
:1029A000CC2021F0F1E0CF1629F514C0002349F026
:1029B000FF2051F121E0F21639F5812F0E94A61C6B
:1029C000B7C1FF2021F081E0F81609F4B1C10E94DF
:1029D000A91C2FC1002349F0E5E0EF1508F4A8C1B8
:1029E0000E94801C812381F024C1F4E0FF1508F4CB
:1029F0009FC11FC1002361F0FF2031F0F5018581E7
:102A000080FF43C18F708583812F0E943E1390C148
:102A1000FF2009F40EC144C18D2D869586958370E3
:102A200090E0009721F0019709F082C10AC00023CD
:102A300019F0C601937002C080E090E00E94671117
:102A400077C1002319F0C601937002C080E090E0C6
:102A50000E947F116DC1002321F08C2D0E94422223
:102A600003C08C2D0E94AC220E94402361C18D2D99
:102A7000837009F05EC0002309F05AC12C2D229505
:102A800026952770220F220F8C2D8F70E82EFF24A1
:102A900000E010E0022E04C0EE0CFF1C001F111F0E
:102AA0000A94D2F7C4FC05C060E070E080E090E0DA
:102AB0000FC06FE070E080E090E004C0660F771F09
:102AC000881F991F2A95D2F76095709580959095EB
:102AD000D694D694F3E0DF224D2D50E041305105DD
:102AE000A9F0423051051CF4452B49F021C1423078
:102AF000510589F04330510509F01AC113C06E2900
:102B00007F29802B912B0E944D1C12C16E297F2999
:102B1000802B912B0BC06E297F29802B912B0E943B
:102B20003C1C06C10E944D1CC801B7010E945E1CDE
:102B3000FFC090E0002311F496958795817009F409
:102B4000F7C02C2D229526952770220F220F8C2D51
:102B50008F70E82EFF2400E010E0022E04C0EE0C7F
:102B6000FF1C001F111F0A94D2F7C4FC05C060E0CF
:102B700070E080E090E00FC06FE070E080E090E0F7
:102B800004C0660F771F881F991F2A95D2F760959A
:102B9000709580959095D694D69423E0D2224D2DB1
:102BA00050E041305105A9F0423051051CF4452B4D
:102BB00049F0BEC04230510589F04330510509F05B
:102BC000B7C013C06E297F29802B912B0E94A01BB8
:102BD000AFC06E297F29802B912B0BC06E297F29D6
:102BE000802B912B0E948F1BA3C00E94A01BC801A9
:102BF000B7010E94B11B9CC080EFC816F1F08C1584
:102C000020F0E0EECE16E8F109C0F2EFCF1651F158
:102C1000CF1618F123EFC216A1F529C01C2D1F7085
:102C20008D2D8F71002319F00E94FE1BEDCE0E94A6
:102C3000DE1B812F0E9437137BC0002329F084E024
:102C40008F1508F475C004C0E5E0EF1508F470C0F6
:102C50008D2D8F710E94C21B6BC08D2D8F71002333
:102C600029F119C08D2D8F710023A9F01FC00023F9
:102C700029F08D2D8F710E941A1C5AC00E942A1CA7
:102C800057C0002359F0FF2021F08C2D0E9498138B
:102C90004FC08D2D8F710E94FE1B4AC0FF2021F076
:102CA0008C2D0E94451344C08D2D8F710E94DE1B18
:102CB0003FC0FFE0DF22C5016C2D4D2D0E94CD1ECF
:102CC0000E94A51A35C02FE0D222C5016C2D4D2DD2
:102CD0000E94D01E2DC089819A810E943B1B6C01ED
:102CE0000E943A1B0E94391B8D2D82958F7090E0B7
:102CF0008530910509F4AFCE8630910554F48430C7
:102D000091050CF089CE2D2D207F02970CF03FCE3F
:102D10001ECE8C3091053CF48A3091050CF06CCFBE
:102D2000089731F4A4CE8C30910519F20F9759F21F
:102D30002A960FB6F894DEBF0FBECDBFCF91DF91BC
:102D40001F910F91FF90EF90DF90CF90BF90AF90C9
:102D50000895DF93CF93CDB7DEB72B970FB6F894D6
:102D6000DEBF0FBECDBF342F4F83252F5887698715
:102D70007A878B87472F582FFE01319686E0DF0137
:102D80001D928A95E9F76B8339832A834C835D838F
:102D9000432F522F8D819E810E94E6192B960FB6EC
:102DA000F894DEBF0FBECDBFCF91DF9108950F9392
:102DB0001F930091530115C010E0F801EE0FFF1FA3
:102DC000E00FF11FEE0FFF1FEC5AFE4F40815181C3
:102DD00062817381848195810E94E2120F5F1F4F8F
:102DE000077080915201081739F71F910F910895CC
:102DF00040914C0150914D0160914E0170914F01F5
:102E000080915001909151010E94E21208950F9318
:102E10001F93CF93DF938091510182958F7009F0BA
:102E20006DC080914E01882309F468C06091530100
:102E30000091520140914F015091500110914D016C
:102E400070914C01EA01C095D09555C041155105CE
:102E500009F44FC01F3F49F480E090E07F3F11F438
:102E600081E090E0882309F044C0262F30E0F9018A
:102E7000EE0FFF1FE20FF31FDF01AA0FBB1FAC5ABB
:102E8000BE4F11968C911197181799F58C91781760
:102E900081F5EE0FFF1FEA5AFE4F8081882349F526
:102EA00013968D919C9114978417950718F0841BA5
:102EB000950B02C08C0F9D1F883C9105D0F480912A
:102EC00051018F70806180935101F901EE0FFF1F56
:102ED000E20FF31FEE0FFF1FE75AFE4F80818F7046
:102EE000806180838CE491E00E946F140E94D71669
:102EF00005C06F5F6770601709F0A8CFDF91CF91B1
:102F00001F910F910895DF92EF92FF920F931F93FD
:102F1000DF93CF93CDB7DEB76B970FB6F894DEBFD4
:102F20000FBECDBF8C01DC011296DC9012974C9144
:102F300011965C9111971396ED90FC901497209147
:102F40004F013091500160914D0170914C0121155C
:102F5000310509F4DBC16F3F09F003C27F3F09F07F
:102F600000C2D4C1E216F30640F0C701821B930BE6
:102F7000883C910508F0EEC008C0209530952E0DD4
:102F80003F1D283C310508F0E5C080915101807F4C
:102F900009F095C06F3F09F0EAC17F3F09F0E7C132
:102FA00015C0741799F4DD2089F4809151018F7058
:102FB0008061809351010E94F8168CE491E00E9498
:102FC0006F1480915101F8018583BCC1FD82EC82B0
:102FD0005A834983DB82DE011696FE01319685E035
:102FE00001900D928150E1F76885DE011B96FE018C
:102FF000369685E001900D928150E1F72C853B8556
:103000008E859F85892B09F451C02F3F09F0B3C1EC
:103010003F3F09F0B0C14AC0FD82EC825A83498328
:10302000DB82DE011B96FE01319685E001900D9258
:103030008150E1F7FC847B856D85809153019091EF
:1030400052011FC0282F30E0F901EE0FFF1FE20FE1
:10305000F31FDF01AA0FBB1FAC5ABE4F11968C9114
:103060001197F81651F48C91781739F4EE0FFF1F71
:10307000EA5AFE4F80816817C9F42F5F3F4F822FB5
:1030800087708917F9F68DC19F7059F0442349F470
:1030900059C19F7031F0D80115968C91807F09F449
:1030A00051C1405E483008F44DC148C1DD2009F4EB
:1030B00049C18091510181608093510143C16F3FAB
:1030C00009F05DC17F3F09F05AC114C0741791F433
:1030D000DD2081F480915101F8018583C8010E94AF
:1030E0006F14ACE4B1E0F80186E001900D928150DC
:1030F000E1F720C15A83498389819A810E94F212A3
:10310000882309F41BC1DD2009F418C13091510155
:10311000832F82958F7090E002979CF090914D01E3
:1031200020914C01FE01709686E0DF011D928A9588
:10313000E9F7998B288BFC8AEB8A3D8BCF010E94A3
:103140006F14ACE4B1E0F80186E001900D9281507B
:10315000E1F7EEC080915101807FA9F47E2DFD82C0
:10316000EC825A834983DB826D2D8D810E94D312BC
:103170000CE411E0C8010E946F1486E0F80111927E
:103180008A95E9F7C0C06F3F09F0FDC07F3F09F0A5
:10319000FAC014C0741791F4DD2081F480915101BC
:1031A000D80115968C93C8010E946F14ECE4F1E0ED
:1031B00086E0DF011D928A95E9F7BEC05A834983F4
:1031C00089819A810E94F212882309F4B7C0DD2018
:1031D00009F4B4C030915101832F82958F7090E033
:1031E00002979CF090914D0120914C01FE01769642
:1031F00086E0DF011D928A95E9F79F8B2E8BFA8E70
:10320000E98E3B8FCF010E946F14ACE4B1E0F8016E
:1032100086E001900D928150E1F78AC06F3F09F07E
:10322000B6C07F3F09F0B3C071C0E216F30640F0AC
:10323000C701821B930B883C910508F053C008C05E
:10324000209530952E0D3F1D283C310508F04AC0D1
:10325000DD2009F473C06F3F09F09FC07F3F09F084
:103260009CC029C0741739F59091510190FD1AC086
:10327000892F82958F70B1F0F80195838F3031F0EE
:103280008F5F8295807F9F70982B9583C8010E94E5
:103290006F14ACE4B1E0F80186E001900D9281502A
:1032A000E1F748C0ACE4B1E0F80186E001900D928E
:1032B0008150E1F741C05A83498389819A810E94F4
:1032C000F212882349F0ACE4B1E0F80186E0019005
:1032D0000D928150E1F72CC0809151018160809363
:1032E00051012CC07E2DFD82EC825A834983DB8202
:1032F0006D2D8D810E94D312ECE4F1E086E0DF01B8
:103300001D928A95E9F70E94F8161CC0DD20B1F0E5
:103310005A83498389819A810E94F212882371F02D
:10332000ACE4B1E0F80186E001900D928150E1F744
:103330000E9407170E94F81681E005C0C8010E948C
:103340006F14FACF80E06B960FB6F894DEBF0FBE15
:10335000CDBFCF91DF911F910F91FF90EF90DF9044
:10336000089580914E01882309F458CFFBCD65174D
:1033700009F02CCE16CE613009F498CE4DCE6517EB
:1033800009F0B8CEA3CE651709F018CF03CF80910E
:103390004E01882309F0BACF48CF651709F08BCFCB
:1033A00061CF5A83498389819A810E943B1B482FB0
:1033B000892F82958F70282F30E0223031050CF450
:1033C00063CE243031050CF0B9CF63CE0F931F9339
:1033D000DF93CF93CDB7DEB72C970FB6F894DEBF4F
:1033E0000FBECDBF4F83588769877A878B879C87AD
:1033F0008E01095F1F4FC8010E9483178823D9F0EF
:1034000028853F818A859B85892B09F46BC02F3FD6
:1034100049F480E090E03F3F11F481E090E08823A0
:1034200009F060C04F81588569857A858B859C85B8
:103430000E94E21257C0DE011196F80186E0019069
:103440000D928150E1F7F981EA814C815D8141154E
:10345000510509F447C0EF3F09F04CC0FF3F09F0A8
:1034600049C040C0F983EA835D834C83F901EE0FC4
:10347000FF1FE20FF31FEE0FFF1FEC5AFE4FDE019E
:10348000119686E00D9001928150E1F76093520110
:103490000E94D71627C0919FC00111248C5A9E4FBD
:1034A0000E948317882309F445C08091530190E05E
:1034B000FC01EE0FFF1FE80FF91FEE0FFF1FEC5A84
:1034C000FE4F4081518162817381848195810E9488
:1034D000E2128091530190E0019687709070809382
:1034E000530101C016E09091530180915201981749
:1034F00091F620C080915201282F30E02F5F3F4F7E
:10350000B90167707070215030408091530190E094
:103510006817790709F0A6CF0E9432131092520162
:1035200010925301ECE4F1E086E0DF011D928A95F0
:10353000E9F7D8CF2C960FB6F894DEBF0FBECDBFFB
:10354000CF91DF911F910F910895CF92DF92EF926B
:10355000FF920F931F93CF93DF93EC01009709F431
:103560007FC0EE24FF2480EAC82E8FE0D82E01E031
:1035700010E0FE0121969491953709F450C09637DA
:1035800060F4943708F040C0943008F057C0913090
:10359000B1F0923009F064C023C0983709F44BC0F1
:1035A000993738F4963709F43EC0973709F058C078
:1035B0003EC0892F8458803708F052C043C0FE01B6
:1035C00021969491892F805E883008F037C09770DB
:1035D000802F01C0880F9A95EAF70E94961C0FC0B1
:1035E000FE0121969491892F805E883058F497705F
:1035F000802F01C0880F9A95EAF70E949C1C0E94B8
:10360000611D24C0892F20C0FE01249104C0C60181
:103610000197F1F721502223D1F7219617C0FE011F
:103620002196E49013C00E94801CF82E0FC08F2DAD
:103630000E94901CE4CF0E94931CE1CF892F0E942E
:10364000981304C0892F8F770E9445132E2D04C034
:10365000C6010197F1F72150222309F48ACFF8CF50
:10366000DF91CF911F910F91FF90EF90DF90CF905E
:10367000089508950895CF92DF92EF92FF920F93ED
:103680001F93CF93DF936C01E0908401F09085014C
:1036900000918601109187018091880190918901A4
:1036A000A0918A01B0918B01E82AF92A0A2B1B2BE1
:1036B000CFE1D0E0D801C7010C2E04C0B695A79584
:1036C000979587950A94D2F781709070892B41F075
:1036D0008C2FB6010E943C1F9C018130910551F452
:1036E00021978FEFCF3FD80729F780E0B6010E94DE
:1036F0003C1F9C01822FDF91CF911F910F91FF9072
:10370000EF90DF90CF9008956093880170938901C6
:1037100080938A0190938B010E941F1308959B014F
:10372000AC01609188017091890180918A0190912A
:103730008B0162277327842795270E94841B089595
:103740009B01AC01609188017091890180918A018F
:1037500090918B0162237323842395230E94841B01
:1037600008959B01AC01609188017091890180915D
:103770008A0190918B01622B732B842B952B0E94D5
:10378000841B089521E030E040E050E004C0220FA7
:10379000331F441F551F8A95D2F78091880190915D
:1037A0008901A0918A01B0918B01282739274A27E6
:1037B0005B27CA01B9010E94841B089521E030E013
:1037C00040E050E004C0220F331F441F551F8A956C
:1037D000D2F7209530954095509580918801909131
:1037E0008901A0918A01B0918B01282339234A23B2
:1037F0005B23CA01B9010E94841B089521E030E0D7
:1038000040E050E004C0220F331F441F551F8A952B
:10381000D2F78091880190918901A0918A01B0919D
:103820008B01282B392B4A2B5B2BCA01B9010E9433
:10383000841B089521E030E040E050E004C0220FF6
:10384000331F441F551F8A95D2F7CA01B9010E9440
:10385000841B089560E070E080E090E00E94841B8B
:1038600008956093840170938501809386019093FD
:1038700087010E941F1308959B01AC016091840190
:10388000709185018091860190918701622773274D
:10389000842795270E94311C08959B01AC016091FB
:1038A0008401709185018091860190918701622346
:1038B0007323842395230E94311C08959B01AC013E
:1038C00060918401709185018091860190918701BA
:1038D000622B732B842B952B0E94311C08950E9420
:1038E000311C089581E090E0E0910D01F0910E010E
:1038F000E80FF91F1082019680319105A9F708950C
:1039000080919C01089590919C01982B90939C012B
:103910000895809590919C01982390939C0108951F
:1039200080939C01089510929C01089590919E01AE
:10393000982B90939E010895809590919E019823D5
:1039400090939E01089510929E01089580939D0189
:10395000089510929D010895E0910D01F0910E01DE
:1039600020E091E0818181112F5F9F5F319690313E
:10397000C9F7822F0895482F809101018823B9F15A
:1039800080910C01882399F1842F869586958695E0
:103990008F3098F4E0910D01F0910E01E80FF11DC8
:1039A000477081E090E002C0880F991F4A95E2F7C6
:1039B0008095218182238183089580919F0180FFDA
:1039C00027C000D000D0EDB7FEB7319688E794E06D
:1039D000ADB7BEB712969C938E9311974283138214
:1039E0000E941E070F900F900F900F90089520E0F7
:1039F00030E0E0910D01F0910E01E20FF31F8281A2
:103A0000841709F412822F5F3F4F2E30310589F75A
:103A10000895382F809101018823B1F180910C0124
:103A2000882391F1832F8695869586958F3090F423
:103A3000E0910D01F0910E01E80FF11D377081E06A
:103A400090E002C0880F991F3A95E2F72181282B58
:103A50002183089580919F0180FF32C000D000D063
:103A6000EDB7FEB7319686E994E0ADB7BEB71296D2
:103A70009C938E931197328313820E941E070F909E
:103A80000F900F900F900895A0910D01B0910E012D
:103A9000FD0120E08FEF9281931791F08F3F19F491
:103AA000992309F4822F2F5F31962E30A1F78F3F93
:103AB00039F0992787FD9095A80FB91F12963C936E
:103AC0000895E0910D01F0910E0180919C01808399
:103AD000E0910D01F0910E01808190919E01892B62
:103AE000808390919D01992369F0E0910D01F091FF
:103AF0000E018081892B80830E94AC1C882311F0E9
:103B00000E94A91C80910D0190910E010E949711B5
:103B1000089590931701809316010895282F2295F8
:103B20002F708295807F282B30E0C9018C7C9070AB
:103B3000959587959595879523733070220F331F40
:103B4000220F331F822B282F30E0C9018A7A907010
:103B50009595879525753070220F331F822B089518
:103B60000F931F93192F0E948E1D082F812F0E94E3
:103B70008E1D502F40E0282F30E0242B352BC9011B
:103B80001F910F9108958091B401843009F1109232
:103B9000A00120E488E190E00FB6F894A895809306
:103BA00060000FBE2093600083B7817F846083BF75
:103BB00083B7816083BF7894889583B78E7F83BFF6
:103BC00088E10FB6F89480936000109260000FBEF9
:103BD0000895089508951F920F920FB60F92112421
:103BE0008F939F93AF93BF938091A001882399F403
:103BF0008091A1019091A201A091A301B091A40193
:103C00004196A11DB11D8093A1019093A201A093A3
:103C1000A301B093A401BF91AF919F918F910F9099
:103C20000FBE0F901F9018950E94321308950E94A6
:103C3000E91D0E947D070E94EA1D80E00E94420764
:103C4000892B81F481E00E944207892B59F482E09C
:103C50000E944207892B31F483E00E94420720E052
:103C6000892B09F021E0822F089582E084BD93E042
:103C700095BD9AEF97BD80936E0008958FB7F89425
:103C80002091A1013091A2014091A3015091A40182
:103C90008FBFC90108958FB7F8942091A101309189
:103CA000A2014091A3015091A4018FBFB901CA01A3
:103CB0000895EF92FF920F931F93BC018FB7F89472
:103CC000E090A101F090A2010091A3011091A40144
:103CD0008FBFA801970140705070CB01A0E0B0E009
:103CE000281739074A075B0720F09701261B370B77
:103CF00005C09B01209530952E0D3F1DC9011F91D8
:103D00000F91FF90EF9008951F920F920FB60F92B0
:103D100011248F939F93AF93BF938091A1019091B2
:103D2000A201A091A301B091A4010196A11DB11D12
:103D30008093A1019093A201A093A301B093A40149
:103D4000BF91AF919F918F910F900FBE0F901F90D9
:103D500018950E944C0EF89480E29EE420E931E030
:103D6000F9013197F1F70197D9F787E090EBA7E0D8
:103D7000B0EB8093BE019093BF01A093C001B093BC
:103D8000C1012CE088E190E00FB6F894A8958093EB
:103D900060000FBE20936000FFCF80E090E00895A8
:103DA0000895CF93DF93282FC0E0D0E08F3A50F4EE
:103DB000883A28F5853AB0F4843080F4813009F0EF
:103DC00055C043C0883E30F4803E40F48F3B09F03C
:103DD0004DC03EC0803F08F449C033C0822F90E000
:103DE0009C012DC0853A19F421E830E428C0863AB8
:103DF00019F023E830E423C022E830E420C0883AF8
:103E000019F422EE34E41BC0893A19F429EE34E4A3
:103E100016C08A3A19F42AEE34E411C08B3A19F428
:103E200025EB34E40CC08C3A19F426EB34E407C0DB
:103E30008D3A19F024EB34E402C023EB34E4E901B9
:103E400017C0C82FD0E0D06513C0C1E0D0E010C0CB
:103E50000E94321384EF91E020E931E0F9013197BB
:103E6000F1F70197D9F70E94A91E02C0C0E0D0E087
:103E7000CE01DF91CF9108950E942707803EB0F4D4
:103E8000803C20F5813309F460C0823338F48932F4
:103E900009F453C08A3209F067C05CC08933C9F0A5
:103EA0008238B9F0853309F05FC042C0833E29F102
:103EB000843E30F4803EA1F0823E09F055C018C027
:103EC000863E29F1873E09F04FC026C00E94380780
:103ED00008959091BD0190FD09C091FD07C041C0BA
:103EE0008091BD0180FF02C089E33BC080EE39C0F4
:103EF0008091BD0182FD07C004C08091BD0182FF99
:103F000002C082EE2EC084FD0FC083EE2AC08091D5
:103F1000BD0183FD07C004C08091BD0183FF02C0C5
:103F200086EE1FC084FF02C080E01BC087EE19C070
:103F30008091BD0185FF05C006C08091BD0185FF50
:103F400002C085E30EC089E20CC08091BD0186FFEE
:103F500005C006C08091BD0186FF02C081E301C09B
:103F60008AE20E94D11E08950E94D11E0895AF9248
:103F7000BF92CF92DF92EF92FF921F93CF93DF9386
:103F80007C0110E081E0A82EB12C812F0E94420715
:103F90006C01C0E0D0E0C5010C2E02C0880F991F53
:103FA0000A94E2F78C219D21892BD9F080E06C2FB7
:103FB000712F0E943C1F9C018E159F05D9F0832F05
:103FC000807F51F0803141F0803231F0803321F038
:103FD000803A11F0803B29F4822F90E08E159F05E6
:103FE00049F02196CC30D105B1F61F5F143069F647
:103FF00080E001C081E0DF91CF911F91FF90EF90B1
:10400000DF90CF90BF90AF900895CF93DF93EC01F6
:104010008CE290E00E94B71F882319F0CE010E9425
:10402000B71FDF91CF9108951F93CF93DF930E9425
:10403000A121882311F40E94AC218BEB94E00E9413
:10404000850614E6C0E4DCE905C00E947D07CE01C8
:104050000197F1F71150C8F784EB94E00E948506B0
:1040600089E290E00E940520882309F045C18AE298
:1040700090E00E940520882311F00E94AC2185E089
:1040800090E00E940520882311F00E94A91E0E9442
:104090009C2180939F0187E090E00E940520882367
:1040A000D1F18BE190E00E940520882349F09091A6
:1040B0009F01892F869580958170880F9D7F28C0EC
:1040C0008EE090E00E940520882359F090919F0196
:1040D000892F8695869580958170880F880F9B7FA4
:1040E00017C080E190E00E94052090919F018823F5
:1040F00059F0892F86958695869580958170880FD1
:10410000880F880F977F04C0892F809581709E7FCC
:10411000982B90939F0180919F010E948C210E9477
:1041200092218093BD0180EE90E00E9405208823BB
:1041300049F08091BD01982F909591708E7F892BC9
:104140008093BD0189E390E00E940520882359F007
:104150009091BD01892F869580958170880F9D7FF4
:10416000982B9093BD0182EE90E00E940520882359
:1041700069F09091BD01892F869586958095817013
:10418000880F880F9B7F982B9093BD0186EE90E05F
:104190000E940520882379F09091BD01892F869592
:1041A0008695869580958170880F880F880F977FF8
:1041B000982B9093BD0183EE90E00E940520882308
:1041C00069F09091BD01892F82958F7080958170E3
:1041D0008295807F9F7E982B9093BD0185E390E030
:1041E0000E940520882379F09091BD01892F829546
:1041F00086958770809581708295880F807E9F7DDF
:10420000982B9093BD0181E390E00E9405208823C4
:1042100089F09091BD01892F82958695869583704E
:10422000809581708295880F880F807C9F7B982B6A
:104230009093BD0181E190E00E940520882379F0F0
:104240008091BD01982F991F9927991F21E09227EE
:104250009795992797958F77892B8093BD018091AA
:10426000BD010E9480218091BD01881F8827881F81
:1042700080930C0187E290E00E940520182F8EE1C8
:1042800090E00E940520811112608FE190E00E9471
:1042900005208111146080E290E00E9405208111C8
:1042A000186081E290E00E9405208111106182E295
:1042B00090E00E9405208111106283E290E00E944C
:1042C00005208111106484E290E00E940520811194
:1042D0001068112341F0812F0E948621612F70E028
:1042E00080E090E007C00E94972190E0A0E0B0E05D
:1042F000BC01CD010E946F1CDF91CF911F910895E9
:10430000682F84E090E00E94312D0895682F83E0AB
:1043100090E00E94312D0895682F82E090E00E9485
:10432000312D089584E090E00E94232D089583E0CC
:1043300090E00E94232D089582E090E00E94232DBA
:10434000089580E090E00E942B2D20E08D5E9E4F2E
:1043500009F421E0822F089580E090E06DEE7EEF79
:104360000E943F2D82E090E060E00E94312D83E0CA
:1043700090E060E00E94312D84E090E060E00E94D7
:10438000312D85E090E060E00E94312D089580910C
:10439000AB0180FF0BC09091110185E0989FC00197
:1043A0001124959587959595879530C081FF09C013
:1043B0009091110185E0989FC001112495958795F2
:1043C00025C082FF03C0909111010DC08091AA0108
:1043D000882319F485E090E008956091120190918E
:1043E0001101861728F085E0989FC00111240EC0A6
:1043F000899F90011124C901880F991F880F991F67
:10440000820F931F70E00E94FC2CCB018038910535
:1044100010F08FE70895009709F481E008958091E6
:10442000AB0180FF05C0809113018695869518C069
:1044300081FF04C080911301869512C082FF03C0E2
:10444000809113010DC02091AA01222319F481E06B
:1044500090E008956091140180911301261710F0E7
:1044600090E007C0289FC001112470E00E94FC2C3E
:10447000CB018038910510F08FE70895009709F47B
:1044800081E00895803F21F40E94C721819504C0F6
:10449000813F29F40E94C7218093A7010895823F9C
:1044A00021F40E94C721819504C0833F29F40E9412
:1044B000C7218093A6010895893F19F40E940F2215
:1044C00005C08A3F31F40E940F2281958093A80194
:1044D00008958B3F21F40E940F22819504C08C3FE8
:1044E00029F40E940F228093A9010895843F21F4AA
:1044F0008091A501816017C0853F21F48091A501BD
:10450000826011C0863F21F48091A50184600BC0B8
:10451000873F21F48091A501886005C0883F31F470
:104520008091A50180618093A50108958D3F21F4BC
:104530008091AB01816005C08E3F31F48091AB0169
:1045400082608093AB0108958F3F29F48091AB0185
:1045500084608093AB010895803F29F48091A70186
:1045600087FF6FC007C0813F41F48091A7011816F3
:104570000CF067C01092A70164C0823F29F48091BB
:10458000A60187FF5EC007C0833F41F48091A6016A
:1045900018160CF056C01092A60153C0893F29F49A
:1045A0008091A80118163CF04CC08A3F39F48091E4
:1045B000A80187FF46C01092A80143C08B3F29F491
:1045C0008091A90187FF3DC006C08C3F39F48091DE
:1045D000A9011816B4F51092A90133C0843F21F443
:1045E0008091A5018E7F05C0853F31F48091A501A2
:1045F0008D7F8093A50125C0863F21F48091A50180
:104600008B7FF7CF873F21F48091A501877FF1CF82
:10461000883F21F48091A5018F7EEBCF8D3F21F45F
:104620008091AB018E7F0BC08E3F21F48091AB0156
:104630008D7F05C08F3F29F48091AB018B7F8093E4
:10464000AB018091A601882371F48091A701882392
:1046500051F48091A801882331F48091A901882325
:1046600011F41092AA010895E5EAF1E085E0DF0176
:104670001D928A95E9F71092AA011092AB01089554
:1046800080919F0183FFC1C087EF94E00E9485065F
:1046900000D000D0EDB7FEB7319682EF94E0ADB711
:1046A000BEB712969C938E9311978091A501828339
:1046B00013820E941E070F900F900F900F9080EFB3
:1046C00094E00E94850600D000D08DEE94E0EDB716
:1046D000FEB7928381838091A601992787FD9095EB
:1046E000948383830E941E070F900F900F900F906A
:1046F0008BEE94E00E94850600D000D088EE94E016
:10470000ADB7BEB712969C938E9311978091A70177
:10471000992787FD909514969C938E9313970E94EA
:104720001E070F900F900F900F9086EE94E00E945E
:10473000850600D000D083EE94E0EDB7FEB79283FB
:1047400081838091A801992787FD90959483838325
:104750000E941E070F900F900F900F9081EE94E033
:104760000E94850600D000D08EED94E0ADB7BEB7B4
:1047700012969C938E9311978091A901992787FD9A
:10478000909514969C938E9313970E941E070F90FA
:104790000F900F900F908BED94E00E94850600D053
:1047A00000D0EDB7FEB7319688ED94E0ADB7BEB757
:1047B00012969C938E9311978091AA018283138203
:1047C0000E941E070F900F900F900F9086ED94E0BF
:1047D0000E94850600D000D0EDB7FEB7319683ED7C
:1047E00094E0ADB7BEB712969C938E9311978091CB
:1047F000AB01828313820E941E070F900F900F90CF
:104800000F9080ED94E00E94850685EA91E00E9479
:104810005C110E943E1E9093AD018093AC010895FF
:104820001F938091AC019091AD010E94591EAC0183
:104830002091AA01222321F08091100190E006C06E
:1048400090910F018AE0989FC001112448175907E1
:1048500008F485C09091A601992369F48091A7017D
:10486000882349F48091A801882329F48091A90123
:10487000882309F474C02F3F19F02F5F2093AA01F9
:10488000191624F40E94C7218093A6018091A601E5
:1048900087FF05C00E94C72181958093A601809162
:1048A000A701181624F40E94C7218093A7018091C4
:1048B000A70187FF05C00E94C72181958093A701AA
:1048C0006091A601662339F11091A701112319F116
:1048D000772767FD7095872F972F0E94012C23E380
:1048E00033E343E35FE30E94652C0E94CE2B609389
:1048F000A601612F772767FD7095872F972F0E945C
:10490000012C23E333E343E35FE30E94652C0E9421
:10491000CE2B6093A7018091A801181624F40E9461
:104920000F228093A8018091A80187FF05C00E94F3
:104930000F2281958093A8018091A901181624F473
:104940000E940F228093A9018091A90187FF05C0D1
:104950000E940F2281958093A9010E9440231F91FC
:10496000089580E0089580E0089585E399E00E942D
:104970008506089589EB99E00E94850600D000D055
:1049800000D0EDB7FEB731968BE699E0ADB7BEB774
:1049900012969C938E93119785E090E09383828387
:1049A00081E090E0958384830E941E078DB79EB7B7
:1049B00006960FB6F8949EBF0FBE8DBF0895833044
:1049C00009F452C0843030F4813071F0823009F043
:1049D000DAC02AC0853009F487C0853008F464C085
:1049E000863009F0D0C0A8C020910F01822F90E03E
:1049F000860F911D8F3F910520F4260F20930F0104
:104A000003C08FEF80930F0100D000D0EDB7FEB749
:104A100031968AED9BE0ADB7BEB712969C938E930C
:104A2000119780910F017FC020911001822F90E09B
:104A3000860F911D8F3F910520F4260F20931001C2
:104A400003C08FEF8093100100D000D0EDB7FEB708
:104A5000319688EC9BE0ADB7BEB712969C938E93CF
:104A60001197809110015FC020911101822F90E079
:104A7000860F911D8F3F910520F4260F2093110181
:104A800003C08FEF8093110100D000D0EDB7FEB7C7
:104A9000319685EB9BE0ADB7BEB712969C938E9393
:104AA0001197809111013FC020911201822F90E057
:104AB000860F911D8F3F910520F4260F2093120140
:104AC00003C08FEF8093120100D000D0EDB7FEB786
:104AD000319680EA9BE0ADB7BEB712969C938E9359
:104AE0001197809112011FC020911301822F90E035
:104AF000860F911D8F3F910520F4260F20931301FF
:104B000003C08FEF8093130100D000D0EDB7FEB744
:104B1000319687E89BE0ADB7BEB712969C938E9313
:104B2000119780911301828313820E941E070F90B8
:104B30000F900F900F90089520911401822F90E014
:104B4000860F911D8F3F910520F4260F20931401AD
:104B500003C08FEF8093140100D000D0EDB7FEB7F3
:104B600031968CE69BE0ADB7BEB712969C938E93C0
:104B7000119780911401828313820E941E070F9067
:104B80000F900F900F900895833009F446C0843041
:104B900030F4813071F0823009F0B6C024C0853025
:104BA00009F46FC0853008F452C0863009F0ACC0FB
:104BB0008AC080910F01681720F4861B80930F0133
:104BC00002C010920F0100D000D0EDB7FEB73196B1
:104BD00087E59CE0ADB7BEB712969C938E93119774
:104BE00080910F0167C080911001681720F4861B27
:104BF0008093100102C01092100100D000D0EDB7D8
:104C0000FEB7319685E49CE0ADB7BEB712969C9393
:104C10008E931197809110014DC0809111016817FA
:104C200020F4861B8093110102C01092110100D064
:104C300000D0EDB7FEB7319682E39CE0ADB7BEB7CA
:104C400012969C938E9311978091110133C080919D
:104C50001201681720F4861B8093120102C0109283
:104C6000120100D000D0EDB7FEB731968DE19CE087
:104C7000ADB7BEB712969C938E9311978091120197
:104C800019C080911301681720F4861B80931301CB
:104C900002C01092130100D000D0EDB7FEB73196DC
:104CA00084E09CE0ADB7BEB712969C938E931197AB
:104CB00080911301828313820E941E070F900F9030
:104CC0000F900F90089580911401681720F4861BAF
:104CD0008093140102C01092140100D000D0EDB7EF
:104CE000FEB7319689EE9BE0ADB7BEB712969C93A6
:104CF0008E93119780911401828313820E941E0764
:104D00000F900F900F900F9008951F93182F00D0C1
:104D100000D0EDB7FEB731968CE599E0ADB7BEB7E0
:104D200012969C938E931197128313820E941E07F2
:104D30000F900F900F900F9061E070E080E090E096
:104D400004C0660F771F881F991F1A95D2F70E941B
:104D50006F1C0E9432131F9108951F938B3109F429
:104D600063C28C3120F58E3009F479C28F3078F42B
:104D7000873009F44AC2883020F4863009F039C3FC
:104D800023C28830B1F18B3009F033C317C28131AF
:104D900009F417C3823120F4803109F02AC375C2A7
:104DA000863109F4A1C2893109F023C386C2853353
:104DB00009F417C3863368F4873209F412C38832C2
:104DC00020F48E3108F415C30EC3893209F011C3E3
:104DD00008C3833438F48A3308F007C3883309F0F2
:104DE00008C3ECC1833409F4FCC2883409F001C360
:104DF000FAC182E497E00E94850680E898E00E946C
:104E000085060E94972100D000D0EDB7FEB73196FD
:104E10002DE738E0ADB7BEB712963C932E931197AD
:104E2000828313820E941E070F900F900F900F90A5
:104E30008BE798E00E9485060E949C21182F88E647
:104E400098E00E94850600D000D0EDB7FEB73196FD
:104E500083E698E0ADB7BEB712969C938E931197F8
:104E6000128313820E941E070F900F900F900F90D5
:104E700081E698E00E94850687E598E00E94850615
:104E800000D000D0EDB7FEB7319684E598E0ADB71D
:104E9000BEB712969C938E931197812F8170828357
:104EA00013820E941E070F900F900F900F9082E5C3
:104EB00098E00E94850688E498E00E94850600D06C
:104EC00000D0EDB7FEB7319685E498E0ADB7BEB738
:104ED00012969C938E931197812F86958170828371
:104EE00013820E941E070F900F900F900F9083E483
:104EF00098E00E94850687E398E00E94850600D02E
:104F000000D0EDB7FEB7319684E398E0ADB7BEB7F9
:104F100012969C938E93119716951695812F8170FA
:104F2000828313820E941E070F900F900F900F90A4
:104F300082E398E00E94850689E298E00E94850657
:104F400000D000D0EDB7FEB7319686E298E0ADB75D
:104F5000BEB712969C938E9311971695117012837B
:104F600013820E941E070F900F900F900F9084E203
:104F700098E00E9485060E949221182F80E198E017
:104F80000E94850600D000D0EDB7FEB731968BE0C9
:104F900098E0ADB7BEB712969C938E93119712838B
:104FA00013820E941E070F900F900F900F9089E0C0
:104FB00098E00E94850680EF97E00E94850600D069
:104FC00000D0EDB7FEB731968DEE97E0ADB7BEB726
:104FD00012969C938E931197812F817082831382F6
:104FE0000E941E070F900F900F900F908BEE97E08E
:104FF0000E94850684ED97E00E94850600D000D0CF
:10500000EDB7FEB7319681ED97E0ADB7BEB712961A
:105010009C938E931197812F869581708283138242
:105020000E941E070F900F900F900F908FEC97E04B
:105030000E9485068DEB97E00E94850600D000D087
:10504000EDB7FEB731968AEB97E0ADB7BEB71296D3
:105050009C938E931197812F86958695817082837C
:1050600013820E941E070F900F900F900F9088EBF5
:1050700097E00E94850686EA97E00E94850600D0A8
:1050800000D0EDB7FEB7319683EA97E0ADB7BEB773
:1050900012969C938E931197812F8695869586956F
:1050A0008170828313820E941E070F900F900F90D1
:1050B0000F9081EA97E00E94850687E997E00E94B9
:1050C000850600D000D0EDB7FEB7319684E997E0B1
:1050D000ADB7BEB712969C938E931197812F829590
:1050E0008170828313820E941E070F900F900F9091
:1050F0000F9082E997E00E94850680E897E00E9481
:10510000850600D000D0EDB7FEB731968DE797E069
:10511000ADB7BEB712969C938E931197812F82954F
:1051200086958170828313820E941E070F900F90D4
:105130000F900F908BE797E00E9485068FE597E030
:105140000E94850600D000D0EDB7FEB731968CE501
:1051500097E0ADB7BEB712969C938E9311971295B8
:10516000169516951370812F8170828313820E9489
:105170001E070F900F900F900F908AE597E00E9406
:10518000850682E597E00E94850600D000D0EDB745
:10519000FEB731968FE497E0ADB7BEB712969C93F9
:1051A0008E9311971695128313820E941E070F90FB
:1051B0000F900F900F908DE497E002C080E998E087
:1051C0000E94850681E01AC180919F01807F8093B3
:1051D0009F010E94B5248EE397E00E94850681E03E
:1051E0008093AE010BC10E9432138DE297E00E94C2
:1051F000850680E197E220E931E0F9013197F1F786
:105200000197D9F70E94A91EDDCF80919F0180FFF1
:1052100008C080E297E00E94850680919F01807F10
:1052200018C084E197E010C080919F01982F969557
:1052300090959170292F220F8D7F822B80939F0153
:10524000992351F087E097E00E94850680919F01A5
:10525000816080939F01B6CF89EF96E0B1CF8091B6
:105260009F01982F9695969590959170292F220FD2
:10527000220F8B7F822B80939F01992319F08AEE56
:1052800096E0E2CF8AED96E09BCF80919F01982F28
:1052900096959695969590959170292F220F220FAD
:1052A000220F877F822B80939F01992319F08EEC28
:1052B00096E0CACF81EC96E083CF82EB96E00E9425
:1052C000850685E896E00E94850684E496E00E94C3
:1052D00085068DE196E00E94850688ED95E00E94A6
:1052E00085068DEA95E06CCF8FE995E00E948506F2
:1052F0000E944F1100D000D0EDB7FEB7319625E8DF
:1053000035E0ADB7BEB712963C932E9311978283CA
:1053100013820E941E07EDB7FEB731968EE695E028
:10532000ADB7BEB712969C938E93119780910101F1
:10533000828313820E941E07EDB7FEB731968BE57C
:1053400095E0ADB7BEB712969C938E93119780915E
:105350002801828313820E941E07EDB7FEB73196A3
:1053600088E495E0ADB7BEB712969C938E931197E3
:1053700080910C01828313820E941E070F900F9070
:105380000F900F900E944B1E00D000D000D021E360
:1053900035E0EDB7FEB732832183ADB7BEB71396C4
:1053A0006D937D938D939C9316970E941E0781E0C9
:1053B000EDB7FEB736960FB6F894FEBF0FBEEDBF41
:1053C0001DC00E94321380910C0191E089278093C7
:1053D0000C01882319F087E295E0F2CE8CE195E08C
:1053E000EFCE80E003C08D5101C089530E94852615
:1053F000E9CE8AE195E00E94850680E01F9108953C
:105400001F93182F8091AE01813079F0813020F008
:10541000823009F0BEC148C0E0910D01F0910E014B
:105420008081823209F0B7C107C0E0910D01F0918F
:105430000E018081823249F4812F0E94B124882399
:1054400049F5812F0E94AD26A7C1812F0E94B32468
:10545000882301F5143191F0153128F41B3039F00F
:105460001031D9F40EC0193249F01833B1F40E944A
:10547000B52481E699E00E9485060CC01092AE0129
:1054800010C00E94BA2487E699E00E94850682E057
:105490008093AE0181E090E07FC185E699E00E94B3
:1054A000850680E090E078C1143288F41E3108F05F
:1054B000F2C01B3009F11C3020F4173009F045C14F
:1054C0002DC1133159F1143109F03FC118C01B34FB
:1054D00009F418C11C3430F4193289F0183309F07A
:1054E00034C10AC0113509F409C1123509F402C1E9
:1054F0001E3409F02AC10CC10E94BA2429C180912E
:10550000AF01882319F01092AF0122C18CEC9AE010
:105510000E94850681E08093AE013EC18EE59BE04E
:105520000E9485068CE49BE00E94850600D000D096
:10553000EDB7FEB7319689E49BE0ADB7BEB71296E2
:105540009C938E93119780910F01828313820E9406
:105550001E070F900F900F900F9087E49BE00E9422
:10556000850685E39BE00E94850600D000D0EDB75C
:10557000FEB7319682E39BE0ADB7BEB712969C931F
:105580008E93119780911001828313820E941E07CF
:105590000F900F900F900F9080E39BE00E94850684
:1055A00081E29BE00E94850600D000D0EDB7FEB7F7
:1055B00031968EE19BE0ADB7BEB712969C938E9369
:1055C000119780911101828313820E941E070F9010
:1055D0000F900F900F908CE19BE00E9485068BE06E
:1055E0009BE00E94850600D000D0EDB7FEB7319653
:1055F00088E09BE0ADB7BEB712969C938E9311974F
:1056000080911201828313820E941E070F900F90D7
:105610000F900F9086E09BE00E94850681EF9AE054
:105620000E94850600D000D0EDB7FEB731968EEE11
:105630009AE0ADB7BEB712969C938E931197809166
:105640001301828313820E941E070F900F900F9008
:105650000F908CEE9AE00E94850685ED9AE00E94FC
:10566000850600D000D0EDB7FEB7319682ED9AE006
:10567000ADB7BEB712969C938E931197809114018B
:10568000828313820E941E070F900F900F900F903D
:1056900080ED9AE057C01232F9F0133260F41F31F6
:1056A00099F0103218F41E3109F510C0103281F053
:1056B0001132E1F40FC0143299F0143278F015323F
:1056C00089F0163299F410C082E011C081E00FC059
:1056D00083E00DC084E00BC085E009C086E007C010
:1056E00087E005C088E003C089E001C080E08093C6
:1056F000AF012EC08091AF0161E007C08091AF0182
:1057000061E009C08091AF016AE00E94DF2420C0FF
:105710008091AF016AE00E94C4251AC08EE1809397
:105720000F0182E3809310018AE08093110184E1EC
:105730008093120188E08093130188E28093140122
:105740008FEB9AE00E94850603C08DEB9AE01DC0A6
:105750002091AF012223B9F000D000D0EDB7FEB701
:10576000319687EB9AE0ADB7BEB712969C938E93B5
:105770001197228313820E941E0781E00F900F90E1
:105780000F900F9009C084EB9AE00E94850681E09B
:1057900003C01092AE0180E01F91089504D0689478
:1057A000B1118DC0089570D088F09F5790F0B92F37
:1057B0009927B751A0F0D1F0660F771F881F991F66
:1057C0001AF0BA95C9F712C0B13081F077D0B1E0C4
:1057D000089574C0672F782F8827B85F39F0B93FD4
:1057E000CCF3869577956795B395D9F73EF4909568
:1057F0008095709561957F4F8F4F9F4F0895E894E6
:1058000009C097FB3EF490958095709561957F4F08
:105810008F4F9F4F9923A9F0F92F96E9BB279395B6
:10582000F695879577956795B795F111F8CFFAF4C6
:10583000BB0F11F460FF1BC06F5F7F4F8F4F9F4FF7
:1058400016C0882311F096E911C0772321F09EE855
:10585000872F762F05C0662371F096E8862F70E0BB
:1058600060E02AF09A95660F771F881FDAF7880F95
:105870009695879597F9089557FD9058440F551FB1
:1058800059F05F3F71F04795880F97FB991F61F0C2
:105890009F3F79F087950895121613061406551F39
:1058A000F2CF4695F1DF08C0161617061806991FA5
:1058B000F1CF86957105610508940895E894BB279A
:1058C00066277727CB0197F908950BD078C069D068
:1058D00028F06ED018F0952309F05AC05FC011244B
:1058E000EECFCADFA0F3959FD1F3950F50E0551F7F
:1058F000629FF001729FBB27F00DB11D639FAA2725
:10590000F00DB11DAA1F649F6627B00DA11D661F73
:10591000829F2227B00DA11D621F739FB00DA11D94
:10592000621F839FA00D611D221F749F3327A00D4E
:10593000611D231F849F600D211D822F762F6A2FEA
:1059400011249F5750408AF0E1F088234AF0EE0F6F
:10595000FF1FBB1F661F771F881F91505040A9F77C
:105960009E3F510570F014C0AACF5F3FECF3983E04
:10597000DCF3869577956795B795F795E7959F5FE3
:10598000C1F7FE2B880F911D9695879597F908957D
:1059900097F99F6780E870E060E008959FEF80ECE2
:1059A000089500240A941616170618060906089585
:1059B00000240A9412161306140605060895092EEB
:1059C0000394000C11F4882352F0BB0F40F4BF2B5A
:1059D00011F460FF04C06F5F7F4F8F4F9F4F08959A
:1059E000991B79E004C0991F961708F0961B881F31
:1059F0007A95C9F78095089597FB092E07260AD056
:105A000077FD04D00CD006D000201AF47095619573
:105A10007F4F0895F6F7909581959F4F0895AA1BA3
:105A2000BB1B51E107C0AA1FBB1FA617B70710F089
:105A3000A61BB70B881F991F5A95A9F780959095BB
:105A4000BC01CD010895F999FECF92BD81BDF89AB0
:105A5000992780B50895A8E1B0E042E050E00C94A9
:105A6000462D262FF999FECF1FBA92BD81BD20BDCC
:105A70000FB6F894FA9AF99A0FBE019608950E940B
:105A8000312D272F0C94322DDC01CB01FC01F9992B
:105A9000FECF06C0F2BDE1BDF89A319600B40D927A
:0C5AA00041505040B8F70895F894FFCF33
:105AAC0005015E095A0A340AFE09C809018C011E57
:065ABC00320A1408280064
:00000001FF
